:020000040800F2
:100000000050002019410008A93C0008B53C000838
:10001000BB3C0008C13C0008C73C000800000000D1
:10002000000000000000000000000000CD3C0008BF
:10003000D93C000800000000E53C0008F13C000845
:100040006141000861410008614100086141000808
:1000500061410008614100086141000861410008F8
:10006000614100086141000861410008FD3C000851
:1000700061410008614100086141000861410008D8
:1000800061410008614100086141000861410008C8
:1000900061410008614100086141000861410008B8
:1000A00061410008614100086141000861410008A8
:1000B0006141000861410008614100086141000898
:1000C0006141000861410008614100086141000888
:1000D0006141000861410008113D000861410008CC
:1000E0006141000861410008614100080000000012
:1000F0000000000000000000000000000000000000
:0C01000000000000000000005FF808F1A3
:10010C0010B5054C237833B9044B13B10448AFF345
:10011C0000800123237010BD70000020000000003F
:10012C007442000808B5034B1BB103490348AFF3F5
:10013C00008008BD0000000074000020744200081C
:10014C0003685A004CBF43F0004323F000431844AB
:10015C00704700BF61B32DE9F84F01F1FF3A9046AB
:10016C000646D146002707EB090404EBD47464104F
:10017C00E50071190846FFF7E3FFA245834605F138
:10018C000800304409D0FFF7DBFFC34500F1FF3016
:10019C0005D8404509D2671CE5E7C34505D9A742F8
:1001AC0002D004F1FF39DEE700210846BDE8F88FE4
:1001BC0008467047012807D0022807D0044B0028B6
:1001CC000CBF184600207047024870470248704721
:1001DC00BD080008C1080008C508000830B5264B4A
:1001EC0083B004468D1E4BB301A92846AFF30080A3
:1001FC00F0B101992A46FFF7ADFF0146C0B1FFF7F8
:10020C009FFF4B68A064012B2FD0002B01F1040041
:10021C0027DBFFF795FF0023C4E913030368002BCA
:10022C0013DBFFF78DFF00232061184603B030BDB0
:10023C00092300221846226103B030BD0F4B104930
:10024C001846C91AC9100191D4E7C3F30360FFF72C
:10025C00B1FF002814BF002309232061184603B006
:10026C0030BD0123C4E91303D8E705230022184647
:10027C00226103B030BD00BF00000000DC4200086A
:10028C00AC430008036810B5DA07044606D49B0794
:10029C0000F1480009D500F067FC2368590709D51F
:1002AC001A070ED5DB0613D510BD00F055FC2368DC
:1002BC005907F5D404F1D00000F05EFC23681A074E
:1002CC00F0D404F5A87000F05FFC2368DB06EBD4D7
:1002DC0004F5E870BDE8104000F09ABC036803B167
:1002EC0003441846704700BF09207047704700BF91
:1002FC0070B504460D4608E02A6C236962612146FC
:10030C002A4601209847082808D1296C2046FFF777
:10031C0065FF06460028EFD003F01DFF0728FBD130
:10032C003046296CFFF7E2FF281D00F009FC00BFE6
:10033C002DE9F04705464FF0000CADF5727D03AC8E
:10034C000E1D17460FCE0FC40FCE0FC40FCE0FC409
:10035C0096E80F00D5F80C80D5F8189084E80F00BB
:10036C0002ACC4F800C021E0236C4FF4F0726B6156
:10037C0021467AA803F020FF2B697AAA2946304639
:10038C009847889BCDE900498246636431462B46E9
:10039C002A460120C0470746F8B94FF4F0727AA9F3
:1003AC00204603F009FFBAF1080F1CD1216C284636
:1003BC00FFF714FF002F08BF0926074618BF0A26AF
:1003CC000028D1D0A36B46F01001CDE900492A4694
:1003DC00636401202B46C04700B1092738460DF550
:1003EC00727DBDE8F087BAF1070FF6D13846216C63
:1003FC00FFF77CFF03A800F0A3FB00BF406C704725
:10040C004FF0FF3CF0B5CB6BF9B00B640D1D01AC9C
:10041C000F4606460FCD0FC40FCD0FC40FCD0FC422
:10042C0095E80F0084E80F00CDF800C006E03369B2
:10043C006A46314698470828044608D11099304638
:10044C00FFF7CCFE0028F2D0092079B0F0BD684649
:10045C00FFF718FF062CF7D139463046FFF748FF57
:10046C0030B4DD6BC160826119461D64002230BC62
:10047C005EE700BF70B54369C6680B64BEB903691B
:10048C000A4604460D46014602209847072807D025
:10049C00082803D129462046FFF72AFF03F05BFE0C
:1004AC003046296CFFF722FF281D00F049FB012282
:1004BC00FFF73EFF03F04FFEC2682AB110B4CC6BBD
:1004CC0000220C6410BC33E79AE700BF704700BFF2
:1004DC00836813B10146012018477047042907D8D7
:1004EC00DFE801F00308060808000BB90F2A03D94E
:1004FC00022070470120704700EB820042681846CA
:10050C00009B1A60704700BF002310B584B003AC89
:10051C000A4600941946FFF7E1FF039804B010BD9A
:10052C00042907D8DFE801F00308060808000BB916
:10053C000F2A03D90220704701207047009900EB65
:10054C008202096818465160704700BF002310B53D
:10055C0084B004AC44F8042D00940A461946FFF705
:10056C00DFFF04B010BD00BF4FF0FF3CF0B5D36B04
:10057C00ADF50F7D1364151D17AC07460E460FCD58
:10058C000FC40FCD0FC40FCD0FC495E80F0084E836
:10059C000F00CDF858C012E00C2116A86A46FFF7E0
:1005AC00D5FF314616A8B84778B9049B16AA6946F8
:1005BC00082098470528044608D0092805D0269914
:1005CC006846FFF70BFE0028E6D0092416A8FFF7B3
:1005DC0059FE20460DF50F7DF0BD00BF2DE9F04F03
:1005EC000D46C96C89B00C1D164600F0030B0A6849
:1005FC001F460694002B68D00221130C8DF81D3079
:10060C001204DBB204EB830405928DF81C102B6DE5
:10061C00BBF1020F08BFAC6B13F0010346D1019381
:10062C0000F008030093D4F80090B9F1000F00F02B
:10063C00F380022F45D0B4F80090B4F80280043453
:10064C00AB6C28F0010A0F2130469A44FFF75CFF8F
:10065C00824534D829F001035344834294BF0020CF
:10066C0001204FEA480808F0020809F0010948EA9D
:10067C000908B8F1010F3AD031D3B8F1020F1AD1F1
:10068C00236823F0004ABBF1000F66D130B1009A09
:10069C00002A6CD0BAF1000F00F09080002B00DA29
:1006AC0004340AF1010304EB8304BCE7304605A9CA
:1006BC0000F048FB78B1092009B0BDE8F08F0020AC
:1006CC00CFE7D4F804800834BAE70323120205926A
:1006DC00ADF81C309BE7082009B0BDE8F08FBBF1EA
:1006EC00000F02D0002840F0B48004349BE7BBF12B
:1006FC00000F18D1A8B1D4E90023991C4FEAD2728B
:10070C00D9D005F158010133049100F0B580201DBA
:10071C00FFF7E4FD04AB01462846AFF30080002848
:10072C0067D108347FE70D213046D5F82080FFF7DC
:10073C00EBFE8045F5D1AB6A9C42F2D12046FFF727
:10074C00FFFC0F2102463046FFF700FF30462A46D9
:10075C000021FFF7FBFE0720AEE70D213046D5F850
:10076C002080FFF7D1FE804532D0236896E7BAF19E
:10077C00000F23D005F1580304F10408CDF808B09C
:10078C00DDF80090A34603971C4602E05745B94696
:10079C0040D040460494FFF7A1FD04AB0146002273
:1007AC002846AFF3008009F1010708F1040800287E
:1007BC00ECD0D1455C46DDE902B7D6D130460D21EF
:1007CC00FFF7A2FE049B2862C5E90934062073E7F3
:1007DC00AB6A9C42C9D104224FF00008A318C5E9AA
:1007EC000AA8C5E90C23236843454DDB012301937B
:1007FC0057E780460D213046FFF786FEB8F1020F11
:10080C0028623ED12B46049A43F82C2F6B62AC62C3
:10081C00062051E75C46D1E705A9304600F092FA74
:10082C0000287FF448AF019B002B3FF454AF0F21FD
:10083C003046FFF769FE0E2102463046FFF786FE72
:10084C0030461A4A0F21FFF781FE072009B0BDE898
:10085C00F08F2046FFF774FC04340746AC6328463F
:10086C00AFF3008000283FF426AF30463A460F2104
:10087C00FFF76CFE07201FE730460D21FFF744FE03
:10088C002862049B6B62C2E70AF1010004EB800052
:10089C00FFF756FC0F2102463046FFF757FE304655
:1008AC002A464146FFF752FE072005E700000000EC
:1008BC00002393E6012391E602238FE62DE9F04114
:1008CC000546C4B0042906D8DFE801F04D2B05031A
:1008DC000900032B5FD0022044B0BDE8F081002B4F
:1008EC00F9D1102AF7D82B68DC0600F1F68022AC7F
:1008FC0020460192012600F095F90023A86B019A7D
:10090C0006FA03F1114203D00168043044F82310B5
:10091C000133042BF4D1A863204600F079F90020B0
:10092C00DAE7012B4FEA124697B254D0052BD2D1FD
:10093C0006EB0708B8F1200FCDD80F2E40F29B80A4
:10094C00B846002F40F0DD80AA6B0F2EAA6340F250
:10095C00C080B8F1000F02D002A800F00DF9002001
:10096C0044B0BDE8F081002BB5D10127AC6B96B239
:10097C00281D07FA03F1314203F1010302D021686B
:10098C0004340160102B00F10400F2D112F4005079
:10099C00E5D1AC63A0E7160C97B2F319102B9AD8DB
:1009AC002B681A075FD422AC204600F00FF904EB39
:1009BC00C601A86B4FB1034600EBC7001A6804339D
:1009CC00834241F8042BF9D11846A863204600F065
:1009DC00DBF8002080E7F219102A3FF67CAF0F2ECF
:1009EC003FF679AF2A68D10708D5284622F00302D2
:1009FC0040F8482B019300F0B3F8019B22AC204641
:100A0C00019300F0ADF8A96B019B002F00F09580CD
:100A1C004FF000087A0004EBC604043C01EB8202A0
:100A2C0051F8040B914244F8040FF9D1B8F1000FBE
:100A3C000FD002AC102E314638BF102104EBC1018F
:100A4C00843902EBC80452F8040B944241F8040FA9
:100A5C00F9D1012B7FF479AF22AC0432AA63204682
:100A6C0000F07AF87BE723F008032B6005F5A870FB
:100A7C0000F0ACF897E7B8F1100F2A6843D9D0070B
:100A8C00A8F110080BD5284622F0010242F0020210
:100A9C0040F8482B019300F06BF82A68019B510732
:100AAC0025D40F2E04D822A8019300F061F8019BE5
:100ABC0002AC2046019300F063F8C6F11000002848
:100ACC00AA6B019BB6DD22AC114604EBC6044200B6
:100ADC00A3E722A800F048F83BE723F010032B60B3
:100AEC0005F5E870019200F09DF8019AFFE62846A2
:100AFC0022F0040240F8D02B019300F041F8019B46
:100B0C00CFE72A68CBE7D0070AD5284622F00102A6
:100B1C0042F0020240F8482B019300F029F8019BA7
:100B2C0022AC20460193B84600F022F8A96B019B39
:100B3C00002F7FF46DAF0A4607E70A468DE700BF2A
:100B4C0000F1340191E838009C46A6464CF8045D4F
:100B5C0090E8FF0FE54600BD90EC210B704700BFFD
:100B6C0080EC210B704700BF90EC200B704700BF4E
:100B7C0080EC200B704700BFD0EC200B704700BFFF
:100B8C00C0EC200B704700BFF0EC0201F0EC02113E
:100B9C00F0EC0221F0EC0231F0EC0241F0EC0251ED
:100BAC00F0EC0261F0EC0271F0EC0281F0EC0291DD
:100BBC00F0EC02A1F0EC02B1F0EC02C1F0EC02D1CD
:100BCC00F0EC02E1F0EC02F1704700BFE0EC020146
:100BDC00E0EC0211E0EC0221E0EC0231E0EC02412D
:100BEC00E0EC0251E0EC0261E0EC0271E0EC02811D
:100BFC00E0EC0291E0EC02A1E0EC02B1E0EC02C10D
:100C0C00E0EC02D1E0EC02E1E0EC02F1704700BF55
:100C1C00B0FC0181B0FC0191B0FC01A1B0FC01B1B0
:100C2C00704700BFA0FC0181A0FC0191A0FC01A1B8
:100C3C00A0FC01B1704700BFEC4600B52DE9005097
:100C4C002DE9FF1F4FF000032DE90C0001A9FFF760
:100C5C00D7FBDDF840E012B0704700BFEC4600B5A2
:100C6C002DE900502DE9FF1F4FF000032DE90C007A
:100C7C0001A9FFF7FFFBDDF840E012B0704700BFA1
:100C8C00EC4600B52DE900502DE9FF1F4FF0000395
:100C9C002DE90C0001A9FFF70FFCDDF840E012B0C4
:100CAC00704700BFEC4600B52DE900502DE9FF1F41
:100CBC004FF000032DE90C0001ABFFF7D1FBDDF881
:100CCC0040E012B0704700BFEC4600B52DE9005073
:100CDC002DE9FF1F4FF000032DE90C0001AAFFF7CF
:100CEC0043FCDDF840E012B0704700BF027A7AB9DD
:100CFC00437AA3B103214268013B10B443721368D9
:100D0C00141D01721A024460026010BC180E704768
:100D1C000368013A02721A020260180E7047B02082
:100D2C00704700BF002300B585B003AA0092194696
:100D3C000C22FFF7D3FB039805B05DF804FB00BF52
:100D4C00F0E700BF2DE9F04305460E464FF00008D2
:100D5C0085B03046FFF7CAFFB028044600F0B080DB
:100D6C00070620D500F0F003802B65D0902B36D0F1
:100D7C00A02B78D0B02B47D0C02B00F0898000F08E
:100D8C00F803D02B0BD100F00702013242F4002201
:100D9C00052301212846FFF791FD0028D9D0092011
:100DAC0005B0BDE8F08300230DF10C09194687004E
:100DBC00CDF800900D222846FFF790FBFFB2039B65
:100DCC00043760064CBFDF1BFF180023CDF80090E2
:100DDC0019460D2228460397FFF7A2FBB9E700F04E
:100DEC000D030D2BDBD0002303AF00F00F021946CF
:100DFC0000972846FFF772FB0023009719460D2237
:100E0C002846FFF78DFBA4E7B1285ED0B22800F08E
:100E1C00CB80B3287DD000F0FC03B42BBFD00123D2
:100E2C0000F007021A4442F4002219462846FFF744
:100E3C0045FD00288DD0B2E73046FFF757FF24025E
:100E4C000443B4F5004FAAD000232401A2B21946E2
:100E5C002846FFF733FD0028A1D114F4004F18BF2A
:100E6C004FF0010875E7C3434FF47F6203F00703AB
:100E7C001A410023010702F47F6248BF42F480420A
:100E8C0019462846FFF71AFD00283FF462AF86E7A3
:100E9C00C62851D0C7285AD000F0F803C02B69D00F
:100EAC00C82875D0C9287FF47AAF3046FFF71EFFEB
:100EBC00020300F00F0002F470220130024367E7D6
:100ECC00B8F1000F14D000206AE73046FFF70EFF90
:100EDC0000283FF464AF10F0F0037FF460AF0246DB
:100EEC0019462846FFF7EAFC00283FF432AF56E7D4
:100EFC0003AC43460E22414600942846FFF7EEFA17
:100F0C000094284643460F224146FFF709FB404612
:100F1C0046E73046FFF7EAFE0123010300F00F001D
:100F2C0001F47021C2180A4328461946FFF7C6FC83
:100F3C0000283FF40EAF32E73046FFF7D7FE01032F
:100F4C0000F00F00032301F47021421CEBE7304644
:100F5C00FFF7CCFE024600283FF421AF10F0F0035F
:100F6C007FF41DAF04212846FFF7A8FC00283FF4AE
:100F7C00F0AE14E7032300F00F02013242F42022FA
:100F8C0019462846FFF79AFC00283FF4E2AE06E724
:100F9C003046FFF7ABFE00F0F00200F00F0310320A
:100FAC00013343EA0232F3E600230DF10C090D2262
:100FBC001946CDF800902846FFF790FA3046FFF717
:100FCC0095FE02064FF002070CD5039B00F07F0044
:100FDC00B840034430460393FFF788FE030607F13D
:100FEC000707F2D40023039A00F07F04BC4002F5FB
:100FFC0001721444CDF8009019460D222846039432
:10100C00FFF78EFAA5E600BF30B503240D46C36C7E
:10101C0085B05A688DF80C40DC791202083301A9AE
:10102C00284601928DF80D400293FFF78BFE05B018
:10103C0030BD00BF08B5FFF783FE806C08BD00BF54
:10104C0008B5FFF77DFEC06CC37900EB8300083058
:10105C0008BD00BF08B503F07EF800BF08B5FFF768
:10106C00F9FF00BF80B500AF084B1B68074A43F07F
:10107C0010031360032000F02DFB002000F008F893
:10108C0002F0DAFD0023184680BD00BF00200240AC
:10109C0080B582B000AF7860124B1A68124B1B7887
:1010AC0019464FF47A73B3FBF1F3B2FBF3F3184622
:1010BC0000F045FB0346002B01D001230EE07B68BA
:1010CC000F2B0AD8002279684FF0FF3000F00DFB8F
:1010DC00064A7B681360002300E00123184608379A
:1010EC00BD4680BD08000020040000200000002048
:1010FC0080B400AF054B1B781A46054B1B68134494
:10110C00034A136000BFBD4680BC7047040000203A
:10111C008C00002080B400AF024B1B681846BD4603
:10112C0080BC70478C00002080B586B000AF786022
:10113C000023FB7500233B610023BB600023FB6095
:10114C007B68002B01D10123BEE07B689B68002BE0
:10115C007B689B6A002B09D17B680022DA627B6872
:10116C00002283F82420786802F0AEFB786800F047
:10117C00ABF90346FB757B689B6A03F01003002BED
:10118C0040F09980FB7D002B40F095807B689B6A3A
:10119C0023F4885323F0020343F002027B689A6223
:1011AC007B685A687B68DB691A437B681B7B5B0036
:1011BC001343BA681343BB607B689B68B3F5807FAD
:1011CC0003D07B689B68012B02D14FF4807300E045
:1011DC0000233A6913433B617B681B7D012B19D1BA
:1011EC007B681B7B002B09D17B689B69013B5A03F5
:1011FC003B69134343F400633B610BE07B689B6AE0
:10120C0043F020027B689A627B68DB6A43F0010240
:10121C007B68DA627B681B685B6823F469417B68D6
:10122C001B683A690A435A607B681B689A68284BAA
:10123C0013407A681268B9680B4393607B689B68AB
:10124C00B3F5807F03D07B689B68012B04D17B684E
:10125C001B69013B1B05FB607B681B68DB6A23F485
:10126C0070017B681B68FA680A43DA627B681B684A
:10127C009A68184B1340BA689A420BD17B680022CB
:10128C00DA627B689B6A23F0030343F001027B68FC
:10129C009A6218E07B689B6A23F0120343F01002F9
:1012AC007B689A627B68DB6A43F001027B68DA62D6
:1012BC000123FB7507E07B689B6A43F010027B6897
:1012CC009A620123FB75FB7D18461837BD4680BD1D
:1012DC00FDF7E1FFFE0E1FFF80B485B000AF786014
:1012EC0039600023FB730023BB607B6893F82430C8
:1012FC00012B01D10223DCE07B68012283F824203E
:10130C003B685B68062B1CD87B681B68596B3B6879
:10131C005A6813469B001344053B1F2202FA03F341
:10132C00DB4319403B6818683B685A6813469B00BE
:10133C001344053B00FA03F27B681B680A435A63AB
:10134C003CE03B685B680C2B1CD87B681B68196BFA
:10135C003B685A6813469B001344233B1F2202FA36
:10136C0003F3DB4319403B6818683B685A68134623
:10137C009B001344233B00FA03F27B681B680A436F
:10138C001A631BE07B681B68D96A3B685A68134672
:10139C009B001344413B1F2202FA03F3DB43194029
:1013AC003B6818683B685A6813469B001344413BE2
:1013BC0000FA03F27B681B680A43DA623B681B681D
:1013CC00092B1CD97B681B68D9683B681A681346C3
:1013DC005B0013441E3B072202FA03F3DB43194064
:1013EC003B6898683B681A6813465B0013441E3BC5
:1013FC0000FA03F27B681B680A43DA6019E07B6829
:10140C001B6819693B681A6813465B001344072272
:10141C0002FA03F3DB4319403B6898683B681A688F
:10142C0013465B00134400FA03F27B681B680A4303
:10143C001A613B681B68102B03D03B681B68112B8F
:10144C0032D17B681B681D4A934225D17B681B688F
:10145C009B6803F40003002B26D17B681B689A68F9
:10146C007B681B6842F400029A603B681B68102B77
:10147C001AD1134B1B68134AA2FB03239A0C134675
:10148C009B0013445B00BB6002E0BB68013BBB608C
:10149C00BB68002BF9D107E07B689B6A43F0200204
:1014AC007B689A620123FB737B68002283F82420FB
:1014BC00FB7B18461437BD4680BC704700240140A6
:1014CC000800002083DE1B4380B584B000AF786039
:1014DC000023FB607B681B689B6803F00103012BF6
:1014EC0027D17B681B689A687B681B6822F0010215
:1014FC009A60FFF70FFEF86014E0FFF70BFE024650
:10150C00FB68D31A022B0DD97B689B6A43F010023F
:10151C007B689A627B68DB6A43F001027B68DA6263
:10152C00012307E07B681B689B6803F00103012B18
:10153C00E3D0002318461037BD4680BD80B485B07B
:10154C0000AF78607B6803F00703FB600C4BDB6833
:10155C00BB60BA684FF6FF031340BB60FB681A020E
:10156C00BB68134343F0BF6343F40033BB60044ACE
:10157C00BB68D36000BF1437BD4680BC704700BF4A
:10158C0000ED00E080B400AF044BDB681B0A03F0F5
:10159C0007031846BD4680BC704700BF00ED00E055
:1015AC0080B483B000AF0346FB7197F90730002B72
:1015BC000BDBFB7903F01F02064997F907305B0937
:1015CC00012000FA02F241F8232000BF0C37BD467F
:1015DC0080BC704700E100E080B483B000AF0346EC
:1015EC003960FB7197F90730002B0ADB3B68DAB2E4
:1015FC000C4997F907301201D2B20B4483F800233F
:10160C000AE03B68DAB20849FB7903F00F03043BAC
:10161C001201D2B20B441A7600BF0C37BD4680BC07
:10162C00704700BF00E100E000ED00E080B489B03D
:10163C0000AFF860B9607A60FB6803F00703FB61E8
:10164C00FB69C3F10703042B28BF0423BB61FB69AF
:10165C000433062B02D9FB69033B00E000237B61BA
:10166C004FF0FF32BB6902FA03F3DA43BB681A404E
:10167C007B699A404FF0FF317B6901FA03F3D94340
:10168C007B680B40134318462437BD4680BC70471B
:10169C0080B582B000AF78607B68013BB3F1807F8E
:1016AC0001D301230FE00A4A7B68013B53600F21F1
:1016BC004FF0FF30FFF790FF054B00229A60044B70
:1016CC0007221A60002318460837BD4680BD00BFAC
:1016DC0010E000E080B582B000AF78607868FFF76A
:1016EC002DFF00BF0837BD4680BD80B586B000AF6A
:1016FC000346B9607A60FB7300237B61FFF742FFFE
:10170C0078617A68B9687869FFF790FF024697F9B3
:10171C000F3011461846FFF75FFF00BF1837BD4664
:10172C0080BD80B582B000AF0346FB7197F90730DE
:10173C001846FFF735FF00BF0837BD4680BD80B5A2
:10174C0082B000AF78607868FFF7A2FF03461846B6
:10175C000837BD4680BD000080B485B000AF78600E
:10176C000023FB607B68002B01D1012343E07B68E5
:10177C001B681A46224B1344224AA2FB03231B0963
:10178C009A007B681A647B681F4ADA637B680222C2
:10179C0083F821207B681B681B68FB60FB6823F4C3
:1017AC007F5323F03003FB607B685A687B689B682F
:1017BC001A437B68DB681A437B681B691A437B6896
:1017CC005B691A437B689B691A437B68DB6913432B
:1017DC00FA681343FB607B681B68FA681A607B68C5
:1017EC0000229A637B68012283F821207B68002207
:1017FC0083F82020002318461437BD4680BC704760
:10180C00F8FFFDBFCDCCCCCC0000024080B584B03D
:10181C0000AF78600023FB737B6893F82130022BB8
:10182C0005D07B6804229A630123FB7351E07B682B
:10183C001B681A687B681B6822F00E021A607B68B2
:10184C001B681A687B681B6822F001021A607B68AF
:10185C001B68224A934229D07B681B68204A93421A
:10186C0022D07B681B681F4A93421AD07B681B6886
:10187C001D4A934212D07B681B681C4A93420AD0C3
:10188C007B681B681A4A934202D14FF480130EE016
:10189C004FF080730BE04FF4803308E04FF480532B
:1018AC0005E04FF4807302E0102300E00123114A9D
:1018BC0053607B68012283F821207B68002283F827
:1018CC0020207B685B6B002B03D07B685B6B78689C
:1018DC009847FB7B18461037BD4680BD0800024078
:1018EC001C000240300002404400024058000240FC
:1018FC006C0002400000024080B584B000AF7860FC
:10190C007B68DB6B1B68FB607B681B681B68BB60C0
:10191C007B681B6C04229A40FB681340002B4FD051
:10192C00BB6803F00403002B4AD07B681B681B6860
:10193C0003F02003002B07D17B681B681A687B68B7
:10194C001B6822F004021A607B681B68664A93428B
:10195C0029D07B681B68654A934222D07B681B6840
:10196C00634A93421AD07B681B68624A934212D036
:10197C007B681B68604A93420AD07B681B685F4A8D
:10198C00934202D14FF480030EE04FF080630BE0E2
:10199C004FF4802308E04FF4804305E04FF480635C
:1019AC0002E0402300E00423554A53607B68DB6A65
:1019BC00002B00F094807B68DB6A786898478EE097
:1019CC007B681B6C02229A40FB681340002B56D09C
:1019DC00BB6803F00203002B51D07B681B681B68AB
:1019EC0003F02003002B0BD17B681B681A687B6803
:1019FC001B6822F00A021A607B68012283F82120FE
:101A0C007B681B68384A934229D07B681B68374A2D
:101A1C00934222D07B681B68354A93421AD07B686C
:101A2C001B68344A934212D07B681B68324A93423B
:101A3C000AD07B681B68314A934202D14FF40013E1
:101A4C000EE04FF000730BE04FF4003308E04FF45E
:101A5C00005305E04FF4007302E0202300E0022362
:101A6C00274A53607B68002283F820207B689B6A9E
:101A7C00002B34D07B689B6A786898472FE07B6892
:101A8C001B6C08229A40FB681340002B28D0BB68C3
:101A9C0003F00803002B23D07B681B681A687B6853
:101AAC001B6822F00E021A607B681A6C7B68DB6B79
:101ABC00012101FA02F25A607B6801229A637B6869
:101ACC00012283F821207B68002283F820207B6888
:101ADC001B6B002B04D07B681B6B7868984700BF8E
:101AEC0000BF1037BD4680BD080002401C000240FC
:101AFC003000024044000240580002406C0002409A
:101B0C000000024080B48BB000AF786039600023D5
:101B1C007B6200233B6227E101227B6A02FA03F31A
:101B2C00FB613B681B68FA691340BB61BA69FB69CE
:101B3C009A4240F016813B685B68122B34D0122B12
:101B4C000DD8022B2BD0022B04D8002B31D0012B1B
:101B5C001CD048E0032B43D0112B1BD043E0894A07
:101B6C00934226D0874A934206D8874A934220D084
:101B7C00864A93421DD036E0854A934219D0854A55
:101B8C00934216D0844A934213D02CE03B68DB6816
:101B9C003B6228E03B68DB6804333B6223E03B6834
:101BAC00DB6808333B621EE03B68DB680C333B624E
:101BBC0019E03B689B68002B02D104233B6212E0C6
:101BCC003B689B68012B05D108233B627B68FA6953
:101BDC001A6108E008233B627B68FA695A6102E0EB
:101BEC0000233B6200BFBB69FF2B01D87B6801E07F
:101BFC007B6804337B61BB69FF2B02D87B6A9B003B
:101C0C0002E07B6A083B9B003B617B691A680F21F1
:101C1C003B6901FA03F3DB431A40396A3B6901FA69
:101C2C0003F31A437B691A603B685B6803F08053CB
:101C3C00002B00F09680594B9B69584A43F00103E6
:101C4C009361564B9B6903F00103BB60BB68544A1C
:101C5C007B6A9B08023352F82330FB607B6A03F0EB
:101C6C0003039B000F2202FA03F3DB43FA681340D1
:101C7C00FB607B684B4A934213D07B684A4A934281
:101C8C000DD07B68494A934207D07B68484A9342FF
:101C9C0001D1032306E0042304E0022302E0012324
:101CAC0000E000237A6A02F0030292009340FA6883
:101CBC001343FB603A497B6A9B080233FA6841F88C
:101CCC0023203B685B6803F48033002B06D0394B30
:101CDC001A683849BB6913430B6006E0354B1A6828
:101CEC00BB69DB43334913400B603B685B6803F40F
:101CFC000033002B06D02F4B5A682E49BB69134377
:101D0C004B6006E02B4B5A68BB69DB4329491340F7
:101D1C004B603B685B6803F48013002B06D0254BAB
:101D2C009A682449BB6913438B6006E0214B9A687F
:101D3C00BB69DB431F4913408B603B685B6803F452
:101D4C000013002B06D01B4BDA681A49BB691343EE
:101D5C00CB6006E0174BDA68BB69DB4315491340CF
:101D6C00CB607B6A01337B623B681A687B6A22FA20
:101D7C0003F3002B7FF4D0AE00BF2C37BD4680BCE4
:101D8C00704700BF0000211000001110000012105D
:101D9C000000311000003210000022100010024030
:101DAC000000014000080140000C014000100140FF
:101DBC00001401400004014080B483B000AF78608F
:101DCC000B467B8013467B707B78002B03D07A8884
:101DDC007B681A6103E07B881A047B681A6100BF78
:101DEC000C37BD4680BC704780B586B000AF7860BC
:101DFC007B68002B01D101236CE27B681B6803F02C
:101E0C000103002B00F08780924B5B6803F00C03FE
:101E1C00042B0CD08F4B5B6803F00C03082B12D1F6
:101E2C008C4B5B6803F48033B3F5803F0BD1894B4B
:101E3C001B6803F40033002B6CD07B685B68002BB1
:101E4C0068D1012346E27B685B68B3F5803F06D11D
:101E5C00804B1B687F4A43F4803313602EE07B6811
:101E6C005B68002B0CD17B4B1B687A4A23F48033C4
:101E7C001360784B1B68774A23F4802313601DE0B2
:101E8C007B685B68B3F5A02F0CD1724B1B68714A51
:101E9C0043F4802313606F4B1B686E4A43F480330A
:101EAC0013600BE06B4B1B686A4A23F4803313609E
:101EBC00684B1B68674A23F4802313607B685B685C
:101ECC00002B13D0FFF726F9386108E0FFF722F951
:101EDC0002463B69D31A642B01D90323FAE15D4B0B
:101EEC001B6803F40033002BF0D014E0FFF712F959
:101EFC00386108E0FFF70EF902463B69D31A642BF0
:101F0C0001D90323E6E1534B1B6803F40033002B88
:101F1C00F0D100E000BF7B681B6803F00203002BCC
:101F2C0063D04C4B5B6803F00C03002B0BD0494B7C
:101F3C005B6803F00C03082B1CD1464B5B6803F465
:101F4C008033002B16D1434B1B6803F00203002B8C
:101F5C0005D07B681B69012B01D00123BAE13D4BF5
:101F6C001B6823F0F8027B685B69DB00394913437B
:101F7C000B603AE07B681B69002B20D0364B0122AA
:101F8C001A60FFF7C7F8386108E0FFF7C3F802469C
:101F9C003B69D31A022B01D903239BE12D4B1B6800
:101FAC0003F00203002BF0D02A4B1B6823F0F8023D
:101FBC007B685B69DB00274913430B6015E0264BFC
:101FCC0000221A60FFF7A6F8386108E0FFF7A2F8C4
:101FDC0002463B69D31A022B01D903237AE11D4B2C
:101FEC001B6803F00203002BF0D17B681B6803F025
:101FFC000803002B3AD07B689B69002B19D0174B38
:10200C0001221A60FFF786F8386108E0FFF782F8C2
:10201C0002463B69D31A022B01D903235AE10D4B1B
:10202C005B6A03F00203002BF0D0012000F0DAFA17
:10203C001CE00A4B00221A60FFF76CF838610FE0C5
:10204C00FFF768F802463B69D31A022B08D9032321
:10205C0040E100BF001002400000424280044242B6
:10206C009E4B5B6A03F00203002BE9D17B681B6873
:10207C0003F00403002B00F0A6800023FB75974BA4
:10208C00DB6903F08053002B0DD1944BDB69934A31
:10209C0043F08053D361914BDB6903F08053BB60F9
:1020AC00BB680123FB758E4B1B6803F48073002BFC
:1020BC0018D18B4B1B688A4A43F480731360FFF76B
:1020CC0029F8386108E0FFF725F802463B69D31A76
:1020DC00642B01D90323FDE0814B1B6803F480734F
:1020EC00002BF0D07B68DB68012B06D17B4B1B6A85
:1020FC007A4A43F0010313622DE07B68DB68002B06
:10210C000CD1764B1B6A754A23F001031362734B97
:10211C001B6A724A23F0040313621CE07B68DB68C1
:10212C00052B0CD16D4B1B6A6C4A43F004031362F4
:10213C006A4B1B6A694A43F0010313620BE0674B5D
:10214C001B6A664A23F001031362644B1B6A634AE1
:10215C0023F0040313627B68DB68002B15D0FEF7B9
:10216C00D9FF38610AE0FEF7D5FF02463B69D31A66
:10217C0041F28832934201D90323ABE0574B1B6ADF
:10218C0003F00203002BEED014E0FEF7C3FF38611E
:10219C000AE0FEF7BFFF02463B69D31A41F28832D0
:1021AC00934201D9032395E04C4B1B6A03F00203C5
:1021BC00002BEED1FB7D012B05D1484BDB69474A47
:1021CC0023F08053D3617B68DB69002B00F08180A6
:1021DC00424B5B6803F00C03082B61D07B68DB6916
:1021EC00022B46D13F4B00221A60FEF793FF386159
:1021FC0008E0FEF78FFF02463B69D31A022B01D988
:10220C00032367E0354B1B6803F00073002BF0D100
:10221C007B681B6AB3F5803F08D1304B5B6823F4B5
:10222C0000327B689B682D4913434B602B4B5B68DA
:10223C0023F474127B68196A7B685B6A0B43274929
:10224C0013434B60274B01221A60FEF763FF386182
:10225C0008E0FEF75FFF02463B69D31A022B01D957
:10226C00032337E01D4B1B6803F00073002BF0D0E9
:10227C002FE01C4B00221A60FEF74CFF386108E07F
:10228C00FEF748FF02463B69D31A022B01D9032300
:10229C0020E0124B1B6803F00073002BF0D118E008
:1022AC007B68DB69012B01D1012313E00B4B5B68CD
:1022BC00FB60FB6803F480327B681B6A9A4206D190
:1022CC00FB6803F470127B685B6A9A4201D00123AD
:1022DC0000E0002318461837BD4680BD00100240B0
:1022EC00007000406000424280B584B000AF78605E
:1022FC0039607B68002B01D10123D0E06A4B1B684D
:10230C0003F007033A689A4210D9674B1B6823F015
:10231C00070265493B6813430B60634B1B6803F072
:10232C0007033A689A4201D00123B8E07B681B6826
:10233C0003F00203002B20D07B681B6803F004031E
:10234C00002B05D0594B5B68584A43F4E06353604B
:10235C007B681B6803F00803002B05D0534B5B68AC
:10236C00524A43F460535360504B5B6823F0F002C5
:10237C007B689B684D4913434B607B681B6803F07B
:10238C000103002B40D07B685B68012B07D1474BC6
:10239C001B6803F40033002B15D101237FE07B680D
:1023AC005B68022B07D1414B1B6803F00073002BB9
:1023BC0009D1012373E03D4B1B6803F00203002B92
:1023CC0001D101236BE0394B5B6823F003027B687E
:1023DC005B68364913434B60FEF79CFEF8600AE0DD
:1023EC00FEF798FE0246FB68D31A41F288329342FC
:1023FC0001D9032353E02D4B5B6803F00C027B687F
:10240C005B689B009A42EBD1274B1B6803F00703D8
:10241C003A689A4210D2244B1B6823F007022249D7
:10242C003B6813430B60204B1B6803F007033A68AF
:10243C009A4201D0012332E07B681B6803F004034D
:10244C00002B08D0194B5B6823F4E0627B68DB68D7
:10245C00164913434B607B681B6803F00803002B81
:10246C0009D0124B5B6823F460527B681B69DB005C
:10247C000E4913434B6000F021F801460B4B5B688F
:10248C001B0903F00F030A4AD35C21FA03F3094A30
:10249C001360094B1B681846FEF7FAFD002318461B
:1024AC001037BD4680BD00BF002002400010024026
:1024BC00A0420008080000200000002090B48AB060
:1024CC0000AF2A4B3C1D0FCB84E80F00284B1B8818
:1024DC003B800023FB610023BB6100237B62002354
:1024EC007B6100233B62234B5B68FB61FB6903F060
:1024FC000C03042B02D0082B03D02DE01E4B3B62A7
:10250C002DE0FB699B0C03F00F0307F12802134429
:10251C0013F8243C7B61FB6903F48033002B13D04C
:10252C00144B5B685B0C03F0010307F128021344A6
:10253C0013F8283CBB617B690F4A02FB03F2BB69B1
:10254C00B2FBF3F37B6204E07B690C4A02FB03F3FE
:10255C007B627B6A3B6202E0074B3B6200BF3B6ADB
:10256C0018462837BD4690BC704700BF8C42000807
:10257C009C4200080010024000127A0000093D0045
:10258C0080B400AF024B1B681846BD4680BC704738
:10259C000800002080B500AFFFF7F2FF0146054BA5
:1025AC005B681B0A03F00703034AD35C21FA03F3AD
:1025BC00184680BD00100240B042000880B500AF44
:1025CC00FFF7DEFF0146054B5B68DB0A03F00703F0
:1025DC00034AD35C21FA03F3184680BD0010024075
:1025EC00B042000880B485B000AF78600A4B1B681D
:1025FC000A4AA2FB03235B0A7A6802FB03F3FB6023
:10260C0000BFFB685A1EFA60002BF9D100BF1437CB
:10261C00BD4680BC704700BF08000020D34D62103F
:10262C0080B586B000AF786000233B610023FB606F
:10263C007B681B6803F00103002B7DD00023FB7526
:10264C004F4BDB6903F08053002B0DD14C4BDB69F6
:10265C004B4A43F08053D361494BDB6903F0805301
:10266C00BB60BB680123FB75464B1B6803F480738E
:10267C00002B18D1434B1B68424A43F48073136000
:10268C00FEF748FD386108E0FEF744FD02463B6961
:10269C00D31A642B01D903236DE03A4B1B6803F466
:1026AC008073002BF0D0364B1B6A03F44073FB6035
:1026BC00FB68002B2ED07B685B6803F44073FA68D0
:1026CC009A4227D02E4B1B6A23F44073FB602E4B8F
:1026DC0001221A602C4B00221A60294AFB681362F3
:1026EC00FB6803F00103002B14D0FEF713FD3861D7
:1026FC000AE0FEF70FFD02463B69D31A41F288321D
:10270C00934201D9032336E01D4B1B6A03F00203ED
:10271C00002BEED01A4B1B6A23F440727B685B686B
:10272C00174913430B62FB7D012B05D1144BDB695D
:10273C00134A23F08053D3617B681B6803F00203B8
:10274C00002B08D00E4B5B6823F440427B689B68DF
:10275C000B4913434B607B681B6803F01003002B81
:10276C0008D0074B5B6823F480027B68DB68044964
:10277C0013434B60002318461837BD4680BD00BF7D
:10278C0000100240007000404004424280B582B00C
:10279C0000AF78607B68002B01D101231DE07B68C2
:1027AC0093F83D30DBB2002B06D17B68002283F816
:1027BC003C20786801F0C2FB7B68022283F83D2044
:1027CC007B681A687B6804331946104600F0BCF924
:1027DC007B68012283F83D20002318460837BD464C
:1027EC0080BD80B582B000AF78607B68002B01D1D2
:1027FC0001231DE07B6893F83D30DBB2002B06D142
:10280C007B68002283F83C20786800F015F87B6820
:10281C00022283F83D207B681A687B6804331946D2
:10282C00104600F091F97B68012283F83D200023CB
:10283C0018460837BD4680BD80B483B000AF7860C1
:10284C0000BF0C37BD4680BC7047000080B584B01B
:10285C0000AFF860B9607A60FB6893F83C30012BEC
:10286C0001D10223B4E0FB68012283F83C20FB6811
:10287C00022283F83D207B680C2B00F29F8001A282
:10288C0052F823F0C5280008C9290008C9290008F6
:10289C00C929000805290008C9290008C929000808
:1028AC00C929000847290008C9290008C9290008B6
:1028BC00C929000887290008FB681B68B9681846F5
:1028CC0000F0A4F9FB681B689A69FB681B6842F06E
:1028DC0008029A61FB681B689A69FB681B6822F006
:1028EC0004029A61FB681B689969BB681A69FB68EA
:1028FC001B680A439A6162E0FB681B68B96818465A
:10290C0000F0EAF9FB681B689A69FB681B6842F4E3
:10291C0000629A61FB681B689A69FB681B6822F469
:10292C0080629A61FB681B689969BB681B691A0213
:10293C00FB681B680A439A6141E0FB681B68B96835
:10294C00184600F033FAFB681B68DA69FB681B68F1
:10295C0042F00802DA61FB681B68DA69FB681B68E5
:10296C0022F00402DA61FB681B68D969BB681A693A
:10297C00FB681B680A43DA6121E0FB681B68B968D5
:10298C00184600F07DFAFB681B68DA69FB681B6867
:10299C0042F40062DA61FB681B68DA69FB681B6849
:1029AC0022F48062DA61FB681B68D969BB681B6919
:1029BC001A02FB681B680A43DA6100E000BFFB687F
:1029CC00012283F83D20FB68002283F83C20002381
:1029DC0018461037BD4680BD80B584B000AF786016
:1029EC0039607B6893F83C30012B01D10223A6E0BF
:1029FC007B68012283F83C207B68022283F83D200F
:102A0C007B681B689B68FB60FB6823F07703FB60AB
:102A1C00FB6823F47F43FB607B681B68FA689A6051
:102A2C003B681B68402B67D0402B0BD8102B73D006
:102A3C00102B02D8002B6FD078E0202B6CD0302BD1
:102A4C006AD073E0702B0DD0702B04D8502B33D080
:102A5C00602B41D06AE0B3F5805F66D0B3F5005FC0
:102A6C0017D063E07B6818683B6899683B685A68C4
:102A7C003B68DB6800F0C9FA7B681B689B68FB60ED
:102A8C00FB6843F07703FB607B681B68FA689A600D
:102A9C004CE07B6818683B6899683B685A683B68EF
:102AAC00DB6800F0B2FA7B681B689A687B681B686D
:102ABC0042F480429A6039E07B6818683B68596838
:102ACC003B68DB681A4600F029FA7B681B685021CA
:102ADC00184600F080FA29E07B6818683B68596852
:102AEC003B68DB681A4600F047FA7B681B6860217C
:102AFC00184600F070FA19E07B6818683B68596852
:102B0C003B68DB681A4600F009FA7B681B684021B9
:102B1C00184600F060FA09E07B681A683B681B688D
:102B2C001946104600F057FA00E000BF7B680122FE
:102B3C0083F83D207B68002283F83C200023184654
:102B4C001037BD4680BD000080B485B000AF786002
:102B5C0039607B681B68FB607B68294A93420BD009
:102B6C007B68B3F1804F07D07B68264A934203D031
:102B7C007B68254A934208D1FB6823F07003FB6005
:102B8C003B685B68FA681343FB607B681C4A9342A2
:102B9C000BD07B68B3F1804F07D07B68194A934206
:102BAC0003D07B68184A934208D1FB6823F4407326
:102BBC00FB603B68DB68FA681343FB60FB6823F03F
:102BCC0080023B685B691343FB607B68FA681A60A0
:102BDC003B689A687B68DA623B681A687B689A6221
:102BEC007B68074A934203D13B681A697B681A6376
:102BFC007B6801225A6100BF1437BD4680BC704708
:102C0C00002C0140000400400008004080B487B054
:102C1C0000AF786039607B681B6A23F001027B6827
:102C2C001A627B681B6A7B617B685B683B617B68B3
:102C3C009B69FB60FB6823F07003FB60FB6823F06F
:102C4C000303FB603B681B68FA681343FB607B69FA
:102C5C0023F002037B613B689B687A6913437B61B9
:102C6C007B681C4A93420CD17B6923F008037B617F
:102C7C003B68DB687A6913437B617B6923F004034F
:102C8C007B617B68134A934211D13B6923F48073B7
:102C9C003B613B6923F400733B613B685B693A69B8
:102CAC0013433B613B689B693A6913433B617B6807
:102CBC003A695A607B68FA689A613B685A687B6823
:102CCC005A637B687A691A6200BF1C37BD4680BCA8
:102CDC00704700BF002C014080B487B000AF786013
:102CEC0039607B681B6A23F010027B681A627B6870
:102CFC001B6A7B617B685B683B617B689B69FB60E3
:102D0C00FB6823F4E043FB60FB6823F44073FB6037
:102D1C003B681B681B02FA681343FB607B6923F05A
:102D2C0020037B613B689B681B017A6913437B61C1
:102D3C007B681D4A93420DD17B6923F080037B6134
:102D4C003B68DB681B017A6913437B617B6923F069
:102D5C0040037B617B68144A934213D13B6923F493
:102D6C0080633B613B6923F400633B613B685B69B7
:102D7C009B003A6913433B613B689B699B003A6932
:102D8C0013433B617B683A695A607B68FA689A61C5
:102D9C003B685A687B689A637B687A691A6200BFE1
:102DAC001C37BD4680BC7047002C014080B487B0F6
:102DBC0000AF786039607B681B6A23F480727B6893
:102DCC001A627B681B6A7B617B685B683B617B6812
:102DDC00DB69FB60FB6823F07003FB60FB6823F08E
:102DEC000303FB603B681B68FA681343FB607B6959
:102DFC0023F400737B613B689B681B027A69134365
:102E0C007B617B681D4A93420DD17B6923F400637F
:102E1C007B613B68DB681B027A6913437B617B69CE
:102E2C0023F480637B617B68144A934213D13B6922
:102E3C0023F480533B613B6923F400533B613B68B3
:102E4C005B691B013A6913433B613B689B691B013E
:102E5C003A6913433B617B683A695A607B68FA684C
:102E6C00DA613B685A687B68DA637B687A691A6254
:102E7C0000BF1C37BD4680BC704700BF002C014012
:102E8C0080B487B000AF786039607B681B6A23F42C
:102E9C0080527B681A627B681B6A3B617B685B684B
:102EAC007B617B68DB69FB60FB6823F4E043FB60C0
:102EBC00FB6823F44073FB603B681B681B02FA68D9
:102ECC001343FB603B6923F400533B613B689B68F5
:102EDC001B033A6913433B617B680F4A934209D148
:102EEC007B6923F480437B613B685B699B017A6956
:102EFC0013437B617B687A695A607B68FA68DA6194
:102F0C003B685A687B681A647B683A691A6200BF2E
:102F1C001C37BD4680BC7047002C014080B487B084
:102F2C0000AFF860B9607A60FB681B6A7B61FB6874
:102F3C001B6A23F00102FB681A62FB689B693B6108
:102F4C003B6923F0F0033B617B681B013A69134337
:102F5C003B617B6923F00A037B617A69BB6813438D
:102F6C007B61FB683A699A61FB687A691A6200BFF7
:102F7C001C37BD4680BC704780B487B000AFF8608A
:102F8C00B9607A60FB681B6A23F01002FB681A6256
:102F9C00FB689B697B61FB681B6A3B617B6923F463
:102FAC0070437B617B681B037A6913437B613B69CC
:102FBC0023F0A0033B61BB681B013A6913433B61DF
:102FCC00FB687A699A61FB683A691A6200BF1C3720
:102FDC00BD4680BC704780B485B000AF7860396066
:102FEC007B689B68FB60FB6823F07003FB603A68AE
:102FFC00FB68134343F00703FB607B68FA689A6035
:10300C0000BF1437BD4680BC704780B487B000AF9A
:10301C00F860B9607A603B60FB689B687B617B6998
:10302C0023F47F437B613B681A027B681A43BB68BD
:10303C0013437A6913437B61FB687A699A6000BF1A
:10304C001C37BD4680BC704780B485B000AF78603B
:10305C0039607B6893F83C30012B01D1022332E0BC
:10306C007B68012283F83C207B68022283F83D2098
:10307C007B681B685B68FB607B681B689B68BB603C
:10308C00FB6823F07003FB603B681B68FA68134312
:10309C00FB60BB6823F08003BB603B685B68BA686D
:1030AC001343BB607B681B68FA685A607B681B68BB
:1030BC00BA689A607B68012283F83D207B68002205
:1030CC0083F83C20002318461437BD4680BC70475B
:1030DC0080B485B000AF786039600023FB607B68FA
:1030EC0093F83C30012B01D102233DE07B68012297
:1030FC0083F83C20FB6823F0FF023B68DB6813433A
:10310C00FB60FB6823F440723B689B681343FB60D5
:10311C00FB6823F480623B685B681343FB60FB68CD
:10312C0023F400623B681B681343FB60FB6823F4C9
:10313C0080523B681B691343FB60FB6823F400520D
:10314C003B685B691343FB60FB6823F480423B687C
:10315C00DB691343FB607B681B68FA685A647B6805
:10316C00002283F83C20002318461437BD4680BC4F
:10317C00704780B582B000AF78607B68002B01D1BE
:10318C0001233FE07B6893F83930DBB2002B06D18A
:10319C007B68002283F83820786800F065FF7B6834
:1031AC00242283F839207B681B68DA687B681B68EB
:1031BC0022F40052DA60786800F05EFA7B681B68D3
:1031CC001A697B681B6822F490421A617B681B6841
:1031DC005A697B681B6822F02A025A617B681B685B
:1031EC00DA687B681B6842F40052DA607B68002264
:1031FC00DA637B68202283F839207B68202283F8ED
:10320C003A20002318460837BD4680BD80B588B0EB
:10321C0000AF78607B681B681B68FB617B681B6870
:10322C00DB68BB617B681B685B697B6100233B616E
:10323C000023FB60FB6903F00F033B613B69002B30
:10324C000DD1FB6903F02003002B08D0BB6903F000
:10325C002003002B03D0786800F08DF9CCE03B699B
:10326C00002B00F0AB807B6903F00103002B05D130
:10327C00BB6903F49073002B00F0A080FB6903F092
:10328C000103002B0AD0BB6903F48073002B05D01B
:10329C007B68DB6B43F001027B68DA63FB6903F04C
:1032AC000403002B0AD07B6903F00103002B05D02B
:1032BC007B68DB6B43F002027B68DA63FB6903F02B
:1032CC000203002B0AD07B6903F00103002B05D00D
:1032DC007B68DB6B43F004027B68DA63FB6903F009
:1032EC000803002B0AD07B6903F00103002B05D0E7
:1032FC007B68DB6B43F008027B68DA637B68DB6B13
:10330C00002B78D0FB6903F02003002B07D0BB699E
:10331C0003F02003002B02D0786800F02CF97B68B6
:10332C001B685B6903F04003002B14BF01230023CF
:10333C00DBB2FB607B68DB6B03F00803002B02D174
:10334C00FB68002B31D0786800F077F87B681B683D
:10335C005B6903F04003002B23D07B681B685A6920
:10336C007B681B6822F040025A617B685B6B002B08
:10337C0013D07B685B6B224A5A637B685B6B184685
:10338C00FEF744FA0346002B16D07B685B6B5B6B35
:10339C007A68526B104698470EE0786800F044F853
:1033AC000AE0786800F040F806E0786800F03CF835
:1033BC007B680022DA631EE000BF1CE0FB6903F0AF
:1033CC008003002B08D0BB6903F08003002B03D0D3
:1033DC00786800F063F80FE0FB6903F04003002B02
:1033EC000AD0BB6903F04003002B05D0786800F0CD
:1033FC00AAF800BF00E000BF2037BD4680BD00BF6B
:10340C008134000880B483B000AF786000BF0C3703
:10341C00BD4680BC704780B483B000AF786000BFFD
:10342C000C37BD4680BC704780B483B000AF786069
:10343C0000BF0C37BD4680BC704780B483B000AF72
:10344C0078607B681B68DA687B681B6822F4907272
:10345C00DA607B681B685A697B681B6822F0010282
:10346C005A617B68202283F83A2000BF0C37BD4696
:10347C0080BC704780B584B000AF78607B685B6AB5
:10348C00FB60FB680022DA85FB680022DA84F868AE
:10349C00FFF7CAFF00BF1037BD4680BD80B485B0B2
:1034AC0000AF78607B6893F83930DBB2212B44D1C4
:1034BC007B689B68B3F5805F1AD17B681B6AFB60E5
:1034CC00FB681B881A467B681B68C2F308025A60AB
:1034DC007B681B69002B05D17B681B6A9A1C7B6877
:1034EC001A620EE07B681B6A5A1C7B681A6208E041
:1034FC007B681B6A591C7A6811621A787B681B6896
:10350C005A607B68DB8C9BB2013B9BB27A68194694
:10351C00D184002B0FD17B681B68DA687B681B6831
:10352C0022F08002DA607B681B68DA687B681B68B3
:10353C0042F04002DA60002300E002231846143700
:10354C00BD4680BC704780B582B000AF78607B68A8
:10355C001B68DA687B681B6822F04002DA607B68C3
:10356C00202283F839207868FFF74CFF0023184697
:10357C000837BD4680BD80B584B000AF78607B68ED
:10358C0093F83A30DBB2222B71D17B689B68B3F590
:10359C00805F23D17B689B6AFB607B681B69002B77
:1035AC000ED17B681B685B689BB2C3F308039AB2AD
:1035BC00FB681A807B689B6A9A1C7B689A6229E07C
:1035CC007B681B685B689BB2DBB29AB2FB681A80A3
:1035DC007B689B6A5A1C7B689A621BE07B681B6940
:1035EC00002B0AD17B681B6858687B689B6A591C46
:1035FC007A689162C2B21A700CE07B681B685B68D7
:10360C00DAB27B689B6A581C7968886202F07F0288
:10361C00D2B21A707B68DB8D9BB2013B9BB27A688D
:10362C001946D185002B20D17B681B68DA687B6832
:10363C001B6822F02002DA607B681B68DA687B6802
:10364C001B6822F48072DA607B681B685A697B689D
:10365C001B6822F001025A617B68202283F83A2011
:10366C007868FFF7D8FE002302E0002300E0022375
:10367C0018461037BD4680BD80B584B000AF786069
:10368C007B681B681B6923F440517B68DA687B6894
:10369C001B680A431A617B689A687B681B691A432A
:1036AC007B685B691343FB607B681B68DB6823F4F6
:1036BC00B05323F00C037A681268F9680B43D3609B
:1036CC007B681B685B6923F440717B689A697B6833
:1036DC001B680A435A617B681B68524A93424ED15D
:1036EC00FEF76CFFB860BA6813469B0013449A004F
:1036FC001A447B685B689B00B2FBF3F34A4AA2FB5B
:10370C0003235B091901BA6813469B0013449A0002
:10371C001A447B685B689B00B2FBF3F2424BA3FB41
:10372C0002035B09642000FB03F3D31A1B01323341
:10373C003D4AA2FB03235B0903F0F0031944BA686A
:10374C0013469B0013449A001A447B685B689B00E9
:10375C00B2FBF3F2344BA3FB02035B09642000FBC6
:10376C0003F3D31A1B0132332F4AA2FB03235B0949
:10377C0003F00F027B681B680A449A604DE0FEF769
:10378C0009FFB860BA6813469B0013449A001A44A8
:10379C007B685B689B00B2FBF3F3234AA2FB032319
:1037AC005B091901BA6813469B0013449A001A442A
:1037BC007B685B689B00B2FBF3F21B4BA3FB020321
:1037CC005B09642000FB03F3D31A1B013233164A46
:1037DC00A2FB03235B0903F0F0031944BA681346F8
:1037EC009B0013449A001A447B685B689B00B2FBF5
:1037FC00F3F20D4BA3FB02035B09642000FB03F304
:10380C00D31A1B013233084AA2FB03235B0903F0D2
:10381C000F027B681B680A449A6000BF1037BD46D4
:10382C0080BD00BF003801401F85EB5180B584B0CE
:10383C0000AF3B1D00221A605A609A60204B214A4F
:10384C001A601F4B4FF480729A601D4B01221A7341
:10385C001B4B00221A751A4B4FF46022DA61184B7D
:10386C0000225A60164B02221A611548FDF75CFCC7
:10387C000346002B01D000F0D8F904237B60012310
:10388C00BB600523FB603B1D19460D48FDF724FD6D
:10389C000346002B01D000F0C8F906237B600223FD
:1038AC00BB603B1D19460648FDF716FD0346002B71
:1038BC0001D000F0BAF900BF1037BD4680BD00BF83
:1038CC00900000200024014080B588B000AF7860E3
:1038DC0007F1100300221A605A609A60DA607B6864
:1038EC001B68284A934249D1274B9B69264A43F4CB
:1038FC0000739361244B9B6903F40073FB60FB68BA
:10390C00214B9B69204A43F0040393611E4B9B6936
:10391C0003F00403BB60BB6850233B6103237B6152
:10392C0007F1100319461948FEF7ECF8184B194A21
:10393C001A60174B00225A60154B00229A60144BE8
:10394C008022DA60124B4FF400721A61104B4FF464
:10395C0000625A610E4B20229A610D4B0022DA61F3
:10396C000B48FDF7F9FE0346002B01D000F05DF982
:10397C007B68074A1A62064A7B68536200BF20378D
:10398C00BD4680BD002401400010024000080140EB
:10399C00C00000200800024080B582B000AF0C4B84
:1039AC005B690B4A43F001035361094B5B6903F0FC
:1039BC0001037B607B68002200210B20FDF795FE44
:1039CC000B20FDF7AEFE00BF0837BD4680BD00BF23
:1039DC000010024080B58AB000AF07F1140300223A
:1039EC001A605A609A60DA604F4B9B694E4A43F0FA
:1039FC00100393614C4B9B6903F010033B613B69D3
:103A0C00494B9B69484A43F020039361464B9B69A1
:103A1C0003F02003FB60FB68434B9B69424A43F075
:103A2C0004039361404B9B6903F00403BB60BB68C8
:103A3C003D4B9B693C4A43F0080393613A4B9B69AD
:103A4C0003F008037B607B6800224FF40051374879
:103A5C00FEF7B2F9002240F204413548FEF7ACF90A
:103A6C004FF400537B610123BB610023FB610223F4
:103A7C003B6207F1140319462C48FEF743F84FF448
:103A8C0040437B610023BB610023FB6107F11403FE
:103A9C0019462648FEF736F802237B610023BB61EA
:103AAC000023FB6107F1140319462248FEF72AF89C
:103ABC0004237B610123BB610023FB6101233B6277
:103ACC0007F1140319461A48FEF71CF84FF48063EB
:103ADC007B610123BB610023FB6102233B6207F185
:103AEC00140319461248FEF70DF84FF400637B617E
:103AFC000023BB610023FB6107F1140319460C483A
:103B0C00FEF700F80C4B5B687B627B6A43F0E0636A
:103B1C007B627B6A43F400437B62074A7B6A536097
:103B2C0000BF2837BD4680BD001002400010014088
:103B3C00000C0140001401400000014080B500AFB2
:103B4C00FDF790FA00F00BF8FFF744FFFFF724FFA6
:103B5C00FFF76CFE00F05EFA00F034F9FEE780B57A
:103B6C0094B000AF07F1280328220021184600F07A
:103B7C002EFB07F1140300221A605A609A60DA6077
:103B8C001A613B1D00221A605A609A60DA600223A7
:103B9C00BB620123BB631023FB6302237B64002302
:103BAC00BB644FF46013FB6407F128031846FEF75F
:103BBC001BF90346002B14BF01230023DBB2002B9F
:103BCC0001D000F032F80F237B610223BB6100238C
:103BDC00FB614FF4A0633B624FF4A0637B6207F17F
:103BEC00140302211846FEF77FFB0346002B14BF7B
:103BFC0001230023DBB2002B01D000F016F80223C6
:103C0C007B600023FB603B1D1846FEF709FD034655
:103C1C00002B14BF01230023DBB2002B01D000F0DA
:103C2C0004F800BF5037BD4680BD80B400AF00BF64
:103C3C00BD4680BC7047000080B485B000AF154B0A
:103C4C009B69144A43F001039361124B9B6903F087
:103C5C000103BB60BB680F4BDB690E4A43F080531A
:103C6C00D3610C4BDB6903F080537B607B680A4BA0
:103C7C005B68FB60FB6823F0E063FB60FB6843F070
:103C8C000073FB60044AFB68536000BF1437BD46E9
:103C9C0080BC7047001002400000014080B400AFAF
:103CAC0000BFBD4680BC704780B400AFFEE780B457
:103CBC0000AFFEE780B400AFFEE780B400AFFEE7D4
:103CCC0080B400AF00BFBD4680BC704780B400AF6D
:103CDC0000BFBD4680BC704780B400AF00BFBD467E
:103CEC0080BC704780B500AFFDF702FA00BF80BD05
:103CFC0080B500AF0248FDF7FFFD00BF80BD00BFDF
:103D0C00C000002080B500AF0248FFF77FFA00BF6B
:103D1C0080BD00BF4401002080B400AF01231846D1
:103D2C00BD4680BC704780B582B000AF786039600A
:103D3C0000F018FA0246162313604FF0FF331846B2
:103D4C000837BD4680BD80B582B000AF78604FF0BB
:103D5C00FF317868FFF7E7FFFEE7000080B400AFA3
:103D6C00154B1B68144A43F001031360124B5A683D
:103D7C001149124B13404B600F4B1B680E4A23F03A
:103D8C00847323F4803313600B4B1B680A4A23F4AF
:103D9C0080231360084B5B68074A23F4FE035360CF
:103DAC00054B4FF41F029A60054B4FF000629A606E
:103DBC0000BFBD4680BC7047001002400000FFF8F9
:103DCC0000ED00E080B596B000AF07F1480300228B
:103DDC001A605A609A60DA6007F1400300221A6098
:103DEC005A6007F1240300221A605A609A60DA6064
:103DFC001A615A619A613B1D20220021184600F07D
:103E0C00E6F94C4B4C4A1A604A4B00225A60494B1B
:103E1C0000229A60474B4FF4FA62DA60454B00225D
:103E2C001A61444B00225A61424B00229A6141486C
:103E3C00FEF7ACFC0346002B01D0FFF7F6FE4FF467
:103E4C008053BB6407F1480319463A48FEF7C4FD9A
:103E5C000346002B01D0FFF7E8FE3648FEF7C1FC05
:103E6C000346002B01D0FFF7E0FE00233B64002348
:103E7C007B6407F1400319462E48FFF7E5F803462B
:103E8C00002B01D0FFF7D1FE60237B620023BB62C5
:103E9C000023FB6208233B6300237B630023BB638B
:103EAC004FF40073FB6307F12403002219462148E9
:103EBC00FEF7CCFC0346002B01D0FFF7B6FE07F152
:103ECC002403042219461B48FEF7C0FC0346002BB2
:103EDC0001D0FFF7AAFE07F1240308221946154862
:103EEC00FEF7B4FC0346002B01D0FFF79EFE4FF407
:103EFC0000637B604FF48063BB600023FB60202376
:103F0C003B6100237B614FF40053BB6100233B6298
:103F1C003B1D19460748FFF7DBF80346002B01D081
:103F2C00FFF783FE034800F027F800BF5837BD4663
:103F3C0080BD00BF04010020002C014080B485B07E
:103F4C0000AF78607B681B68094A93420BD1094B20
:103F5C009B69084A43F400639361064B9B6903F425
:103F6C000063FB60FB6800BF1437BD4680BC704724
:103F7C00002C01400010024080B588B000AF786082
:103F8C0007F1100300221A605A609A60DA607B68AD
:103F9C001B681C4A934231D11B4B9B691A4A43F054
:103FAC0008039361184B9B6903F00803FB60FB68E3
:103FBC00154B9B69144A43F004039361124B9B69A4
:103FCC0003F00403BB60BB684FF460433B61022306
:103FDC007B610323FB6107F1100319460B48FDF7C6
:103FEC0091FD4FF4E0633B6102237B610323FB6192
:103FFC0007F1100319460648FDF784FD00BF203772
:10400C00BD4680BD002C014000100240000C014058
:10401C000008014080B500AF114B124A1A60104BDA
:10402C004FF416525A600E4B00229A600C4B002231
:10403C00DA600B4B00221A61094B0C225A61084BB7
:10404C0000229A61064B0022DA610548FFF791F8CD
:10405C000346002B01D0FFF7E8FD00BF80BD00BF79
:10406C00440100200044004080B588B000AF786067
:10407C0007F1100300221A605A609A60DA607B68BC
:10408C001B681F4A934237D11E4BDB691D4A43F410
:10409C000033D3611B4BDB6903F40033FB60FB681B
:1040AC00184B9B69174A43F004039361154B9B69AA
:1040BC0003F00403BB60BB6804233B6102237B61F8
:1040CC000323FB6107F1100319460F48FDF71AFD96
:1040DC0008233B6100237B610023BB6107F11003C4
:1040EC0019460948FDF70EFD002200212620FDF798
:1040FC00FCFA2620FDF715FB00BF2037BD4680BD1E
:10410C00004400400010024000080140002103E080
:10411C000B4B5B58435004310A480B4B42189A42E4
:10412C00F6D30A4A02E0002342F8043B084B9A42B9
:10413C00F9D3FFF713FE00F01BF8FFF7FFFC7047F5
:10414C00B443000800000020700000207000002024
:10415C0088010020FEE708B5062000F069F8012070
:10416C00FFF7F1FD014B1868704700BF0C000020F1
:10417C0070B500250C4E0D4CA41BA410A54209D102
:10418C0000F072F800250A4E0A4CA41BA410A5429C
:10419C0005D170BD56F8253098470135EEE756F835
:1041AC00253098470135F2E7AC430008AC430008D2
:1041BC00AC430008B043000810B5431E0A449142BA
:1041CC0000D110BD11F8014B03F8014FF7E703467E
:1041DC000244934200D1704703F8011BF9E71F29F1
:1041EC0038B504460D4604D9162303604FF0FF3052
:1041FC0038BD426C12B152F821304BB9204600F058
:10420C0031F82A4601462046BDE8384000F018B87F
:10421C00012B0AD0591C03D1162303600120E7E7B8
:10422C000024284642F8254098470020E0E700008B
:10423C00024B01461868FFF7D2BF00BF0C000020EC
:10424C0038B50023064C0546084611462360FFF797
:10425C006AFD431C02D1236803B12B6038BD00BF3B
:10426C0084010020FFF758BDF8B500BFF8BC08BCAE
:10427C009E467047F8B500BFF8BC08BC9E46704718
:10428C0002030405060708090A0B0C0D0E0F10108B
:10429C000102000000000000000000000102030405
:0C42AC00060708090000000001020304DE
:1042B80013970181B0B008840000000008B10181A3
:1042C800B0B000840000000008B10181B0B00084E3
:0442D80000000000E2
:1042DC0070BEFF7F0100000004BFFF7FB0A9028009
:1042EC00A4BFFF7FB0B0A880F4BFFF7F0100000027
:1042FC0000C0FF7FB0B0AA8038C0FF7FAE71B28023
:10430C00FCC0FF7F01000000F8C0FF7FAB3F38808E
:10431C0050C1FF7F010000005CC1FF7FB0B0AA80DC
:10432C0098C1FF7F0100000040C2FF7FAB0EB2803E
:10433C00ACC2FF7FB0AF088078C5FF7F01000000E2
:10434C007CC5FF7FAC3F0380F8C7FF7F01000000F6
:10435C00D4C9FF7F00840480E8C9FF7F01000000FE
:10436C00E4C9FF7FB0AD0480A0CCFF7FB0A904806E
:10437C00C4CCFF7F44FFFF7FC8CCFF7F48FFFF7F8B
:10438C00D4CCFF7F01000000B4F7FF7F0884978036
:10439C00CEF7FF7F18FFFF7F92F8FF7F0100000030
:0443AC0031010008D3
:0443B0000D010008F3
:1043B40010000000010000000024F40010000020A0
:1043C40000000000000000000000000000000000E9
:1043D40000000000000000000000000000000000D9
:1043E40000000000000000000000000000000000C9
:1043F40000000000000000000000000000000000B9
:1044040000000000000000000000000000000000A8
:104414000000000000000000000000000000000098
:040000050800411995
:00000001FF
