:020000040800F2
:1000000000500020E95C0008B1580008BD58000805
:10001000C3580008C9580008CF5800080000000065
:10002000000000000000000000000000D55800089B
:10003000E158000800000000ED580008F9580008D9
:10004000315D0008315D0008315D0008315D000858
:10005000315D0008315D0008315D0008315D000848
:10006000315D0008315D0008315D00080559000868
:10007000315D0008315D0008315D0008315D000828
:10008000315D0008315D0008315D0008315D000818
:10009000315D0008315D0008315D0008315D000808
:1000A000315D0008315D0008315D0008315D0008F8
:1000B000315D00084D560008315D0008315D0008D3
:1000C000315D0008315D0008315D0008315D0008D8
:1000D000315D0008315D0008315D0008315D0008C8
:1000E000315D0008315D0008315D0008000000004E
:1000F0000000000000000000000000000000000000
:0C01000000000000000000005FF808F1A3
:1001100010B5054C237833B9044B13B10448AFF341
:1001200000800123237010BD70000020000000003B
:10013000645E000808B5034B1BB103490348AFF3E5
:10014000008008BD0000000074000020645E00080C
:1001500081F0004102E000BF83F0004330B54FEA78
:1001600041044FEA430594EA050F08BF90EA020FE5
:100170001FBF54EA000C55EA020C7FEA645C7FEA78
:10018000655C00F0E2804FEA5454D4EB5555B8BF9B
:100190006D420CDD2C4480EA020281EA030382EA0C
:1001A000000083EA010180EA020281EA0303362D9E
:1001B00088BF30BD11F0004F4FEA01314FF4801C71
:1001C0004CEA113102D0404261EB410113F0004F83
:1001D0004FEA03334CEA133302D0524263EB43033A
:1001E00094EA050F00F0A780A4F10104D5F1200ED8
:1001F0000DDB02FA0EFC22FA05F2801841F1000133
:1002000003FA0EF2801843FA05F359410EE0A5F106
:1002100020050EF1200E012A03FA0EFC28BF4CF037
:10022000020C43FA05F3C01851EBE37101F00045ED
:1002300007D54FF0000EDCF1000C7EEB00006EEBFA
:100240000101B1F5801F1BD3B1F5001F0CD3490884
:100250005FEA30004FEA3C0C04F101044FEA4452DB
:1002600012F5800F80F09A80BCF1004F08BF5FEA62
:10027000500C50F1000041EB045141EA050130BD42
:100280005FEA4C0C404141EB010111F4801FA4F1E5
:100290000104E9D191F0000F04BF01460020B1FA3A
:1002A00081F308BF2033A3F10B03B3F120020CDA72
:1002B0000C3208DD02F1140CC2F10C0201FA0CF050
:1002C00021FA02F10CE002F11402D8BFC2F1200CB5
:1002D00001FA02F120FA0CFCDCBF41EA0C0190406B
:1002E000E41AA2BF01EB0451294330BD6FEA0404B4
:1002F0001F3C1CDA0C340EDC04F11404C4F120029F
:1003000020FA04F001FA02F340EA030021FA04F3B0
:1003100045EA030130BDC4F10C04C4F1200220FA07
:1003200002F001FA04F340EA0300294630BD21FA45
:1003300004F0294630BD94F0000F83F4801306BF0B
:1003400081F480110134013D4EE77FEA645C18BFFF
:100350007FEA655C29D094EA050F08BF90EA020F96
:1003600005D054EA000C04BF1946104630BD91EA8E
:10037000030F1EBF0021002030BD5FEA545C05D191
:100380004000494128BF41F0004130BD14F58004D0
:100390003CBF01F5801130BD01F0004545F0FE4144
:1003A00041F470014FF0000030BD7FEA645C1ABF79
:1003B000194610467FEA655C1CBF0B46024650EAB0
:1003C000013406BF52EA033591EA030F41F40021DC
:1003D00030BD00BF90F0000F04BF0021704730B562
:1003E0004FF4806404F132044FF000054FF0000137
:1003F00050E700BF90F0000F04BF0021704730B5F8
:100400004FF4806404F1320410F0004548BF4042CC
:100410004FF000013EE700BF42004FEAE2014FEA21
:1004200031014FEA02701FBF12F07F4393F07F4FFC
:1004300081F06051704732F07F4208BF704793F0FF
:100440007F4F04BF41F40021704730B54FF4607412
:1004500001F0004521F000411CE700BF50EA010215
:1004600008BF704730B54FF000050AE050EA0102BE
:1004700008BF704730B511F0004502D5404261EB2E
:1004800041014FF4806404F132045FEA915C3FF46F
:10049000D8AE4FF003025FEADC0C18BF03325FEA0C
:1004A000DC0C18BF033202EBDC02C2F1200300FABD
:1004B00003FC20FA02F001FA03FE40EA0E0021FAE2
:1004C00002F11444BDE600BF70B54FF0FF0C4CF4D0
:1004D000E06C1CEA11541DBF1CEA135594EA0C0F82
:1004E00095EA0C0F00F0DEF82C4481EA030621EABD
:1004F0004C5123EA4C5350EA013518BF52EA0335F8
:1005000041F4801143F4801338D0A0FB02CE4FF0A9
:100510000005E1FB02E506F00042E0FB03E54FF0D9
:100520000006E1FB03569CF0000F18BF4EF0010ED1
:10053000A4F1FF04B6F5007F64F5407404D25FEACD
:100540004E0E6D4146EB060642EAC62141EA555180
:100550004FEAC52040EA5E504FEACE2EB4F1FD0CC2
:1005600088BFBCF5E06F1ED8BEF1004F08BF5FEA40
:10057000500E50F1000041EB045170BD06F00046F2
:1005800046EA010140EA020081EA0301B4EB5C049F
:10059000C2BFD4EB0C0541EA045170BD41F4801197
:1005A0004FF0000E013C00F3AB8014F1360FDEBFBC
:1005B000002001F0004170BDC4F10004203C35DA98
:1005C0000C341BDC04F11404C4F1200500FA05F31B
:1005D00020FA04F001FA05F240EA020001F00042BC
:1005E00021F0004110EBD37021FA04F642EB060132
:1005F0005EEA430E08BF20EAD37070BDC4F10C045C
:10060000C4F1200500FA04F320FA05F001FA04F21F
:1006100040EA020001F0004110EBD37041F100010B
:100620005EEA430E08BF20EAD37070BDC4F1200516
:1006300000FA05F24EEA020E20FA04F301FA05F27E
:1006400043EA020321FA04F001F0004121FA04F226
:1006500020EA020000EBD3705EEA430E08BF20EAF6
:10066000D37070BD94F0000F0FD101F00046400030
:1006700041EB010111F4801F08BF013CF7D041EAB2
:10068000060195F0000F18BF704703F000465200B6
:1006900043EB030313F4801F08BF013DF7D043EA87
:1006A0000603704794EA0C0F0CEA135518BF95EA3D
:1006B0000C0F0CD050EA410618BF52EA4306D1D1C4
:1006C00081EA030101F000414FF0000070BD50EAE3
:1006D000410606BF1046194652EA430619D094EA6D
:1006E0000C0F02D150EA013613D195EA0C0F05D157
:1006F00052EA03361CBF104619460AD181EA0301AB
:1007000001F0004141F0FE4141F470014FF0000062
:1007100070BD41F0FE4141F4780170BD70B54FF0FD
:10072000FF0C4CF4E06C1CEA11541DBF1CEA13557D
:1007300094EA0C0F95EA0C0F00F0A7F8A4EB05045F
:1007400081EA030E52EA03354FEA013100F0888056
:100750004FEA03334FF0805545EA131343EA12631F
:100760004FEA022245EA111545EA10654FEA0026D4
:100770000EF000419D4208BF964244F1FD0404F58D
:10078000407402D25B084FEA3202B61A65EB0305E9
:100790005B084FEA32024FF480104FF4002CB6EBA6
:1007A000020E75EB030E22BFB61A754640EA0C0026
:1007B0005B084FEA3202B6EB020E75EB030E22BF66
:1007C000B61A754640EA5C005B084FEA3202B6EBA7
:1007D000020E75EB030E22BFB61A754640EA9C0066
:1007E0005B084FEA3202B6EB020E75EB030E22BF36
:1007F000B61A754640EADC0055EA060E18D04FEAF4
:10080000051545EA16754FEA06164FEAC30343EA93
:1008100052734FEAC2025FEA1C1CC0D111F4801F60
:100820000BD141EA00014FF000004FF0004CB6E759
:1008300011F4801F04BF01430020B4F1FD0C88BFF8
:10084000BCF5E06F3FF6AFAEB5EB030C04BFB6EB03
:10085000020C5FEA500C50F1000041EB045170BDF6
:100860000EF0004E4EEA113114EB5C04C2BFD4EB23
:100870000C0541EA045170BD41F480114FF0000EA7
:10088000013C90E645EA060E8DE60CEA135594EA23
:100890000C0F08BF95EA0C0F3FF43BAF94EA0C0F26
:1008A0000AD150EA01347FF434AF95EA0C0F7FF49B
:1008B00025AF104619462CE795EA0C0F06D152EAEF
:1008C00003353FF4FDAE1046194622E750EA4106D3
:1008D00018BF52EA43067FF4C5AE50EA41047FF4E4
:1008E0000DAF52EA43057FF4EBAE12E74A0011D296
:1008F00012F5001211D20DD56FF47873B3EB62527A
:100900000ED44FEAC12343F0004343EA505323FA85
:1009100002F070474FF00000704750EA013002D1FA
:100920004FF0FF3070474FF00000704780F00040FC
:1009300002E000BF81F0004142001FBF5FEA4103B7
:1009400092EA030F7FEA226C7FEA236C6AD04FEAB7
:100950001262D2EB1363C1BFD218414048404140FC
:10096000B8BF5B42192B88BF704710F0004F40F4AE
:10097000000020F07F4018BF404211F0004F41F4CA
:10098000000121F07F4118BF494292EA030F3FD096
:10099000A2F1010241FA03FC10EB0C00C3F12003A9
:1009A00001FA03F100F0004302D5494260EB400038
:1009B000B0F5000F13D3B0F1807F06D340084FEAA3
:1009C000310102F10102FE2A51D2B1F1004F40EB98
:1009D000C25008BF20F0010040EA03007047490000
:1009E00040EB000010F4000FA2F10102EDD1B0FACB
:1009F00080FCACF1080CB2EB0C0200FA0CF0AABFC0
:100A000000EBC25052421843BCBFD040184370475D
:100A100092F0000F81F4000106BF80F40000013263
:100A2000013BB5E74FEA41037FEA226C18BF7FEA3A
:100A3000236C21D092EA030F04D092F0000F08BF7C
:100A40000846704790EA010F1CBF0020704712F063
:100A50007F4F04D1400028BF40F00040704712F1A2
:100A600000723CBF00F50000704700F0004343F007
:100A7000FE4040F4000070477FEA226216BF08463D
:100A80007FEA23630146420206BF5FEA412390EA00
:100A9000010F40F4800070474FF0000304E000BFF6
:100AA00010F0004348BF40425FEA000C08BF7047A7
:100AB00043F0964301464FF000001CE050EA01026B
:100AC00008BF70474FF000030AE000BF50EA010280
:100AD00008BF704711F0004302D5404261EB41016D
:100AE0005FEA010C02BF84460146002043F0B64392
:100AF00008BFA3F18053A3F50003BCFA8CF2083AB7
:100B0000A3EBC25310DB01FA02FC634400FA02FCBF
:100B1000C2F12002BCF1004F20FA02F243EB0200C6
:100B200008BF20F00100704702F1200201FA02FC28
:100B3000C2F1200250EA4C0021FA02F243EB02001B
:100B400008BF20EADC7070474FF0FF0C1CEAD0525F
:100B50001EBF1CEAD15392EA0C0F93EA0C0F6FD020
:100B60001A4480EA010C400218BF5FEA41211ED0FE
:100B70004FF0006343EA501043EA5111A0FB0131EA
:100B80000CF00040B1F5000F3EBF490041EAD371BF
:100B90005B0040EA010062F17F02FD2A1DD8B3F13B
:100BA000004F40EBC25008BF20F00100704790F0AA
:100BB000000F0CF0004C08BF49024CEA502040EAFC
:100BC00051207F3AC2BFD2F1FF0340EAC2507047C2
:100BD00040F400004FF00003013A5DDC12F1190F00
:100BE000DCBF00F000407047C2F10002410021FA72
:100BF00002F1C2F1200200FA02FC5FEA310040F18A
:100C0000000053EA4C0308BF20EADC70704792F002
:100C1000000F00F0004C02BF400010F4000F013A3A
:100C2000F9D040EA0C0093F0000F01F0004C02BF35
:100C3000490011F4000F013BF9D041EA0C018FE7A4
:100C40000CEAD15392EA0C0F18BF93EA0C0F0AD0AA
:100C500030F0004C18BF31F0004CD8D180EA0100D0
:100C600000F00040704790F0000F17BF90F0004F69
:100C7000084691F0000F91F0004F14D092EA0C0F4B
:100C800001D142020FD193EA0C0F03D14B0218BFDE
:100C9000084608D180EA010000F0004040F0FE4024
:100CA00040F40000704740F0FE4040F440007047C0
:100CB0004FF0FF0C1CEAD0521EBF1CEAD15392EA3F
:100CC0000C0F93EA0C0F69D0A2EB030280EA010C2F
:100CD00049024FEA402037D04FF0805343EA1111C8
:100CE00043EA10130CF000408B4238BF5B0042F126
:100CF0007D024FF4000C8B4224BF5B1A40EA0C00CB
:100D0000B3EB510F24BFA3EB510340EA5C00B3EBFC
:100D1000910F24BFA3EB910340EA9C00B3EBD10FEA
:100D200024BFA3EBD10340EADC001B0118BF5FEA3C
:100D30001C1CE0D1FD2A3FF650AF8B4240EBC25065
:100D400008BF20F0010070470CF0004C4CEA502026
:100D50007F32C2BFD2F1FF0340EAC250704740F475
:100D600000004FF00003013A37E792F0000F00F067
:100D7000004C02BF400010F4000F013AF9D040EAE5
:100D80000C0093F0000F01F0004C02BF490011F479
:100D9000000F013BF9D041EA0C0195E70CEAD15371
:100DA00092EA0C0F08D142027FF47DAF93EA0C0F58
:100DB0007FF470AF084676E793EA0C0F04D14B023C
:100DC0003FF44CAF08466EE730F0004C18BF31F0EE
:100DD000004CCAD130F000427FF45CAF31F00043E8
:100DE0007FF43CAF5FE700BF4FEA4002B2F1FE4F35
:100DF0000FD34FF09E03B3EB12620DD94FEA0023DD
:100E000043F0004310F0004F23FA02F018BF4042B5
:100E100070474FF00000704712F1610F01D142029C
:100E200005D110F0004008BF6FF0004070474FF050
:100E30000000704703685A004CBF43F0004323F0A2
:100E400000431844704700BF61B32DE9F84F01F12A
:100E5000FF3A90460646D146002707EB090404EB0B
:100E6000D4746410E50071190846FFF7E3FFA2454A
:100E7000834605F10800304409D0FFF7DBFFC34586
:100E800000F1FF3005D8404509D2671CE5E7C345AE
:100E900005D9A74202D004F1FF39DEE70021084658
:100EA000BDE8F88F08467047012807D0022807D010
:100EB000044B00280CBF18460020704702487047BA
:100EC00002487047A5150008A9150008AD150008CF
:100ED00030B5264B83B004468D1E4BB301A928467E
:100EE000AFF30080F0B101992A46FFF7ADFF01464C
:100EF000C0B1FFF79FFF4B68A064012B2FD0002BE0
:100F000001F1040027DBFFF795FF0023C4E9130379
:100F10000368002B13DBFFF78DFF002320611846C9
:100F200003B030BD092300221846226103B030BD52
:100F30000F4B10491846C91AC9100191D4E7C3F3E1
:100F40000360FFF7B1FF002814BF002309232061CD
:100F5000184603B030BD0123C4E91303D8E70523C5
:100F600000221846226103B030BD00BF000000001F
:100F70002C5F000844600008036810B5DA070446D7
:100F800006D49B0700F1480009D500F067FC2368F0
:100F9000590709D51A070ED5DB0613D510BD00F089
:100FA00055FC23685907F5D404F1D00000F05EFC2D
:100FB00023681A07F0D404F5A87000F05FFC2368DA
:100FC000DB06EBD404F5E870BDE8104000F09ABCF5
:100FD000036803B103441846704700BF09207047F7
:100FE000704700BF70B504460D4608E02A6C2369BF
:100FF000626121462A4601209847082808D1296CB9
:101000002046FFF765FF06460028EFD004F0A0FE5B
:101010000728FBD13046296CFFF7E2FF281D00F0BE
:1010200009FC00BF2DE9F04705464FF0000CADF577
:10103000727D03AC0E1D17460FCE0FC40FCE0FC42A
:101040000FCE0FC496E80F00D5F80C80D5F8189095
:1010500084E80F0002ACC4F800C021E0236C4FF418
:10106000F0726B6121467AA804F0A4FE2B697AAA7B
:10107000294630469847889BCDE9004982466364FB
:1010800031462B462A460120C0470746F8B94FF49F
:10109000F0727AA9204604F08DFEBAF1080F1CD137
:1010A000216C2846FFF714FF002F08BF09260746CA
:1010B00018BF0A260028D1D0A36B46F01001CDE955
:1010C00000492A46636401202B46C04700B1092726
:1010D00038460DF5727DBDE8F087BAF1070FF6D1FD
:1010E0003846216CFFF77CFF03A800F0A3FB00BF8C
:1010F000406C70474FF0FF3CF0B5CB6BF9B00B6420
:101100000D1D01AC0F4606460FCD0FC40FCD0FC409
:101110000FCD0FC495E80F0084E80F00CDF800C094
:1011200006E033696A46314698470828044608D1E4
:1011300010993046FFF7CCFE0028F2D0092079B094
:10114000F0BD6846FFF718FF062CF7D13946304648
:10115000FFF748FF30B4DD6BC160826119461D6442
:10116000002230BC5EE700BF70B54369C6680B64FF
:10117000BEB903690A4604460D4601460220984757
:10118000072807D0082803D129462046FFF72AFF61
:1011900004F0DEFD3046296CFFF722FF281D00F029
:1011A00049FB0122FFF73EFF04F0D2FDC2682AB1DD
:1011B00010B4CC6B00220C6410BC33E79AE700BF7C
:1011C000704700BF836813B101460120184770477C
:1011D000042907D8DFE801F00308060808000BB966
:1011E0000F2A03D9022070470120704700EB8200CC
:1011F00042681846009B1A60704700BF002310B574
:1012000084B003AC0A4600941946FFF7E1FF039847
:1012100004B010BD042907D8DFE801F00308060870
:1012200008000BB90F2A03D902207047012070472C
:10123000009900EB8202096818465160704700BFB0
:10124000002310B584B004AC44F8042D00940A4681
:101250001946FFF7DFFF04B010BD00BF4FF0FF3CA1
:10126000F0B5D36BADF50F7D1364151D17AC0746B4
:101270000E460FCD0FC40FCD0FC40FCD0FC495E890
:101280000F0084E80F00CDF858C012E00C2116A81A
:101290006A46FFF7D5FF314616A8B84778B9049BD0
:1012A00016AA6946082098470528044608D0092848
:1012B00005D026996846FFF70BFE0028E6D00924E2
:1012C00016A8FFF759FE20460DF50F7DF0BD00BFB3
:1012D0002DE9F04F0D46C96C89B00C1D164600F083
:1012E000030B0A681F460694002B68D00221130CDA
:1012F0008DF81D301204DBB204EB830405928DF8E7
:101300001C102B6DBBF1020F08BFAC6B13F0010377
:1013100046D1019300F008030093D4F80090B9F18E
:10132000000F00F0F380022F45D0B4F80090B4F81D
:1013300002800434AB6C28F0010A0F2130469A4435
:10134000FFF75CFF824534D829F001035344834200
:1013500094BF002001204FEA480808F0020809F075
:10136000010948EA0908B8F1010F3AD031D3B8F1C0
:10137000020F1AD1236823F0004ABBF1000F66D197
:1013800030B1009A002A6CD0BAF1000F00F09080C2
:10139000002B00DA04340AF1010304EB8304BCE7F8
:1013A000304605A900F048FB78B1092009B0BDE836
:1013B000F08F0020CFE7D4F804800834BAE7032385
:1013C00012020592ADF81C309BE7082009B0BDE879
:1013D000F08FBBF1000F02D0002840F0B48004343D
:1013E0009BE7BBF1000F18D1A8B1D4E90023991CE9
:1013F0004FEAD272D9D005F158010133049100F0BF
:10140000B580201DFFF7E4FD04AB01462846AFF38D
:101410000080002867D108347FE70D213046D5F8D9
:101420002080FFF7EBFE8045F5D1AB6A9C42F2D1FC
:101430002046FFF7FFFC0F2102463046FFF700FF72
:1014400030462A460021FFF7FBFE0720AEE70D21BC
:101450003046D5F82080FFF7D1FE804532D0236892
:1014600096E7BAF1000F23D005F1580304F1040800
:10147000CDF808B0DDF80090A34603971C4602E0C3
:101480005745B94640D040460494FFF7A1FD04AB50
:10149000014600222846AFF3008009F1010708F158
:1014A00004080028ECD0D1455C46DDE902B7D6D16E
:1014B00030460D21FFF7A2FE049B2862C5E90934DE
:1014C000062073E7AB6A9C42C9D104224FF00008A2
:1014D000A318C5E90AA8C5E90C23236843454DDBD9
:1014E0000123019357E780460D213046FFF786FE22
:1014F000B8F1020F28623ED12B46049A43F82C2FF4
:101500006B62AC62062051E75C46D1E705A9304624
:1015100000F092FA00287FF448AF019B002B3FF4C3
:1015200054AF0F213046FFF769FE0E2102463046C8
:10153000FFF786FE30461A4A0F21FFF781FE07208B
:1015400009B0BDE8F08F2046FFF774FC043407466D
:10155000AC632846AFF3008000283FF426AF304646
:101560003A460F21FFF76CFE07201FE730460D219A
:10157000FFF744FE2862049B6B62C2E70AF1010098
:1015800004EB8000FFF756FC0F2102463046FFF7C0
:1015900057FE30462A464146FFF752FE072005E730
:1015A00000000000002393E6012391E602238FE66A
:1015B0002DE9F0410546C4B0042906D8DFE801F062
:1015C0004D2B05030900032B5FD0022044B0BDE87A
:1015D000F081002BF9D1102AF7D82B68DC0600F136
:1015E000F68022AC20460192012600F095F90023F6
:1015F000A86B019A06FA03F1114203D00168043086
:1016000044F823100133042BF4D1A863204600F0E2
:1016100079F90020DAE7012B4FEA124697B254D04D
:10162000052BD2D106EB0708B8F1200FCDD80F2E2D
:1016300040F29B80B846002F40F0DD80AA6B0F2E51
:10164000AA6340F2C080B8F1000F02D002A800F0F7
:101650000DF9002044B0BDE8F081002BB5D1012781
:10166000AC6B96B2281D07FA03F1314203F1010376
:1016700002D0216804340160102B00F10400F2D183
:1016800012F40050E5D1AC63A0E7160C97B2F31941
:10169000102B9AD82B681A075FD422AC204600F092
:1016A0000FF904EBC601A86B4FB1034600EBC7006E
:1016B0001A680433834241F8042BF9D11846A86311
:1016C000204600F0DBF8002080E7F219102A3FF6F0
:1016D0007CAF0F2E3FF679AF2A68D10708D5284690
:1016E00022F0030240F8482B019300F0B3F8019B6D
:1016F00022AC2046019300F0ADF8A96B019B002FAE
:1017000000F095804FF000087A0004EBC604043C1A
:1017100001EB820251F8040B914244F8040FF9D115
:10172000B8F1000F0FD002AC102E314638BF102197
:1017300004EBC101843902EBC80452F8040B944253
:1017400041F8040FF9D1012B7FF479AF22AC0432B8
:10175000AA63204600F07AF87BE723F008032B60A9
:1017600005F5A87000F0ACF897E7B8F1100F2A68FB
:1017700043D9D007A8F110080BD5284622F0010262
:1017800042F0020240F8482B019300F06BF82A68FF
:10179000019B510725D40F2E04D822A8019300F0F5
:1017A00061F8019B02AC2046019300F063F8C6F19A
:1017B00010000028AA6B019BB6DD22AC114604EB99
:1017C000C6044200A3E722A800F048F83BE723F054
:1017D00010032B6005F5E870019200F09DF8019A66
:1017E000FFE6284622F0040240F8D02B019300F0D7
:1017F00041F8019BCFE72A68CBE7D0070AD52846F6
:1018000022F0010242F0020240F8482B019300F05E
:1018100029F8019B22AC20460193B84600F022F83B
:10182000A96B019B002F7FF46DAF0A4607E70A46BC
:101830008DE700BF00F1340191E838009C46A646D0
:101840004CF8045D90E8FF0FE54600BD90EC210BDD
:10185000704700BF80EC210B704700BF90EC200B5D
:10186000704700BF80EC200B704700BFD0EC200B0E
:10187000704700BFC0EC200B704700BFF0EC0201C6
:10188000F0EC0211F0EC0221F0EC0231F0EC02413C
:10189000F0EC0251F0EC0261F0EC0271F0EC02812C
:1018A000F0EC0291F0EC02A1F0EC02B1F0EC02C11C
:1018B000F0EC02D1F0EC02E1F0EC02F1704700BF75
:1018C000E0EC0201E0EC0211E0EC0221E0EC02317C
:1018D000E0EC0241E0EC0251E0EC0261E0EC02716C
:1018E000E0EC0281E0EC0291E0EC02A1E0EC02B15C
:1018F000E0EC02C1E0EC02D1E0EC02E1E0EC02F14C
:10190000704700BFB0FC0181B0FC0191B0FC01A1A7
:10191000B0FC01B1704700BFA0FC0181A0FC0191A7
:10192000A0FC01A1A0FC01B1704700BFEC4600B5CE
:101930002DE900502DE9FF1F4FF000032DE90C00A9
:1019400001A9FFF7D7FBDDF840E012B0704700BFF8
:10195000EC4600B52DE900502DE9FF1F4FF00003C4
:101960002DE90C0001A9FFF7FFFBDDF840E012B004
:10197000704700BFEC4600B52DE900502DE9FF1F70
:101980004FF000032DE90C0001A9FFF70FFCDDF873
:1019900040E012B0704700BFEC4600B52DE90050A2
:1019A0002DE9FF1F4FF000032DE90C0001ABFFF7FD
:1019B000D1FBDDF840E012B0704700BFEC4600B547
:1019C0002DE900502DE9FF1F4FF000032DE90C0019
:1019D00001AAFFF743FCDDF840E012B0704700BFFA
:1019E000027A7AB9437AA3B103214268013B10B469
:1019F00043721368141D01721A024460026010BC25
:101A0000180E70470368013A02721A020260180E3B
:101A10007047B020704700BF002300B585B003AA0F
:101A2000009219460C22FFF7D3FB039805B05DF82E
:101A300004FB00BFF0E700BF2DE9F04305460E466A
:101A40004FF0000885B03046FFF7CAFFB0280446C3
:101A500000F0B080070620D500F0F003802B65D0A1
:101A6000902B36D0A02B78D0B02B47D0C02B00F0D5
:101A7000898000F0F803D02B0BD100F0070201326F
:101A800042F40022052301212846FFF791FD00289A
:101A9000D9D0092005B0BDE8F08300230DF10C0971
:101AA00019468700CDF800900D222846FFF790FBDD
:101AB000FFB2039B043760064CBFDF1BFF180023F7
:101AC000CDF8009019460D2228460397FFF7A2FB98
:101AD000B9E700F00D030D2BDBD0002303AF00F0BE
:101AE0000F02194600972846FFF772FB0023009764
:101AF00019460D222846FFF78DFBA4E7B1285ED0DA
:101B0000B22800F0CB80B3287DD000F0FC03B42BCA
:101B1000BFD0012300F007021A4442F40022194604
:101B20002846FFF745FD00288DD0B2E73046FFF785
:101B300057FF24020443B4F5004FAAD00023240128
:101B4000A2B219462846FFF733FD0028A1D114F4AC
:101B5000004F18BF4FF0010875E7C3434FF47F6291
:101B600003F007031A410023010702F47F6248BF14
:101B700042F4804219462846FFF71AFD00283FF438
:101B800062AF86E7C62851D0C7285AD000F0F803C4
:101B9000C02B69D0C82875D0C9287FF47AAF3046E9
:101BA000FFF71EFF020300F00F0002F47022013065
:101BB000024367E7B8F1000F14D000206AE730460F
:101BC000FFF70EFF00283FF464AF10F0F0037FF43E
:101BD00060AF024619462846FFF7EAFC00283FF4AA
:101BE00032AF56E703AC43460E22414600942846E6
:101BF000FFF7EEFA0094284643460F224146FFF7CE
:101C000009FB404646E73046FFF7EAFE01230103A1
:101C100000F00F0001F47021C2180A43284619464B
:101C2000FFF7C6FC00283FF40EAF32E73046FFF75F
:101C3000D7FE010300F00F00032301F47021421CC2
:101C4000EBE73046FFF7CCFE024600283FF421AF19
:101C500010F0F0037FF41DAF04212846FFF7A8FC25
:101C600000283FF4F0AE14E7032300F00F02013226
:101C700042F4202219462846FFF79AFC00283FF438
:101C8000E2AE06E73046FFF7ABFE00F0F00200F0F0
:101C90000F031032013343EA0232F3E600230DF161
:101CA0000C090D221946CDF800902846FFF790FA4E
:101CB0003046FFF795FE02064FF002070CD5039B56
:101CC00000F07F00B840034430460393FFF788FEDE
:101CD000030607F10707F2D40023039A00F07F04FC
:101CE000BC4002F501721444CDF8009019460D2253
:101CF00028460394FFF78EFAA5E600BF30B503240B
:101D00000D46C36C85B05A688DF80C40DC79120220
:101D1000083301A9284601928DF80D400293FFF780
:101D20008BFE05B030BD00BF08B5FFF783FE806CA9
:101D300008BD00BF08B5FFF77DFEC06CC37900EB9E
:101D40008300083008BD00BF08B504F001F800BFEB
:101D500008B5FFF7F9FF00BF80B500AF084B1B685F
:101D6000074A43F010031360032000F09DFD00209C
:101D700000F008F803F06AFD0023184680BD00BF9C
:101D80000020024080B582B000AF7860124B1A6824
:101D9000124B1B7819464FF47A73B3FBF1F3B2FB85
:101DA000F3F3184600F0B5FD0346002B01D00123E4
:101DB0000EE07B680F2B0AD8002279684FF0FF30C5
:101DC00000F07DFD064A7B681360002300E00123DC
:101DD00018460837BD4680BD0800002004000020DA
:101DE0000000002080B400AF054B1B781A46054B5D
:101DF0001B681344034A136000BFBD4680BC704794
:101E0000040000208C00002080B400AF024B1B684F
:101E10001846BD4680BC70478C00002080B584B059
:101E200000AF7860FFF7F0FFB8607B68FB60FB688D
:101E3000B3F1FF3F05D0094B1B781A46FB681344EA
:101E4000FB6000BFFFF7E0FF0246BB68D31AFA68E9
:101E50009A42F7D800BF1037BD4680BD040000206D
:101E600080B586B000AF78600023FB7500233B612E
:101E70000023BB600023FB607B68002B01D10123A2
:101E8000BEE07B689B68002B7B689B6A002B09D1B6
:101E90007B680022DA627B68002283F8242078685D
:101EA00003F09AFA786800F0F7FA0346FB757B684E
:101EB0009B6A03F01003002B40F09980FB7D002B00
:101EC00040F095807B689B6A23F4885323F00203DB
:101ED00043F002027B689A627B685A687B68DB6920
:101EE0001A437B681B7B5B001343BA681343BB60D8
:101EF0007B689B68B3F5807F03D07B689B68012B70
:101F000002D14FF4807300E000233A6913433B6130
:101F10007B681B7D012B19D17B681B7B002B09D1B2
:101F20007B689B69013B5A033B69134343F400639D
:101F30003B610BE07B689B6A43F020027B689A62FE
:101F40007B68DB6A43F001027B68DA627B681B68AE
:101F50005B6823F469417B681B683A690A435A60ED
:101F60007B681B689A68284B13407A681268B968C6
:101F70000B4393607B689B68B3F5807F03D07B68DD
:101F80009B68012B04D17B681B69013B1B05FB602F
:101F90007B681B68DB6A23F470017B681B68FA6846
:101FA0000A43DA627B681B689A68184B1340BA6868
:101FB0009A420BD17B680022DA627B689B6A23F02D
:101FC000030343F001027B689A6218E07B689B6A16
:101FD00023F0120343F010027B689A627B68DB6A8D
:101FE00043F001027B68DA620123FB7507E07B683E
:101FF0009B6A43F010027B689A620123FB75FB7DAC
:1020000018461837BD4680BDFDF7E1FFFE0E1FFFE5
:1020100080B586B000AFF860B9607A600023FB75C8
:10202000FB681B68644A934204D0FB681B68634AE0
:10203000934206D1604B5B6803F47023002B40F0A1
:10204000B380FB6893F82430012B01D10223AEE06A
:10205000FB68012283F82420F86800F0CBF90346DE
:10206000FB75FB7D002B40F09A80FB689B6A23F494
:10207000706323F0010343F48072FB689A62FB688B
:102080001B684E4A934205D14B4B5B6803F47023A7
:10209000002B15D1FB689B6A23F48012FB689A62BF
:1020A000FB681B685B6803F48063002B26D0FB6829
:1020B0009B6A23F4405343F48052FB689A621DE00C
:1020C000FB689B6A43F48012FB689A62FB681B689A
:1020D000394A934204D0FB681B68384A93420DD1B9
:1020E000354B5B6803F48063002B07D0FB689B6A69
:1020F00023F4405343F48052FB689A62FB689B6A66
:1021000003F48053002B06D0FB68DB6A23F0060241
:10211000FB68DA6202E0FB680022DA62FB680022F8
:1021200083F82420FB681B6A254A9A62FB681B6AB5
:10213000244ADA62FB681B6A234A1A63FB681B683D
:102140006FF002021A60FB681B689A68FB681B68E4
:1021500042F480729A60FB68186AFB681B684C3313
:102160001946BA687B6800F03BFCFB681B689B68FB
:1021700003F46023B3F5602F08D1FB681B689A68ED
:10218000FB681B6842F4A0029A600FE0FB681B68C2
:102190009A68FB681B6842F480129A6006E0FB684C
:1021A000002283F8242001E00123FB75FB7D184603
:1021B0001837BD4680BD00BF002401400028014003
:1021C0000D25000889250008A525000880B483B0E6
:1021D00000AF786000BF0C37BD4680BC704780B44C
:1021E00083B000AF786000BF0C37BD4680BC70473D
:1021F00080B483B000AF786000BF0C37BD4680BCB0
:102200007047000080B485B000AF7860396000236B
:10221000FB730023BB607B6893F82430012B01D152
:102220000223DCE07B68012283F824203B685B68A2
:10223000062B1CD87B681B68596B3B685A68134691
:102240009B001344053B1F2202FA03F3DB431940B2
:102250003B6818683B685A6813469B001344053B6B
:1022600000FA03F27B681B680A435A633CE03B6850
:102270005B680C2B1CD87B681B68196B3B685A6821
:1022800013469B001344233B1F2202FA03F3DB4354
:1022900019403B6818683B685A6813469B00134412
:1022A000233B00FA03F27B681B680A431A631BE0B6
:1022B0007B681B68D96A3B685A6813469B001344C5
:1022C000413B1F2202FA03F3DB4319403B681868C5
:1022D0003B685A6813469B001344413B00FA03F2E3
:1022E0007B681B680A43DA623B681B68092B1CD9B0
:1022F0007B681B68D9683B681A6813465B00134407
:102300001E3B072202FA03F3DB4319403B6898683F
:102310003B681A6813465B0013441E3B00FA03F245
:102320007B681B680A43DA6019E07B681B681969DF
:102330003B681A6813465B001344072202FA03F352
:10234000DB4319403B6898683B681A6813465B009A
:10235000134400FA03F27B681B680A431A613B6866
:102360001B68102B03D03B681B68112B32D17B6894
:102370001B681D4A934225D17B681B689B6803F448
:102380000003002B26D17B681B689A687B681B685A
:1023900042F400029A603B681B68102B1AD1134B61
:1023A0001B68134AA2FB03239A0C13469B00134499
:1023B0005B00BB6002E0BB68013BBB60BB68002BFD
:1023C000F9D107E07B689B6A43F020027B689A6240
:1023D0000123FB737B68002283F82420FB7B1846D3
:1023E0001437BD4680BC704700240140080000201F
:1023F00083DE1B4380B584B000AF78600023FB60B0
:102400000023BB607B681B689B6803F00103012B02
:1024100039D07B681B689A687B681B6842F00102B0
:102420009A601B4B1B681B4AA2FB03239B0CBB60DF
:1024300002E0BB68013BBB60BB68002BF9D1FFF732
:10244000E3FCF86018E0FFF7DFFC0246FB68D31AF4
:10245000022B11D97B689B6A43F010027B689A6259
:102460007B68DB6A43F001027B68DA627B680022EA
:1024700083F82420012307E07B681B689B6803F036
:102480000103012BDFD1002318461037BD4680BD64
:102490000800002083DE1B4380B584B000AF786065
:1024A0000023FB607B681B689B6803F00103012B22
:1024B00027D17B681B689A687B681B6822F0010241
:1024C0009A60FFF7A1FCF86014E0FFF79DFC02465C
:1024D000FB68D31A022B0DD97B689B6A43F010026C
:1024E0007B689A627B68DB6A43F001027B68DA6290
:1024F000012307E07B681B689B6803F00103012B45
:10250000E3D0002318461037BD4680BD80B584B0A7
:1025100000AF78607B685B6AFB60FB689B6A03F0D6
:102520005003002B27D1FB689B6A43F40072FB68C1
:102530009A62FB681B689B6803F46023B3F5602F05
:1025400015D1FB681B7B002B11D1FB689B6A23F420
:102550008072FB689A62FB689B6A03F48053002BCD
:1025600005D1FB689B6A43F00102FB689A62F86838
:10257000FFF72CFE04E0FB681B6A1B6B786898472A
:1025800000BF1037BD4680BD80B584B000AF786015
:102590007B685B6AFB60F868FFF721FE00BF1037BD
:1025A000BD4680BD80B584B000AF78607B685B6A53
:1025B000FB60FB689B6A43F04002FB689A62FB6821
:1025C000DB6A43F00402FB68DA62F868FFF710FE8A
:1025D00000BF1037BD4680BD90B587B000AF7860B2
:1025E0000023FB750023FB607B6893F82430012BEC
:1025F00001D1022386E07B68012283F824207868D9
:10260000FFF74AFF0346FB75FB7D002B75D17B6806
:102610009B6A23F4885323F0020343F002027B6891
:102620009A623A4B1C68022001F0CEF90346B4FBD3
:10263000F3F35B00FB6002E0FB68013BFB60FB68BF
:10264000002BF9D17868FFF7D5FE7B681B689A6884
:102650007B681B6842F008029A60FFF7D5FB38617F
:1026600014E0FFF7D1FB02463B69D31A0A2B0DD9C0
:102670007B689B6A23F0120343F010027B689A6226
:102680007B68002283F8242001233BE07B681B68E1
:102690009B6803F00803002BE3D17B681B689A68F2
:1026A0007B681B6842F004029A60FFF7ADFB38615B
:1026B00014E0FFF7A9FB02463B69D31A0A2B0DD998
:1026C0007B689B6A23F0120343F010027B689A62D6
:1026D0007B68002283F82420012313E07B681B68B9
:1026E0009B6803F00403002BE3D17B689B6A23F013
:1026F000030343F001027B689A627B68002283F83F
:102700002420FB7D18461C37BD4690BD08000020E4
:1027100080B485B000AF78607B6803F00703FB608E
:102720000C4BDB68BB60BA684FF6FF031340BB601D
:10273000FB681A02BB68134343F0BF6343F40033E2
:10274000BB60044ABB68D36000BF1437BD4680BC81
:10275000704700BF00ED00E080B400AF044BDB68C1
:102760001B0A03F007031846BD4680BC704700BF34
:1027700000ED00E080B483B000AF0346FB7197F931
:102780000730002B0BDBFB7903F01F02064997F99A
:1027900007305B09012000FA02F241F8232000BF54
:1027A0000C37BD4680BC704700E100E080B483B0C8
:1027B00000AF03463960FB7197F90730002B0ADB45
:1027C0003B68DAB20C4997F907301201D2B20B44D8
:1027D00083F800230AE03B68DAB20849FB7903F08A
:1027E0000F03043B1201D2B20B441A7600BF0C3720
:1027F000BD4680BC704700BF00E100E000ED00E096
:1028000080B489B000AFF860B9607A60FB6803F00B
:102810000703FB61FB69C3F10703042B28BF0423F3
:10282000BB61FB690433062B02D9FB69033B00E063
:1028300000237B614FF0FF32BB6902FA03F3DA43F6
:10284000BB681A407B699A404FF0FF317B6901FAFF
:1028500003F3D9437B680B40134318462437BD4626
:1028600080BC704780B582B000AF78607B68013B68
:10287000B3F1807F01D301230FE00A4A7B68013B5B
:1028800053600F214FF0FF30FFF790FF054B002200
:102890009A60044B07221A60002318460837BD4689
:1028A00080BD00BF10E000E080B582B000AF78606E
:1028B0007868FFF72DFF00BF0837BD4680BD80B5A3
:1028C00086B000AF0346B9607A60FB7300237B617A
:1028D000FFF742FF78617A68B9687869FFF790FF7F
:1028E000024697F90F3011461846FFF75FFF00BF09
:1028F0001837BD4680BD80B582B000AF0346FB717E
:1029000097F907301846FFF735FF00BF0837BD4677
:1029100080BD80B582B000AF78607868FFF7A2FF15
:10292000034618460837BD4680BD000080B485B018
:1029300000AF78600023FB607B68002B01D101238E
:1029400043E07B681B681A46224B1344224AA2FBD1
:1029500003231B099A007B681A647B681F4ADA63A9
:102960007B68022283F821207B681B681B68FB6060
:10297000FB6823F47F5323F03003FB607B685A68C5
:102980007B689B681A437B68DB681A437B681B691A
:102990001A437B685B691A437B689B691A437B68AF
:1029A000DB691343FA681343FB607B681B68FA68B2
:1029B0001A607B6800229A637B68012283F82120D9
:1029C0007B68002283F82020002318461437BD4678
:1029D00080BC7047F8FFFDBFCDCCCCCC00000240DE
:1029E00080B586B000AFF860B9607A603B600023C4
:1029F000FB75FB6893F82030012B01D102234AE0DC
:102A0000FB68012283F82020FB6893F82130012B1A
:102A10003AD1FB68022283F82120FB6800229A63E6
:102A2000FB681B681A68FB681B6822F001021A60C9
:102A30003B687A68B968F86800F038F9FB68DB6AC7
:102A4000002B08D0FB681B681A68FB681B6842F003
:102A50000E021A600FE0FB681B681A68FB681B68AF
:102A600022F004021A60FB681B681A68FB681B6886
:102A700042F00A021A60FB681B681A68FB681B6850
:102A800042F001021A6005E0FB68002283F8202072
:102A90000223FB75FB7D18461837BD4680BD00003C
:102AA00080B584B000AF78607B68DB6B1B68FB602F
:102AB0007B681B681B68BB607B681B6C04229A40A8
:102AC000FB681340002B4FD0BB6803F00403002BBE
:102AD0004AD07B681B681B6803F02003002B07D1DA
:102AE0007B681B681A687B681B6822F004021A6006
:102AF0007B681B68664A934229D07B681B68654ADD
:102B0000934222D07B681B68634A93421AD07B6849
:102B10001B68624A934212D07B681B68604A9342EA
:102B20000AD07B681B685F4A934202D14FF480034E
:102B30000EE04FF080630BE04FF4802308E04FF489
:102B4000804305E04FF4806302E0402300E004236B
:102B5000554A53607B68DB6A002B00F094807B68E9
:102B6000DB6A786898478EE07B681B6C02229A408B
:102B7000FB681340002B56D0BB6803F00203002B08
:102B800051D07B681B681B6803F02003002B0BD11E
:102B90007B681B681A687B681B6822F00A021A604F
:102BA0007B68012283F821207B681B68384A9342A6
:102BB00029D07B681B68374A934222D07B681B6808
:102BC000354A93421AD07B681B68344A934212D02C
:102BD0007B681B68324A93420AD07B681B68314A83
:102BE000934202D14FF400130EE04FF000730BE05C
:102BF0004FF4003308E04FF4005305E04FF4007346
:102C000002E0202300E00223274A53607B68002271
:102C100083F820207B689B6A002B34D07B689B6AFA
:102C2000786898472FE07B681B6C08229A40FB6805
:102C30001340002B28D0BB6803F00803002B23D0DF
:102C40007B681B681A687B681B6822F00E021A609A
:102C50007B681A6C7B68DB6B012101FA02F25A6017
:102C60007B6801229A637B68012283F821207B68BC
:102C7000002283F820207B681B6B002B04D07B682C
:102C80001B6B7868984700BF00BF1037BD4680BDFA
:102C9000080002401C000240300002404400024094
:102CA000580002406C0002400000024080B485B031
:102CB00000AFF860B9607A603B60FB681A6CFB6833
:102CC000DB6B012101FA02F25A60FB681B683A686B
:102CD0005A60FB685B68102B08D1FB681B687A6838
:102CE0009A60FB681B68BA68DA6007E0FB681B68DB
:102CF000BA689A60FB681B687A68DA6000BF1437AC
:102D0000BD4680BC7047000080B48BB000AF7860D7
:102D1000396000237B6200233B6227E101227B6A4A
:102D200002FA03F3FB613B681B68FA691340BB615D
:102D3000BA69FB699A4240F016813B685B68122BC6
:102D400034D0122B0DD8022B2BD0022B04D8002B01
:102D500031D0012B1CD048E0032B43D0112B1BD0CA
:102D600043E0894A934226D0874A934206D8874A4D
:102D7000934220D0864A93421DD036E0854A934242
:102D800019D0854A934216D0844A934213D02CE03E
:102D90003B68DB683B6228E03B68DB6804333B62EE
:102DA00023E03B68DB6808333B621EE03B68DB687E
:102DB0000C333B6219E03B689B68002B02D1042373
:102DC0003B6212E03B689B68012B05D108233B6204
:102DD0007B68FA691A6108E008233B627B68FA693C
:102DE0005A6102E000233B6200BFBB69FF2B01D8A0
:102DF0007B6801E07B6804337B61BB69FF2B02D8F1
:102E00007B6A9B0002E07B6A083B9B003B617B691D
:102E10001A680F213B6901FA03F3DB431A40396A50
:102E20003B6901FA03F31A437B691A603B685B68EC
:102E300003F08053002B00F09680594B9B69584A51
:102E400043F001039361564B9B6903F00103BB60A0
:102E5000BB68544A7B6A9B08023352F82330FB60FC
:102E60007B6A03F003039B000F2202FA03F3DB43A8
:102E7000FA681340FB607B684B4A934213D07B682F
:102E80004A4A93420DD07B68494A934207D07B68F7
:102E9000484A934201D1032306E0042304E00223BD
:102EA00002E0012300E000237A6A02F003029200AC
:102EB0009340FA681343FB603A497B6A9B080233EC
:102EC000FA6841F823203B685B6803F48033002BE9
:102ED00006D0394B1A683849BB6913430B6006E0CA
:102EE000354B1A68BB69DB43334913400B603B68C1
:102EF0005B6803F40033002B06D02F4B5A682E4931
:102F0000BB6913434B6006E02B4B5A68BB69DB433C
:102F1000294913404B603B685B6803F48013002B26
:102F200006D0254B9A682449BB6913438B6006E0A1
:102F3000214B9A68BB69DB431F4913408B603B6898
:102F40005B6803F40013002B06D01B4BDA681A49A8
:102F5000BB691343CB6006E0174BDA68BB69DB4300
:102F600015491340CB607B6A01337B623B681A686A
:102F70007B6A22FA03F3002B7FF4D0AE00BF2C371C
:102F8000BD4680BC704700BF00002110000011103A
:102F9000000012100000311000003210000022105A
:102FA000001002400000014000080140000C0140F8
:102FB00000100140001401400004014080B485B0BD
:102FC00000AF78600B467B807B689A687B881340F3
:102FD000002B02D00123FB7301E00023FB73FB7B7A
:102FE00018461437BD4680BC704780B483B000AF2C
:102FF00078600B467B8013467B707B78002B03D078
:103000007A887B681A6103E07B881A047B681A61FE
:1030100000BF0C37BD4680BC704780B483B000AFA2
:1030200078600B467B807B68DA687B881340002BD6
:1030300003D07A887B685A6102E07A887B681A61DB
:1030400000BF0C37BD4680BC7047000080B586B01D
:1030500000AF78607B68002B01D101236CE27B68B4
:103060001B6803F00103002B00F08780924B5B6824
:1030700003F00C03042B0CD08F4B5B6803F00C03A4
:10308000082B12D18C4B5B6803F48033B3F5803F7F
:103090000BD1894B1B6803F40033002B6CD07B6889
:1030A0005B68002B68D1012346E27B685B68B3F55F
:1030B000803F06D1804B1B687F4A43F48033136006
:1030C0002EE07B685B68002B0CD17B4B1B687A4A37
:1030D00023F480331360784B1B68774A23F48023F2
:1030E00013601DE07B685B68B3F5A02F0CD1724BB9
:1030F0001B68714A43F4802313606F4B1B686E4A50
:1031000043F4803313600BE06B4B1B686A4A23F473
:1031100080331360684B1B68674A23F48023136075
:103120007B685B68002B13D0FEF76EFE386108E009
:10313000FEF76AFE02463B69D31A642B01D90323CA
:10314000FAE15D4B1B6803F40033002BF0D014E070
:10315000FEF75AFE386108E0FEF756FE02463B696C
:10316000D31A642B01D90323E6E1534B1B6803F404
:103170000033002BF0D100E000BF7B681B6803F038
:103180000203002B63D04C4B5B6803F00C03002B55
:103190000BD0494B5B6803F00C03082B1CD1464B4A
:1031A0005B6803F48033002B16D1434B1B6803F09C
:1031B0000203002B05D07B681B69012B01D0012382
:1031C000BAE13D4B1B6823F0F8027B685B69DB00CA
:1031D000394913430B603AE07B681B69002B20D010
:1031E000364B01221A60FEF70FFE386108E0FEF749
:1031F0000BFE02463B69D31A022B01D903239BE144
:103200002D4B1B6803F00203002BF0D02A4B1B68E8
:1032100023F0F8027B685B69DB00274913430B60EE
:1032200015E0264B00221A60FEF7EEFD386108E03B
:10323000FEF7EAFD02463B69D31A022B01D90323AC
:103240007AE11D4B1B6803F00203002BF0D17B6871
:103250001B6803F00803002B3AD07B689B69002BA6
:1032600019D0174B01221A60FEF7CEFD386108E035
:10327000FEF7CAFD02463B69D31A022B01D903238C
:103280005AE10D4B5B6A03F00203002BF0D00120E2
:1032900000F0C6FA1CE00A4B00221A60FEF7B4FDEB
:1032A00038610FE0FEF7B0FD02463B69D31A022BEE
:1032B00008D9032340E100BF001002400000424251
:1032C000800442429E4B5B6A03F00203002BE9D16B
:1032D0007B681B6803F00403002B00F0A68000232A
:1032E000FB75974BDB6903F08053002B0DD1944B9A
:1032F000DB69934A43F08053D361914BDB6903F060
:103300008053BB60BB680123FB758E4B1B6803F4C5
:103310008073002B18D18B4B1B688A4A43F480734F
:103320001360FEF771FD386108E0FEF76DFD02469F
:103330003B69D31A642B01D90323FDE0814B1B6841
:1033400003F48073002BF0D07B68DB68012B06D17F
:103350007B4B1B6A7A4A43F0010313622DE07B68C2
:10336000DB68002B0CD1764B1B6A754A23F00103F6
:103370001362734B1B6A724A23F0040313621CE04E
:103380007B68DB68052B0CD16D4B1B6A6C4A43F0E4
:10339000040313626A4B1B6A694A43F00103136218
:1033A0000BE0674B1B6A664A23F001031362644B10
:1033B0001B6A634A23F0040313627B68DB68002BFB
:1033C00015D0FEF721FD38610AE0FEF71DFD02462B
:1033D0003B69D31A41F28832934201D90323ABE00F
:1033E000574B1B6A03F00203002BEED014E0FEF7EC
:1033F0000BFD38610AE0FEF707FD02463B69D31A70
:1034000041F28832934201D9032395E04C4B1B6A69
:1034100003F00203002BEED1FB7D012B05D1484BBD
:10342000DB69474A23F08053D3617B68DB69002B5B
:1034300000F08180424B5B6803F00C03082B61D0E5
:103440007B68DB69022B46D13F4B00221A60FEF7F6
:10345000DBFC386108E0FEF7D7FC02463B69D31A73
:10346000022B01D9032367E0354B1B6803F000737F
:10347000002BF0D17B681B6AB3F5803F08D1304B3D
:103480005B6823F400327B689B682D4913434B60D3
:103490002B4B5B6823F474127B68196A7B685B6A48
:1034A0000B43274913434B60274B01221A60FEF759
:1034B000ABFC386108E0FEF7A7FC02463B69D31A73
:1034C000022B01D9032337E01D4B1B6803F0007367
:1034D000002BF0D02FE01C4B00221A60FEF794FC6A
:1034E000386108E0FEF790FC02463B69D31A022BD4
:1034F00001D9032320E0124B1B6803F00073002B5B
:10350000F0D118E07B68DB69012B01D1012313E0C6
:103510000B4B5B68FB60FB6803F480327B681B6AC3
:103520009A4206D1FB6803F470127B685B6A9A4288
:1035300001D0012300E0002318461837BD4680BDA6
:1035400000100240007000406000424280B584B02C
:1035500000AF786039607B68002B01D10123D0E097
:103560006A4B1B6803F007033A689A4210D9674B0D
:103570001B6823F0070265493B6813430B60634BEC
:103580001B6803F007033A689A4201D00123B8E0B0
:103590007B681B6803F00203002B20D07B681B684C
:1035A00003F00403002B05D0594B5B68584A43F4E1
:1035B000E06353607B681B6803F00803002B05D0B1
:1035C000534B5B68524A43F460535360504B5B6803
:1035D00023F0F0027B689B684D4913434B607B6886
:1035E0001B6803F00103002B40D07B685B68012B54
:1035F00007D1474B1B6803F40033002B15D101237F
:103600007FE07B685B68022B07D1414B1B6803F0AE
:103610000073002B09D1012373E03D4B1B6803F0BD
:103620000203002B01D101236BE0394B5B6823F0CF
:1036300003027B685B68364913434B60FEF7E4FB8B
:10364000F8600AE0FEF7E0FB0246FB68D31A41F29D
:103650008832934201D9032353E02D4B5B6803F07A
:103660000C027B685B689B009A42EBD1274B1B687E
:1036700003F007033A689A4210D2244B1B6823F0E8
:10368000070222493B6813430B60204B1B6803F081
:1036900007033A689A4201D0012332E07B681B6835
:1036A00003F00403002B08D0194B5B6823F4E0629D
:1036B0007B68DB68164913434B607B681B6803F02B
:1036C0000803002B09D0124B5B6823F460527B681F
:1036D0001B69DB000E4913434B6000F021F80146E3
:1036E0000B4B5B681B0903F00F030A4AD35C21FAFA
:1036F00003F3094A1360094B1B681846FEF742FBA7
:10370000002318461037BD4680BD00BF0020024090
:1037100000100240A85E0008080000200000002001
:1037200090B48AB000AF2A4B3C1D0FCB84E80F0049
:10373000284B1B883B800023FB610023BB610023D7
:103740007B6200237B6100233B62234B5B68FB6150
:10375000FB6903F00C03042B02D0082B03D02DE0EF
:103760001E4B3B622DE0FB699B0C03F00F0307F13E
:103770002802134413F8243C7B61FB6903F4803373
:10378000002B13D0144B5B685B0C03F0010307F1B3
:103790002802134413F8283CBB617B690F4A02FBE3
:1037A00003F2BB69B2FBF3F37B6204E07B690C4A72
:1037B00002FB03F37B627B6A3B6202E0074B3B62E6
:1037C00000BF3B6A18462837BD4690BC704700BF13
:1037D0007C5E00088C5E00080010024000127A0037
:1037E00000093D0080B400AF024B1B681846BD467F
:1037F00080BC70470800002080B500AFFFF7F2FFE3
:103800000146054B5B68DB0A03F00703034AD35C00
:1038100021FA03F3184680BD00100240B85E00088C
:1038200080B485B000AF78600A4B1B680A4AA2FBDF
:1038300003235B0A7A6802FB03F3FB6000BFFB68AB
:103840005A1EFA60002BF9D100BF1437BD4680BC68
:10385000704700BF08000020D34D621080B586B0CD
:1038600000AF786000233B610023FB607B681B682E
:1038700003F00103002B7DD00023FB754F4BDB6968
:1038800003F08053002B0DD14C4BDB694B4A43F0C6
:103890008053D361494BDB6903F08053BB60BB6845
:1038A0000123FB75464B1B6803F48073002B18D172
:1038B000434B1B68424A43F480731360FEF7A4FA3B
:1038C000386108E0FEF7A0FA02463B69D31A642B80
:1038D00001D903236DE03A4B1B6803F48073002B7E
:1038E000F0D0364B1B6A03F44073FB60FB68002B7F
:1038F0002ED07B685B6803F44073FA689A4227D045
:103900002E4B1B6A23F44073FB602E4B01221A607E
:103910002C4B00221A60294AFB681362FB6803F0F3
:103920000103002B14D0FEF76FFA38610AE0FEF7AE
:103930006BFA02463B69D31A41F28832934201D9AD
:10394000032336E01D4B1B6A03F00203002BEED06D
:103950001A4B1B6A23F440727B685B681749134358
:103960000B62FB7D012B05D1144BDB69134A23F05D
:103970008053D3617B681B6803F00203002B08D0DF
:103980000E4B5B6823F440427B689B680B491343F2
:103990004B607B681B6803F01003002B08D0074BBB
:1039A0005B6823F480027B68DB68044913434B6047
:1039B000002318461837BD4680BD00BF00100240E6
:1039C000007000404004424290B58DB000AF786076
:1039D000554B07F10C040FCB84E80F00534B1B88A9
:1039E0003B8100237B620023FB6200233B620023B8
:1039F000FB610023BB627B68022B7FD0102B02D0BF
:103A0000012B48D08BE04A4B5B68FB61484B1B683D
:103A100003F08073002B7FD0FB699B0C03F00F0336
:103A200007F13002134413F8243C3B62FB6903F4B2
:103A30008033002B18D03E4B5B685B0C03F0010316
:103A400007F13002134413F8283C7B62FB6903F44E
:103A50008033002B0DD0374A7B6AB2FBF3F23B6A0E
:103A600002FB03F3FB6204E03B6A334A02FB03F30D
:103A7000FB622F4B5B6803F48003B3F5800F02D128
:103A8000FB6ABB6248E0FB6A5B002C4AA2FB032393
:103A90005B08BB6240E0264B1B6AFB61FB6903F4D9
:103AA0004073B3F5807F08D1FB6903F00203002B5C
:103AB00003D04FF40043BB621FE0FB6903F4407383
:103AC000B3F5007F09D11A4B5B6A03F00203002BA8
:103AD00003D049F64043BB620FE0FB6903F4407337
:103AE000B3F5407F1AD1124B1B6803F40033002B4F
:103AF00014D04FF22443BB6210E00FE0FFF77CFECE
:103B000002460B4B5B689B0B03F0030301335B0026
:103B1000B2FBF3F3BB6202E000BF00E000BFBB6A90
:103B200018463437BD4690BD905E0008A05E000880
:103B30000010024000127A0000093D00ABAAAAAAB8
:103B400080B582B000AF78607B68002B01D1012383
:103B50001DE07B6893F83D30DBB2002B06D17B681B
:103B6000002283F83C20786802F036F87B68022255
:103B700083F83D207B681A687B6804331946104639
:103B800000F090FB7B68012283F83D20002318465B
:103B90000837BD4680BD80B485B000AF78607B68D3
:103BA0001B68DA687B681B6842F00102DA607B6898
:103BB0001B689B6803F00703FB60FB68062B07D0BC
:103BC0007B681B681A687B681B6842F001021A60F8
:103BD000002318461437BD4680BC704780B582B0BC
:103BE00000AF78607B68002B01D101231DE07B686A
:103BF00093F83D30DBB2002B06D17B68002283F8BE
:103C00003C20786800F015F87B68022283F83D209C
:103C10007B681A687B6804331946104600F042FB43
:103C20007B68012283F83D20002318460837BD46F3
:103C300080BD80B483B000AF786000BF0C37BD4654
:103C400080BC704780B584B000AF786039607B6815
:103C50001B6801223968184600F0A4FD7B681B68C8
:103C6000104A934207D17B681B685A6C7B681B68BB
:103C700042F400425A647B681B689B6803F00703A8
:103C8000FB60FB68062B07D07B681B681A687B68A3
:103C90001B6842F001021A60002318461037BD4627
:103CA00080BD00BF002C014080B582B000AF7860BD
:103CB00039607B681B6800223968184600F072FD85
:103CC0007B681B681D4A934217D17B681B681A6A80
:103CD00041F211131340002B0FD17B681B681A6A45
:103CE00040F244431340002B07D17B681B685A6C99
:103CF0007B681B6822F400425A647B681B681A6A5E
:103D000041F211131340002B0FD17B681B681A6A14
:103D100040F244431340002B07D17B681B681A68AC
:103D20007B681B6822F001021A607B68012283F81D
:103D30003D20002318460837BD4680BD002C0140B9
:103D400080B582B000AF78607B681B681B6903F0A8
:103D50000203022B22D17B681B68DB6803F002039D
:103D6000022B1BD17B681B686FF002021A617B6813
:103D700001221A777B681B689B6903F00303002B01
:103D800003D0786800F073FA05E0786800F066FA0E
:103D9000786800F075FA7B6800221A777B681B68E8
:103DA0001B6903F00403042B22D17B681B68DB68CA
:103DB00003F00403042B1BD17B681B686FF0040223
:103DC0001A617B6802221A777B681B689B6903F47F
:103DD0004073002B03D0786800F049FA05E078685A
:103DE00000F03CFA786800F04BFA7B6800221A7702
:103DF0007B681B681B6903F00803082B22D17B68D2
:103E00001B68DB6803F00803082B1BD17B681B6869
:103E10006FF008021A617B6804221A777B681B68BE
:103E2000DB6903F00303002B03D0786800F01FFA6E
:103E300005E0786800F012FA786800F021FA7B68F3
:103E400000221A777B681B681B6903F01003102B94
:103E500022D17B681B68DB6803F01003102B1BD199
:103E60007B681B686FF010021A617B6808221A7762
:103E70007B681B68DB6903F44073002B03D0786810
:103E800000F0F5F905E0786800F0E8F9786800F0EE
:103E9000F7F97B6800221A777B681B681B6903F0BF
:103EA0000103012B0ED17B681B68DB6803F0010363
:103EB000012B07D17B681B686FF001021A617868DB
:103EC00000F0C3F97B681B681B6903F08003802B3B
:103ED0000ED17B681B68DB6803F08003802B07D161
:103EE0007B681B686FF080021A61786800F087FDBC
:103EF0007B681B681B6903F04003402B0ED17B6875
:103F00001B68DB6803F04003402B07D17B681B680C
:103F10006FF040021A61786800F0BBF97B681B689B
:103F20001B6903F02003202B0ED17B681B68DB6824
:103F300003F02003202B07D17B681B686FF0200261
:103F40001A61786800F052FD00BF0837BD4680BD99
:103F500080B584B000AFF860B9607A60FB6893F810
:103F60003C30012B01D10223B4E0FB68012283F82D
:103F70003C20FB68022283F83D207B680C2B00F27A
:103F80009F8001A252F823F0BD3F0008C140000805
:103F9000C1400008C1400008FD3F0008C1400008C2
:103FA000C1400008C14000083F400008C14000086F
:103FB000C1400008C14000087F400008FB681B6842
:103FC000B968184600F0D0F9FB681B689A69FB686D
:103FD0001B6842F008029A61FB681B689A69FB68DB
:103FE0001B6822F004029A61FB681B689969BB6830
:103FF0001A69FB681B680A439A6162E0FB681B68E8
:10400000B968184600F016FAFB681B689A69FB68E5
:104010001B6842F400629A61FB681B689A69FB683E
:104020001B6822F480629A61FB681B689969BB680F
:104030001B691A02FB681B680A439A6141E0FB682E
:104040001B68B968184600F05FFAFB681B68DA69FC
:10405000FB681B6842F00802DA61FB681B68DA69DA
:10406000FB681B6822F00402DA61FB681B68D969EF
:10407000BB681A69FB681B680A43DA6121E0FB68C8
:104080001B68B968184600F0A9FAFB681B68DA6972
:10409000FB681B6842F40062DA61FB681B68DA693E
:1040A000FB681B6822F48062DA61FB681B68D969CF
:1040B000BB681B691A02FB681B680A43DA6100E0EF
:1040C00000BFFB68012283F83D20FB68002283F8D3
:1040D0003C20002318461037BD4680BD80B584B013
:1040E00000AF786039607B6893F83C30012B01D1D8
:1040F0000223A6E07B68012283F83C207B68022231
:1041000083F83D207B681B689B68FB60FB6823F09D
:104110007703FB60FB6823F47F43FB607B681B68CD
:10412000FA689A603B681B68402B67D0402B0BD81D
:10413000102B73D0102B02D8002B6FD078E0202BDF
:104140006CD0302B6AD073E0702B0DD0702B04D85C
:10415000502B33D0602B41D06AE0B3F5805F66D03E
:10416000B3F5005F17D063E07B6818683B68996817
:104170003B685A683B68DB6800F0F5FA7B681B68AF
:104180009B68FB60FB6843F07703FB607B681B6800
:10419000FA689A604CE07B6818683B6899683B68ED
:1041A0005A683B68DB6800F0DEFA7B681B689A6837
:1041B0007B681B6842F480429A6039E07B6818682B
:1041C0003B6859683B68DB681A4600F055FA7B6823
:1041D0001B685021184600F0ACFA29E07B6818688B
:1041E0003B6859683B68DB681A4600F073FA7B68E5
:1041F0001B686021184600F09CFA19E07B6818687B
:104200003B6859683B68DB681A4600F035FA7B6802
:104210001B684021184600F08CFA09E07B681A6898
:104220003B681B681946104600F083FA00E000BFA7
:104230007B68012283F83D207B68002283F83C20C4
:10424000002318461037BD4680BD80B483B000AF50
:10425000786000BF0C37BD4680BC704780B483B027
:1042600000AF786000BF0C37BD4680BC704780B49B
:1042700083B000AF786000BF0C37BD4680BC70478C
:1042800080B483B000AF786000BF0C37BD4680BCFF
:10429000704780B483B000AF786000BF0C37BD4674
:1042A00080BC704780B485B000AF786039607B68AF
:1042B0001B68FB607B68294A93420BD07B68B3F193
:1042C000804F07D07B68264A934203D07B68254AFB
:1042D000934208D1FB6823F07003FB603B685B6886
:1042E000FA681343FB607B681C4A93420BD07B68DF
:1042F000B3F1804F07D07B68194A934203D07B68A3
:10430000184A934208D1FB6823F44073FB603B6872
:10431000DB68FA681343FB60FB6823F080023B68AC
:104320005B691343FB607B68FA681A603B689A68B4
:104330007B68DA623B681A687B689A627B68074A26
:10434000934203D13B681A697B681A637B68012238
:104350005A6100BF1437BD4680BC7047002C014035
:10436000000400400008004080B487B000AF7860CF
:1043700039607B681B6A23F001027B681A627B68E4
:104380001B6A7B617B685B683B617B689B69FB6048
:10439000FB6823F07003FB60FB6823F00303FB6002
:1043A0003B681B68FA681343FB607B6923F00203D8
:1043B0007B613B689B687A6913437B617B681C4A1D
:1043C00093420CD17B6923F008037B613B68DB6877
:1043D0007A6913437B617B6923F004037B617B680B
:1043E000134A934211D13B6923F480733B613B69CB
:1043F00023F400733B613B685B693A6913433B619B
:104400003B689B693A6913433B617B683A695A6030
:104410007B68FA689A613B685A687B685A637B6874
:104420007A691A6200BF1C37BD4680BC704700BF66
:10443000002C014080B487B000AF786039607B68A1
:104440001B6A23F010027B681A627B681B6A7B611F
:104450007B685B683B617B689B69FB60FB6823F45E
:10446000E043FB60FB6823F44073FB603B681B6820
:104470001B02FA681343FB607B6923F020037B6116
:104480003B689B681B017A6913437B617B681D4A0B
:1044900093420DD17B6923F080037B613B68DB682D
:1044A0001B017A6913437B617B6923F040037B61C5
:1044B0007B68144A934213D13B6923F480633B61C8
:1044C0003B6923F400633B613B685B699B003A698D
:1044D00013433B613B689B699B003A6913433B6113
:1044E0007B683A695A607B68FA689A613B685A68E7
:1044F0007B689A637B687A691A6200BF1C37BD4685
:1045000080BC7047002C014080B487B000AF786059
:1045100039607B681B6A23F480727B681A627B684F
:104520001B6A7B617B685B683B617B68DB69FB6066
:10453000FB6823F07003FB60FB6823F00303FB6060
:104540003B681B68FA681343FB607B6923F40073C4
:104550007B613B689B681B027A6913437B617B68C4
:104560001D4A93420DD17B6923F400637B613B6854
:10457000DB681B027A6913437B617B6923F48063E8
:104580007B617B68144A934213D13B6923F48053C7
:104590003B613B6923F400533B613B685B691B0152
:1045A0003A6913433B613B689B691B013A691343BA
:1045B0003B617B683A695A607B68FA68DA613B68FC
:1045C0005A687B68DA637B687A691A6200BF1C37B5
:1045D000BD4680BC704700BF002C014080B487B04E
:1045E00000AF786039607B681B6A23F480527B6877
:1045F0001A627B681B6A3B617B685B687B617B68D6
:10460000DB69FB60FB6823F4E043FB60FB6823F499
:104610004073FB603B681B681B02FA681343FB6036
:104620003B6923F400533B613B689B681B033A6979
:1046300013433B617B680F4A934209D17B6923F4A2
:1046400080437B613B685B699B017A6913437B61B3
:104650007B687A695A607B68FA68DA613B685A68F5
:104660007B681A647B683A691A6200BF1C37BD46D2
:1046700080BC7047002C014080B487B000AFF86068
:10468000B9607A60FB681B6A7B61FB681B6A23F078
:104690000102FB681A62FB689B693B613B6923F07E
:1046A000F0033B617B681B013A6913433B617B6903
:1046B00023F00A037B617A69BB6813437B61FB6863
:1046C0003A699A61FB687A691A6200BF1C37BD4675
:1046D00080BC704780B487B000AFF860B9607A6082
:1046E000FB681B6A23F01002FB681A62FB689B6977
:1046F0007B61FB681B6A3B617B6923F470437B61D0
:104700007B681B037A6913437B613B6923F0A00339
:104710003B61BB681B013A6913433B61FB687A69E3
:104720009A61FB683A691A6200BF1C37BD4680BCBB
:10473000704780B485B000AF786039607B689B6853
:10474000FB60FB6823F07003FB603A68FB6813436F
:1047500043F00703FB607B68FA689A6000BF143778
:10476000BD4680BC704780B487B000AFF860B960C8
:104770007A603B60FB689B687B617B6923F47F43C5
:104780007B613B681A027B681A43BB6813437A69F2
:1047900013437B61FB687A699A6000BF1C37BD4692
:1047A00080BC704780B487B000AFF860B9607A60B1
:1047B000BB6803F01F03012202FA03F37B61FB686D
:1047C0001A6A7B69DB431A40FB681A62FB681A6A43
:1047D000BB6803F01F03796801FA03F31A43FB680F
:1047E0001A6200BF1C37BD4680BC704780B584B0DC
:1047F00000AF786039607B681B680422396818460E
:1048000000F006F97B681B685A6C7B681B6842F4F1
:1048100000425A647B681B689B6803F00703FB60D7
:10482000FB68062B07D07B681B681A687B681B68CF
:1048300042F001021A60002318461037BD4680BDC1
:1048400080B582B000AF786039607B681B68002259
:104850003968184600F0DCF87B681B681A6A41F278
:1048600011131340002B0FD17B681B681A6A40F2AA
:1048700044431340002B07D17B681B685A6C7B684C
:104880001B6822F400425A647B681B681A6A41F272
:1048900011131340002B0FD17B681B681A6A40F27A
:1048A00044431340002B07D17B681B681A687B6860
:1048B0001B6822F001021A60002318460837BD4623
:1048C00080BD80B485B000AF786039607B6893F8B4
:1048D0003C30012B01D1022332E07B68012283F8B6
:1048E0003C207B68022283F83D207B681B685B6864
:1048F000FB607B681B689B68BB60FB6823F07003F0
:10490000FB603B681B68FA681343FB60BB6823F0DD
:104910008003BB603B685B68BA681343BB607B681D
:104920001B68FA685A607B681B68BA689A607B6883
:10493000012283F83D207B68002283F83C2000237D
:1049400018461437BD4680BC704780B485B000AFB0
:10495000786039600023FB607B6893F83C30012B62
:1049600001D102233DE07B68012283F83C20FB68F3
:1049700023F0FF023B68DB681343FB60FB6823F412
:1049800040723B689B681343FB60FB6823F48062C2
:104990003B685B681343FB60FB6823F400623B6881
:1049A0001B681343FB60FB6823F480523B681B6960
:1049B0001343FB60FB6823F400523B685B691343BD
:1049C000FB60FB6823F480423B68DB691343FB60B8
:1049D0007B681B68FA685A647B68002283F83C2075
:1049E000002318461437BD4680BC704780B483B09E
:1049F00000AF786000BF0C37BD4680BC704780B404
:104A000083B000AF786000BF0C37BD4680BC7047F4
:104A100080B487B000AFF860B9607A60BB6803F01B
:104A20001F03042202FA03F37B61FB681A6A7B69A5
:104A3000DB431A40FB681A62FB681A6ABB6803F022
:104A40001F03796801FA03F31A43FB681A6200BF77
:104A50001C37BD4680BC704780B483B000AF78601F
:104A60007B6800221A707B6800225A707B680022E3
:104A70005A807B68094A12685A607B68084A9A60C3
:104A80007B689A687B68DA607B6800221A747B68AE
:104A900018460C37BD4680BC704700BFA45E0008B6
:104AA0000094357780B582B000AF78600B46FB701C
:104AB000FB78022B14D0032B22D0012B00D02FE047
:104AC00000211948FFF7F0F800211748FFF7B8FE5A
:104AD000154B1B6800225A637B6802225A711FE043
:104AE00004211148FFF7E0F804210F48FFF7A8FE62
:104AF0000D4B1B6800229A637B6802229A710FE0BB
:104B000008210948FFF7D0F808210748FFF798FE69
:104B1000054B1B680022DA637B680222DA7100BF52
:104B200000BF0837BD4680BD3C01002080B582B083
:104B300000AF78600B46FB70FB78022B18D0032B7C
:104B40002AD0012B00D03BE01F4B1B6800225A6388
:104B50007B685B79022B07D100211B48FFF772F8B5
:104B600000211948FFF742FE7B6800225A7127E0B6
:104B7000154B1B6800229A637B689B79022B07D137
:104B800004211148FFF75EF804210F48FFF72EFEBD
:104B90007B6800229A7113E00B4B1B680022DA63DA
:104BA0007B68DB79022B07D108210748FFF74AF819
:104BB00008210548FFF71AFE7B680022DA7100BF62
:104BC00000BF0837BD4680BD3C01002080B582B0E3
:104BD00000AF78600B46FB7013463B80FB78022BDE
:104BE00018D0032B2AD0012B00D03BE01F4B1B68B1
:104BF0003A885A637B685B79022B07D100211B48F6
:104C0000FFF720F800211948FFF7F0FD7B6801222B
:104C10005A7127E0154B1B683A889A637B689B7929
:104C2000022B07D104211148FFF70CF804210F488B
:104C3000FFF7DCFD7B6801229A7113E00B4B1B68C8
:104C40003A88DA637B68DB79022B07D108210748B1
:104C5000FEF7F8FF08210548FFF7C8FD7B68012231
:104C6000DA7100BF00BF0837BD4680BD3C0100209F
:104C700080B582B000AF7860084611461A460346F8
:104C8000FB700B463B801346BB703B7C83F00103FB
:104C9000DBB2002B0CD001217868FFF703FF022163
:104CA0007868FFF7FFFE03217868FFF7FBFEF8E066
:104CB000FB78013B052B00F2E78001A252F823F0BC
:104CC000D94C0008214D0008694D0008B14D00087D
:104CD000F94D0008414E0008BB7883F00103DBB2B8
:104CE000002B0ED001217868FFF7DCFE3B881A46C6
:104CF00002217868FFF76AFF03217868FFF716FF43
:104D0000CFE001217868FFF7CDFE3B881A460321EA
:104D10007868FFF75BFF02217868FFF707FFC0E0C4
:104D2000BB7883F00103DBB2002B0ED0032178683F
:104D3000FFF7B8FE3B881A4602217868FFF746FF66
:104D400001217868FFF7F2FEABE003217868FFF7F6
:104D5000A9FE3B881A4601217868FFF737FF022138
:104D60007868FFF7E3FE9CE0BB7883F00103DBB2D9
:104D7000002B0ED002217868FFF794FE3B881A467C
:104D800003217868FFF722FF01217868FFF7CEFE44
:104D900087E002217868FFF785FE3B881A460121EB
:104DA0007868FFF713FF03217868FFF7BFFE78E00C
:104DB000BB7883F00103DBB2002B0ED001217868B1
:104DC000FFF770FE3B881A4603217868FFF7FEFE66
:104DD00002217868FFF7AAFE63E001217868FFF7F7
:104DE00061FE3B881A4602217868FFF7EFFE032137
:104DF0007868FFF79BFE54E0BB7883F00103DBB2D9
:104E0000002B0ED003217868FFF74CFE3B881A4632
:104E100001217868FFF7DAFE02217868FFF786FE45
:104E20003FE003217868FFF73DFE3B881A460221E8
:104E30007868FFF7CBFE01217868FFF777FE30E056
:104E4000BB7883F00103DBB2002B0ED0022178681F
:104E5000FFF728FE3B881A4601217868FFF7B6FE67
:104E600003217868FFF762FE1BE002217868FFF7F4
:104E700019FE3B881A4603217868FFF7A7FE012137
:104E80007868FFF753FE0CE001217868FFF70AFE0F
:104E900002217868FFF706FE03217868FFF702FE1B
:104EA00000BF0837BD4680BD80B483B000AF7860D6
:104EB0007B6801221A7000BF0C37BD4680BC70476A
:104EC00080B483B000AF78607B6800221A707B6882
:104ED00000225A807B6800221A7400BF0C37BD463E
:104EE00080BC704780B582B000AF786002217868DE
:104EF000FFF7D8FD03217868FFF7D4FD012178681A
:104F0000FFF7D0FD0348FEF746FE00BF0837BD4659
:104F100080BD00BF7C01002090B583B000AF7860F9
:104F20000B467B80B7F90230B3F57A7F02DD4FF490
:104F30007A737B80B7F9023013F57A7F02DA4FF685
:104F400018437B80B7F90230002B21DA7B680022FE
:104F50005A70B7F902305B421846FBF74BFA1EA3B2
:104F6000D3E90023FBF7B0FA03460C461846214666
:104F70004FF000021A4BFBF7D1FB03460C461846D4
:104F80002146FBF7B3FC03469AB27B685A801FE0C8
:104F90007B6801225A70B7F902301846FBF72AFAEB
:104FA0000DA3D3E90023FBF78FFA03460C461846FE
:104FB00021464FF000020A4BFBF7B0FB03460C46BC
:104FC00018462146FBF792FC03469AB27B685A804A
:104FD00000BF0C37BD4690BD0000000000B09D40F2
:104FE00000408F4080B485B000AFF8607B600B4616
:104FF0007B8113463B81FB687A895A82FB683A8938
:105000009A82FB687A689A61FB6801221A7400BF71
:105010001437BD4680BC7047F0B585B000AF7860EE
:105020007B681B7C002B5DD0304B1B7883F0010329
:10503000DBB2002B02D02E4B00221A607B68B3F942
:1050400012301846FBF72CFD04467B68B3F9143088
:105050001A467B68B3F91230D31A1846FBF720FDC5
:105060000546234B1B681846FBF716FD06467B6872
:105070009A6913469B0013445B001846FBF70CFD2E
:10508000034619463046FBF713FE034619462846E9
:10509000FBF75AFD034619462046FBF74DFC034635
:1050A0001846FBF7A1FE0346FB81B7F90E301946FF
:1050B0007868FFF731FF7B689A6913469B001344B9
:1050C0005B001A460A4B1B689A4202D87B68002292
:1050D0001A74074B1B680133054A13607B681A7CFE
:1050E000024B1A7000BF1437BD46F0BD900000207F
:1050F0009400002080B586B002AF78607868FFF732
:105100008BFF07F10C0300210A461A800A469A70A9
:105110004FF400617D48FDF751FF0346012B0CBFA2
:1051200001230023DBB23B7302217948FDF746FFE0
:105130000346012B0CBF01230023DBB27B734FF42A
:1051400080417448FDF73AFF0346012B0CBF012351
:105150000023DBB2BB730023FB733B7B83F00103B3
:10516000DBB2002B0ED07B7B83F00103DBB2002B84
:1051700008D0BB7B83F00103DBB2002B02D00023FD
:10518000FB736DE03B7B83F00103DBB2002B0BD0A4
:105190007B7B83F00103DBB2002B05D0BB7B002BB4
:1051A00002D00123FB735BE03B7B83F00103DBB2A6
:1051B000002B0BD07B7B002B08D0BB7B83F0010343
:1051C000DBB2002B02D00523FB7349E03B7B83F06D
:1051D0000103DBB2002B08D07B7B002B05D0BB7B0F
:1051E000002B02D00623FB733AE03B7B002B0ED052
:1051F0007B7B83F00103DBB2002B08D0BB7B83F009
:105200000103DBB2002B02D00323FB7328E03B7BBE
:10521000002B0BD07B7B83F00103DBB2002B05D08E
:10522000BB7B002B02D00223FB7319E03B7B002BDE
:105230000BD07B7B002B08D0BB7B83F00103DBB260
:10524000002B02D00423FB730AE03B7B002B07D02A
:105250007B7B002B04D0BB7B002B01D00023FB7396
:105260007B685A887B6858787B681B78F97B009349
:1052700003467868FFF7FCFC274B1B78BFF35B8F76
:10528000DBB203F00103002B0CBF01230023DBB2D0
:10529000002B10D0204800F04CFD0346002B14BF1B
:1052A00001230023DBB2002B05D01C4AFB7B1370CB
:1052B000194800F04AFD194B1B78FA7B9A4206D830
:1052C000FB7B012B09D1154B1B78062B05D17B6885
:1052D000DB685A1C7B68DA6010E0104B1B78FA7BA5
:1052E0009A4206D3FB7B062B08D10C4B1B78012B73
:1052F00004D17B68DB685A1E7B68DA60074AFB7B57
:10530000137000BF1037BD4680BD00BF000C0140C8
:1053100000140140001001409C0000209800002073
:1053200080B584B000AF3B1D00221A605A609A60BD
:10533000274B284A1A60264B4FF480729A60244B00
:1053400001221A73224B00221A75214B4FF460225E
:10535000DA611F4B00225A601D4B03221A611C4860
:10536000FCF77EFD0346002B01D000F04BFA04232E
:105370007B600123BB600623FB603B1D194614487C
:10538000FCF740FF0346002B01D000F03BFA062358
:105390007B600223BB603B1D19460D48FCF732FFC2
:1053A0000346002B01D000F02DFA02237B6003237B
:1053B000BB603B1D19460648FCF724FF0346002B43
:1053C00001D000F01FFA00BF1037BD4680BD00BFFE
:1053D000A00000200024014080B588B000AF7860B4
:1053E00007F1100300221A605A609A60DA607B6845
:1053F0001B68284A934249D1274B9B69264A43F4AC
:1054000000739361244B9B6903F40073FB60FB689A
:10541000214B9B69204A43F0040393611E4B9B6917
:1054200003F00403BB60BB6854233B6103237B612F
:1054300007F1100319461948FDF766FC184B194A85
:105440001A60174B00225A60154B00229A60144BC9
:105450008022DA60124B4FF400721A61104B4FF445
:1054600000625A610E4B20229A610D4B0022DA61D4
:105470000B48FDF75BFA0346002B01D000F0C2F9A0
:105480007B68074A1A62064A7B68536200BF20376E
:10549000BD4680BD002401400010024000080140CC
:1054A000D00000200800024080B582B000AF0C4B55
:1054B0005B690B4A43F001035361094B5B6903F0DD
:1054C00001037B607B68002200210B20FDF7F7F9C8
:1054D0000B20FDF710FA00BF0837BD4680BD00BFA6
:1054E0000010024080B58AB000AF07F1140300221B
:1054F0001A605A609A60DA604F4B9B694E4A43F0DB
:10550000100393614C4B9B6903F010033B613B69B3
:10551000494B9B69484A43F020039361464B9B6982
:1055200003F02003FB60FB68434B9B69424A43F056
:1055300004039361404B9B6903F00403BB60BB68A9
:105540003D4B9B693C4A43F0080393613A4B9B698E
:1055500003F008037B607B6800224FF4005137485A
:10556000FDF743FD002240F204413548FDF73DFDC3
:105570004FF400537B610123BB610023FB610223D5
:105580003B6207F1140319462C48FDF7BDFB4FF4AD
:1055900040437B610023BB610023FB6107F11403DF
:1055A00019462648FDF7B0FB02237B610023BB614F
:1055B0000023FB6107F1140319462248FDF7A4FB01
:1055C00004237B610123BB610023FB6101233B6258
:1055D00007F1140319461A48FDF796FB4FF4806350
:1055E0007B610123BB610023FB6102233B6207F166
:1055F000140319461248FDF787FB4FF400637B61E3
:105600000023BB610023FB6107F1140319460C481A
:10561000FDF77AFB0C4B5B687B627B6A43F0E063CF
:105620007B627B6A43F400437B62074A7B6A536078
:1056300000BF2837BD4680BD001002400010014069
:10564000000C0140001401400000014080B500AF93
:105650000348FFF74FFD0348FEF772FB00BF80BD14
:10566000200100207C01002080B500AFFCF774FB16
:1056700000F062F8FFF736FFFFF716FFFFF750FE66
:1056800000F0A0F900F05AFA2548FCF7A5FF0A201F
:10569000FCF7C4FB032223492148FCF7B9FC012293
:1056A00004212148FDF7A1FC4FF4FA60FCF7B6FB9A
:1056B0004FF480611C48FDF7B0FC1C48FFF712FC5A
:1056C0001A48FFF7F1FB4FF47A734FF44872002148
:1056D0001648FFF787FC4FF47A60FCF79FFB4FF406
:1056E000FA7300224FF448711048FFF77BFC4FF427
:1056F00000410F48FDF762FC0346012B0CBF01235C
:105700000023DBB2002BF2D00848FFF7D9FB0022C0
:1057100004210548FDF769FC0648FCF77FFBE6E736
:10572000A000002014010020000C014020010020F6
:1057300000100140A086010080B594B000AF07F1D1
:10574000280328220021184600F03FFB07F114032C
:1057500000221A605A609A60DA601A613B1D0022CA
:105760001A605A609A60DA600223BB620123BB634D
:105770001023FB6302237B640023BB644FF460139C
:10578000FB6407F128031846FDF760FC0346002B75
:1057900014BF01230023DBB2002B01D000F032F84C
:1057A0000F237B610223BB610023FB614FF4A063E5
:1057B0003B624FF4A0637B6207F114030221184699
:1057C000FDF7C4FE0346002B14BF01230023DBB208
:1057D000002B01D000F016F802237B600023FB6051
:1057E0003B1D1846FEF73AF80346002B14BF012371
:1057F0000023DBB2002B01D000F004F800BF5037CB
:10580000BD4680BD80B400AF00BFBD4680BC7047C0
:1058100080B582B000AF786039607B68012B07D11A
:105820003B684FF6FF72934202D10348FFF714F929
:1058300000BF0837BD4680BD2001002080B500AF05
:105840004FF6FF710120FFF7E3FF80BD80B485B004
:1058500000AF154B9B69144A43F001039361124B4F
:105860009B6903F00103BB60BB680F4BDB690E4A09
:1058700043F08053D3610C4BDB6903F080537B60B2
:105880007B680A4B5B68FB60FB6823F0E063FB60AE
:10589000FB6843F00073FB60044AFB68536000BF81
:1058A0001437BD4680BC7047001002400000014024
:1058B00080B400AF00BFBD4680BC704780B400AF6D
:1058C000FEE780B400AFFEE780B400AFFEE780B42F
:1058D00000AFFEE780B400AF00BFBD4680BC70479C
:1058E00080B400AF00BFBD4680BC704780B400AF3D
:1058F00000BFBD4680BC704780B500AFFCF772FAB0
:1059000000BF80BD80B500AF0248FDF7C9F800BFF9
:1059100080BD00BFD000002080B400AF0123184636
:10592000BD4680BC704780B582B000AF78603960FA
:1059300000F016FA0246162313604FF0FF331846A4
:105940000837BD4680BD80B582B000AF78604FF0AB
:10595000FF317868FFF7E7FFFEE7000080B400AF93
:10596000154B1B68144A43F001031360124B5A682D
:105970001149124B13404B600F4B1B680E4A23F02A
:10598000847323F4803313600B4B1B680A4A23F49F
:1059900080231360084B5B68074A23F4FE035360BF
:1059A000054B4FF41F029A60054B4FF000629A605E
:1059B00000BFBD4680BC7047001002400000FFF8E9
:1059C00000ED00E080B596B000AF07F1480300227B
:1059D0001A605A609A60DA6007F1400300221A6088
:1059E0005A6007F1240300221A605A609A60DA6054
:1059F0001A615A619A613B1D20220021184600F06D
:105A0000E4F94C4B4C4A1A604A4B00225A60494B0D
:105A100000229A60474B4FF4FA62DA60454B00224D
:105A20001A61444B00225A61424B00229A6141485C
:105A3000FEF786F80346002B01D0FFF7E3FE4FF494
:105A40008053BB6407F1480319463A48FEF746FB0A
:105A50000346002B01D0FFF7D5FE3648FEF7BEF80F
:105A60000346002B01D0FFF7CDFE00233B6400234B
:105A70007B6407F1400319462E48FEF722FF0346D8
:105A8000002B01D0FFF7BEFE60237B620023BB62C8
:105A90000023FB6208233B6300237B630023BB637B
:105AA0004FF40073FB6307F12403002219462148D9
:105AB000FEF74EFA0346002B01D0FFF7A3FE07F1D5
:105AC0002403042219461B48FEF742FA0346002B22
:105AD00001D0FFF797FE07F1240308221946154865
