:020000040800F2
:1000000000500020E1370008FD36000809370008DD
:100010000F370008153700081B37000800000000E4
:100020000000000000000000000000002137000870
:100030002D37000800000000393700084537000858
:10004000293800082938000829380008293800080C
:1000500029380008293800082938000829380008FC
:1000600029380008293800082938000851370008C5
:1000700029380008293800082938000829380008DC
:1000800029380008293800082938000829380008CC
:1000900029380008293800082938000829380008BC
:1000A00029380008293800082938000829380008AC
:1000B000293800082938000829380008293800089C
:1000C000293800082938000829380008293800088C
:1000D0002938000829380008653700082938000841
:1000E00029380008293800082938000800000000D5
:1000F0000000000000000000000000000000000000
:0C01000000000000000000005FF808F1A3
:10010C0010B5054C237833B9044B13B10448AFF345
:10011C0000800123237010BD0C00002000000000A3
:10012C008438000808B5034B1BB103490348AFF3EF
:10013C00008008BD0000000010000020843800087A
:10014C0080B500AF084B1B68074A43F010031360DF
:10015C00032000F04FFB002000F008F803F070F9CA
:10016C000023184680BD00BF0020024080B582B03D
:10017C0000AF7860124B1A68124B1B7819464FF47B
:10018C007A73B3FBF1F3B2FBF3F3184600F067FBA1
:10019C000346002B01D001230EE07B680F2B0AD8FD
:1001AC00002279684FF0FF3000F02FFB064A7B6885
:1001BC001360002300E0012318460837BD4680BDBC
:1001CC0008000020040000200000002080B400AFD4
:1001DC00054B1B781A46054B1B681344034A1360E6
:1001EC0000BFBD4680BC70470400002028000020E2
:1001FC0080B400AF024B1B681846BD4680BC7047EC
:10020C002800002080B584B000AF7860FFF7F0FFC5
:10021C00B8607B68FB60FB68B3F1FF3F05D0094B0E
:10022C001B781A46FB681344FB6000BFFFF7E0FF26
:10023C000246BB68D31AFA689A42F7D800BF103747
:10024C00BD4680BD0400002080B586B000AF78604C
:10025C000023FB7500233B610023BB600023FB6084
:10026C007B68002B01D10123BEE07B689B68002BCF
:10027C007B689B6A002B09D17B680022DA627B6861
:10028C00002283F82420786803F00CF9786800F0D9
:10029C00ABF90346FB757B689B6A03F01003002BDC
:1002AC0040F09980FB7D002B40F095807B689B6A29
:1002BC0023F4885323F0020343F002027B689A6212
:1002CC007B685A687B68DB691A437B681B7B5B0025
:1002DC001343BA681343BB607B689B68B3F5807F9C
:1002EC0003D07B689B68012B02D14FF4807300E034
:1002FC0000233A6913433B617B681B7D012B19D1A9
:10030C007B681B7B002B09D17B689B69013B5A03E3
:10031C003B69134343F400633B610BE07B689B6ACE
:10032C0043F020027B689A627B68DB6A43F001022F
:10033C007B68DA627B681B685B6823F469417B68C5
:10034C001B683A690A435A607B681B689A68284B99
:10035C0013407A681268B9680B4393607B689B689A
:10036C00B3F5807F03D07B689B68012B04D17B683D
:10037C001B69013B1B05FB607B681B68DB6A23F474
:10038C0070017B681B68FA680A43DA627B681B6839
:10039C009A68184B1340BA689A420BD17B680022BA
:1003AC00DA627B689B6A23F0030343F001027B68EB
:1003BC009A6218E07B689B6A23F0120343F01002E8
:1003CC007B689A627B68DB6A43F001027B68DA62C5
:1003DC000123FB7507E07B689B6A43F010027B6886
:1003EC009A620123FB75FB7D18461837BD4680BD0C
:1003FC00FDF7E1FFFE0E1FFF80B485B000AF786003
:10040C0039600023FB730023BB607B6893F82430B6
:10041C00012B01D10223DCE07B68012283F824202C
:10042C003B685B68062B1CD87B681B68596B3B6868
:10043C005A6813469B001344053B1F2202FA03F330
:10044C00DB4319403B6818683B685A6813469B00AD
:10045C001344053B00FA03F27B681B680A435A639A
:10046C003CE03B685B680C2B1CD87B681B68196BE9
:10047C003B685A6813469B001344233B1F2202FA25
:10048C0003F3DB4319403B6818683B685A68134612
:10049C009B001344233B00FA03F27B681B680A435E
:1004AC001A631BE07B681B68D96A3B685A68134661
:1004BC009B001344413B1F2202FA03F3DB43194018
:1004CC003B6818683B685A6813469B001344413BD1
:1004DC0000FA03F27B681B680A43DA623B681B680C
:1004EC00092B1CD97B681B68D9683B681A681346B2
:1004FC005B0013441E3B072202FA03F3DB43194053
:10050C003B6898683B681A6813465B0013441E3BB3
:10051C0000FA03F27B681B680A43DA6019E07B6817
:10052C001B6819693B681A6813465B001344072261
:10053C0002FA03F3DB4319403B6898683B681A687E
:10054C0013465B00134400FA03F27B681B680A43F2
:10055C001A613B681B68102B03D03B681B68112B7E
:10056C0032D17B681B681D4A934225D17B681B687E
:10057C009B6803F40003002B26D17B681B689A68E8
:10058C007B681B6842F400029A603B681B68102B66
:10059C001AD1134B1B68134AA2FB03239A0C134664
:1005AC009B0013445B00BB6002E0BB68013BBB607B
:1005BC00BB68002BF9D107E07B689B6A43F02002F3
:1005CC007B689A620123FB737B68002283F82420EA
:1005DC00FB7B18461437BD4680BC70470024014095
:1005EC000800002083DE1B4380B584B000AF786028
:1005FC000023FB607B681B689B6803F00103012BE5
:10060C0027D17B681B689A687B681B6822F0010203
:10061C009A60FFF7EDFDF86014E0FFF7E9FD024684
:10062C00FB68D31A022B0DD97B689B6A43F010022E
:10063C007B689A627B68DB6A43F001027B68DA6252
:10064C00012307E07B681B689B6803F00103012B07
:10065C00E3D0002318461037BD4680BD80B485B06A
:10066C0000AF78607B6803F00703FB600C4BDB6822
:10067C00BB60BA684FF6FF031340BB60FB681A02FD
:10068C00BB68134343F0BF6343F40033BB60044ABD
:10069C00BB68D36000BF1437BD4680BC704700BF39
:1006AC0000ED00E080B400AF044BDB681B0A03F0E4
:1006BC0007031846BD4680BC704700BF00ED00E044
:1006CC0080B483B000AF0346FB7197F90730002B61
:1006DC000BDBFB7903F01F02064997F907305B0926
:1006EC00012000FA02F241F8232000BF0C37BD466E
:1006FC0080BC704700E100E080B483B000AF0346DB
:10070C003960FB7197F90730002B0ADB3B68DAB2D2
:10071C000C4997F907301201D2B20B4483F800232D
:10072C000AE03B68DAB20849FB7903F00F03043B9B
:10073C001201D2B20B441A7600BF0C37BD4680BCF6
:10074C00704700BF00E100E000ED00E080B489B02C
:10075C0000AFF860B9607A60FB6803F00703FB61D7
:10076C00FB69C3F10703042B28BF0423BB61FB699E
:10077C000433062B02D9FB69033B00E000237B61A9
:10078C004FF0FF32BB6902FA03F3DA43BB681A403D
:10079C007B699A404FF0FF317B6901FA03F3D9432F
:1007AC007B680B40134318462437BD4680BC70470A
:1007BC0080B582B000AF78607B68013BB3F1807F7D
:1007CC0001D301230FE00A4A7B68013B53600F21E0
:1007DC004FF0FF30FFF790FF054B00229A60044B5F
:1007EC0007221A60002318460837BD4680BD00BF9B
:1007FC0010E000E080B582B000AF78607868FFF759
:10080C002DFF00BF0837BD4680BD80B586B000AF58
:10081C000346B9607A60FB7300237B61FFF742FFEC
:10082C0078617A68B9687869FFF790FF024697F9A2
:10083C000F3011461846FFF75FFF00BF1837BD4653
:10084C0080BD80B582B000AF0346FB7197F90730CD
:10085C001846FFF735FF00BF0837BD4680BD80B591
:10086C0082B000AF78607868FFF7A2FF03461846A5
:10087C000837BD4680BD000080B485B000AF7860FD
:10088C000023FB607B68002B01D1012343E07B68D4
:10089C001B681A46224B1344224AA2FB03231B0952
:1008AC009A007B681A647B681F4ADA637B680222B1
:1008BC0083F821207B681B681B68FB60FB6823F4B2
:1008CC007F5323F03003FB607B685A687B689B681E
:1008DC001A437B68DB681A437B681B691A437B6885
:1008EC005B691A437B689B691A437B68DB6913431A
:1008FC00FA681343FB607B681B68FA681A607B68B4
:10090C0000229A637B68012283F821207B680022F5
:10091C0083F82020002318461437BD4680BC70474E
:10092C00F8FFFDBFCDCCCCCC0000024080B584B02C
:10093C0000AF78600023FB737B6893F82130022BA7
:10094C0005D07B6804229A630123FB7351E07B681A
:10095C001B681A687B681B6822F00E021A607B68A1
:10096C001B681A687B681B6822F001021A607B689E
:10097C001B68224A934229D07B681B68204A934209
:10098C0022D07B681B681F4A93421AD07B681B6875
:10099C001D4A934212D07B681B681C4A93420AD0B2
:1009AC007B681B681A4A934202D14FF480130EE005
:1009BC004FF080730BE04FF4803308E04FF480531A
:1009CC0005E04FF4807302E0102300E00123114A8C
:1009DC0053607B68012283F821207B68002283F816
:1009EC0020207B685B6B002B03D07B685B6B78688B
:1009FC009847FB7B18461037BD4680BD0800024067
:100A0C001C000240300002404400024058000240EA
:100A1C006C0002400000024080B584B000AF7860EA
:100A2C007B68DB6B1B68FB607B681B681B68BB60AF
:100A3C007B681B6C04229A40FB681340002B4FD040
:100A4C00BB6803F00403002B4AD07B681B681B684F
:100A5C0003F02003002B07D17B681B681A687B68A6
:100A6C001B6822F004021A607B681B68664A93427A
:100A7C0029D07B681B68654A934222D07B681B682F
:100A8C00634A93421AD07B681B68624A934212D025
:100A9C007B681B68604A93420AD07B681B685F4A7C
:100AAC00934202D14FF480030EE04FF080630BE0D1
:100ABC004FF4802308E04FF4804305E04FF480634B
:100ACC0002E0402300E00423554A53607B68DB6A54
:100ADC00002B00F094807B68DB6A786898478EE086
:100AEC007B681B6C02229A40FB681340002B56D08B
:100AFC00BB6803F00203002B51D07B681B681B689A
:100B0C0003F02003002B0BD17B681B681A687B68F1
:100B1C001B6822F00A021A607B68012283F82120EC
:100B2C007B681B68384A934229D07B681B68374A1C
:100B3C00934222D07B681B68354A93421AD07B685B
:100B4C001B68344A934212D07B681B68324A93422A
:100B5C000AD07B681B68314A934202D14FF40013D0
:100B6C000EE04FF000730BE04FF4003308E04FF44D
:100B7C00005305E04FF4007302E0202300E0022351
:100B8C00274A53607B68002283F820207B689B6A8D
:100B9C00002B34D07B689B6A786898472FE07B6881
:100BAC001B6C08229A40FB681340002B28D0BB68B2
:100BBC0003F00803002B23D07B681B681A687B6842
:100BCC001B6822F00E021A607B681A6C7B68DB6B68
:100BDC00012101FA02F25A607B6801229A637B6858
:100BEC00012283F821207B68002283F820207B6877
:100BFC001B6B002B04D07B681B6B7868984700BF7D
:100C0C0000BF1037BD4680BD080002401C000240EA
:100C1C003000024044000240580002406C00024088
:100C2C000000024080B48BB000AF786039600023C4
:100C3C007B6200233B6227E101227B6A02FA03F309
:100C4C00FB613B681B68FA691340BB61BA69FB69BD
:100C5C009A4240F016813B685B68122B34D0122B01
:100C6C000DD8022B2BD0022B04D8002B31D0012B0A
:100C7C001CD048E0032B43D0112B1BD043E0894AF6
:100C8C00934226D0874A934206D8874A934220D073
:100C9C00864A93421DD036E0854A934219D0854A44
:100CAC00934216D0844A934213D02CE03B68DB6805
:100CBC003B6228E03B68DB6804333B6223E03B6823
:100CCC00DB6808333B621EE03B68DB680C333B623D
:100CDC0019E03B689B68002B02D104233B6212E0B5
:100CEC003B689B68012B05D108233B627B68FA6942
:100CFC001A6108E008233B627B68FA695A6102E0DA
:100D0C0000233B6200BFBB69FF2B01D87B6801E06D
:100D1C007B6804337B61BB69FF2B02D87B6A9B0029
:100D2C0002E07B6A083B9B003B617B691A680F21E0
:100D3C003B6901FA03F3DB431A40396A3B6901FA58
:100D4C0003F31A437B691A603B685B6803F08053BA
:100D5C00002B00F09680594B9B69584A43F00103D5
:100D6C009361564B9B6903F00103BB60BB68544A0B
:100D7C007B6A9B08023352F82330FB607B6A03F0DA
:100D8C0003039B000F2202FA03F3DB43FA681340C0
:100D9C00FB607B684B4A934213D07B684A4A934270
:100DAC000DD07B68494A934207D07B68484A9342EE
:100DBC0001D1032306E0042304E0022302E0012313
:100DCC0000E000237A6A02F0030292009340FA6872
:100DDC001343FB603A497B6A9B080233FA6841F87B
:100DEC0023203B685B6803F48033002B06D0394B1F
:100DFC001A683849BB6913430B6006E0354B1A6817
:100E0C00BB69DB43334913400B603B685B6803F4FD
:100E1C000033002B06D02F4B5A682E49BB69134365
:100E2C004B6006E02B4B5A68BB69DB4329491340E6
:100E3C004B603B685B6803F48013002B06D0254B9A
:100E4C009A682449BB6913438B6006E0214B9A686E
:100E5C00BB69DB431F4913408B603B685B6803F441
:100E6C000013002B06D01B4BDA681A49BB691343DD
:100E7C00CB6006E0174BDA68BB69DB4315491340BE
:100E8C00CB607B6A01337B623B681A687B6A22FA0F
:100E9C0003F3002B7FF4D0AE00BF2C37BD4680BCD3
:100EAC00704700BF0000211000001110000012104C
:100EBC00000031100000321000002210001002401F
:100ECC000000014000080140000C014000100140EE
:100EDC00001401400004014080B483B000AF78607E
:100EEC000B467B8013467B707B78002B03D07A8873
:100EFC007B681A6103E07B881A047B681A6100BF67
:100F0C000C37BD4680BC704780B483B000AF7860AE
:100F1C000B467B807B68DA687B881340002B03D000
:100F2C007A887B685A6102E07A887B681A6100BF14
:100F3C000C37BD4680BC704780B586B000AF78607A
:100F4C007B68002B01D101236CE27B681B6803F0EA
:100F5C000103002B00F08780924B5B6803F00C03BD
:100F6C00042B0CD08F4B5B6803F00C03082B12D1B5
:100F7C008C4B5B6803F48033B3F5803F0BD1894B0A
:100F8C001B6803F40033002B6CD07B685B68002B70
:100F9C0068D1012346E27B685B68B3F5803F06D1DC
:100FAC00804B1B687F4A43F4803313602EE07B68D0
:100FBC005B68002B0CD17B4B1B687A4A23F4803383
:100FCC001360784B1B68774A23F4802313601DE071
:100FDC007B685B68B3F5A02F0CD1724B1B68714A10
:100FEC0043F4802313606F4B1B686E4A43F48033C9
:100FFC0013600BE06B4B1B686A4A23F4803313605D
:10100C00684B1B68674A23F4802313607B685B681A
:10101C00002B13D0FFF7ECF8386108E0FFF7E8F885
:10102C0002463B69D31A642B01D90323FAE15D4BC9
:10103C001B6803F40033002BF0D014E0FFF7D8F852
:10104C00386108E0FFF7D4F802463B69D31A642BE9
:10105C0001D90323E6E1534B1B6803F40033002B47
:10106C00F0D100E000BF7B681B6803F00203002B8B
:10107C0063D04C4B5B6803F00C03002B0BD0494B3B
:10108C005B6803F00C03082B1CD1464B5B6803F424
:10109C008033002B16D1434B1B6803F00203002B4B
:1010AC0005D07B681B69012B01D00123BAE13D4BB4
:1010BC001B6823F0F8027B685B69DB00394913433A
:1010CC000B603AE07B681B69002B20D0364B012269
:1010DC001A60FFF78DF8386108E0FFF789F80246CF
:1010EC003B69D31A022B01D903239BE12D4B1B68BF
:1010FC0003F00203002BF0D02A4B1B6823F0F802FC
:10110C007B685B69DB00274913430B6015E0264BBA
:10111C0000221A60FFF76CF8386108E0FFF768F8F6
:10112C0002463B69D31A022B01D903237AE11D4BEA
:10113C001B6803F00203002BF0D17B681B6803F0E3
:10114C000803002B3AD07B689B69002B19D0174BF6
:10115C0001221A60FFF74CF8386108E0FFF748F8F5
:10116C0002463B69D31A022B01D903235AE10D4BDA
:10117C005B6A03F00203002BF0D0012000F0DAFAD6
:10118C001CE00A4B00221A60FFF732F838610FE0BE
:10119C00FFF72EF802463B69D31A022B08D903231A
:1011AC0040E100BF00100240000042428004424275
:1011BC009E4B5B6A03F00203002BE9D17B681B6832
:1011CC0003F00403002B00F0A6800023FB75974B63
:1011DC00DB6903F08053002B0DD1944BDB69934AF0
:1011EC0043F08053D361914BDB6903F08053BB60B8
:1011FC00BB680123FB758E4B1B6803F48073002BBB
:10120C0018D18B4B1B688A4A43F480731360FEF72A
:10121C00EFFF386108E0FEF7EBFF02463B69D31A9B
:10122C00642B01D90323FDE0814B1B6803F480730D
:10123C00002BF0D07B68DB68012B06D17B4B1B6A43
:10124C007A4A43F0010313622DE07B68DB68002BC4
:10125C000CD1764B1B6A754A23F001031362734B56
:10126C001B6A724A23F0040313621CE07B68DB6880
:10127C00052B0CD16D4B1B6A6C4A43F004031362B3
:10128C006A4B1B6A694A43F0010313620BE0674B1C
:10129C001B6A664A23F001031362644B1B6A634AA0
:1012AC0023F0040313627B68DB68002B15D0FEF778
:1012BC009FFF38610AE0FEF79BFF02463B69D31A99
:1012CC0041F28832934201D90323ABE0574B1B6A9E
:1012DC0003F00203002BEED014E0FEF789FF386117
:1012EC000AE0FEF785FF02463B69D31A41F28832C9
:1012FC00934201D9032395E04C4B1B6A03F0020384
:10130C00002BEED1FB7D012B05D1484BDB69474A05
:10131C0023F08053D3617B68DB69002B00F0818064
:10132C00424B5B6803F00C03082B61D07B68DB69D4
:10133C00022B46D13F4B00221A60FEF759FF386151
:10134C0008E0FEF755FF02463B69D31A022B01D980
:10135C00032367E0354B1B6803F00073002BF0D1BF
:10136C007B681B6AB3F5803F08D1304B5B6823F474
:10137C0000327B689B682D4913434B602B4B5B6899
:10138C0023F474127B68196A7B685B6A0B432749E8
:10139C0013434B60274B01221A60FEF729FF38617B
:1013AC0008E0FEF725FF02463B69D31A022B01D950
:1013BC00032337E01D4B1B6803F00073002BF0D0A8
:1013CC002FE01C4B00221A60FEF712FF386108E078
:1013DC00FEF70EFF02463B69D31A022B01D90323F9
:1013EC0020E0124B1B6803F00073002BF0D118E0C7
:1013FC007B68DB69012B01D1012313E00B4B5B688C
:10140C00FB60FB6803F480327B681B6A9A4206D14E
:10141C00FB6803F470127B685B6A9A4201D001236B
:10142C0000E0002318461837BD4680BD001002406E
:10143C00007000406000424280B584B000AF78601C
:10144C0039607B68002B01D10123D0E06A4B1B680B
:10145C0003F007033A689A4210D9674B1B6823F0D4
:10146C00070265493B6813430B60634B1B6803F031
:10147C0007033A689A4201D00123B8E07B681B68E5
:10148C0003F00203002B20D07B681B6803F00403DD
:10149C00002B05D0594B5B68584A43F4E06353600A
:1014AC007B681B6803F00803002B05D0534B5B686B
:1014BC00524A43F460535360504B5B6823F0F00284
:1014CC007B689B684D4913434B607B681B6803F03A
:1014DC000103002B40D07B685B68012B07D1474B85
:1014EC001B6803F40033002B15D101237FE07B68CC
:1014FC005B68022B07D1414B1B6803F00073002B78
:10150C0009D1012373E03D4B1B6803F00203002B50
:10151C0001D101236BE0394B5B6823F003027B683C
:10152C005B68364913434B60FEF762FEF8600AE0D5
:10153C00FEF75EFE0246FB68D31A41F288329342F4
:10154C0001D9032353E02D4B5B6803F00C027B683D
:10155C005B689B009A42EBD1274B1B6803F0070397
:10156C003A689A4210D2244B1B6823F00702224996
:10157C003B6813430B60204B1B6803F007033A686E
:10158C009A4201D0012332E07B681B6803F004030C
:10159C00002B08D0194B5B6823F4E0627B68DB6896
:1015AC00164913434B607B681B6803F00803002B40
:1015BC0009D0124B5B6823F460527B681B69DB001B
:1015CC000E4913434B6000F021F801460B4B5B684E
:1015DC001B0903F00F030A4AD35C21FA03F3094AEF
:1015EC001360094B1B681846FEF7C0FD0023184614
:1015FC001037BD4680BD00BF0020024000100240E5
:10160C00B0380008080000200000002090B48AB018
:10161C0000AF2A4B3C1D0FCB84E80F00284B1B88D6
:10162C003B800023FB610023BB6100237B62002312
:10163C007B6100233B62234B5B68FB61FB6903F01E
:10164C000C03042B02D0082B03D02DE01E4B3B6265
:10165C002DE0FB699B0C03F00F0307F128021344E8
:10166C0013F8243C7B61FB6903F48033002B13D00B
:10167C00144B5B685B0C03F0010307F12802134465
:10168C0013F8283CBB617B690F4A02FB03F2BB6970
:10169C00B2FBF3F37B6204E07B690C4A02FB03F3BD
:1016AC007B627B6A3B6202E0074B3B6200BF3B6A9A
:1016BC0018462837BD4690BC704700BF9C380008C0
:1016CC00AC3800080010024000127A0000093D00FE
:1016DC0080B400AF024B1B681846BD4680BC7047F7
:1016EC000800002080B500AFFFF7F2FF0146054B64
:1016FC005B681B0A03F00703034AD35C21FA03F36C
:10170C00184680BD00100240C038000880B500AFFC
:10171C00FFF7DEFF0146054B5B68DB0A03F00703AE
:10172C00034AD35C21FA03F3184680BD0010024033
:10173C00C038000880B485B000AF78600A4B1B68D5
:10174C000A4AA2FB03235B0A7A6802FB03F3FB60E1
:10175C0000BFFB685A1EFA60002BF9D100BF14378A
:10176C00BD4680BC704700BF08000020D34D6210FE
:10177C0080B586B000AF786000233B610023FB602E
:10178C007B681B6803F00103002B7DD00023FB75E5
:10179C004F4BDB6903F08053002B0DD14C4BDB69B5
:1017AC004B4A43F08053D361494BDB6903F08053C0
:1017BC00BB60BB680123FB75464B1B6803F480734D
:1017CC00002B18D1434B1B68424A43F480731360BF
:1017DC00FEF70EFD386108E0FEF70AFD02463B6994
:1017EC00D31A642B01D903236DE03A4B1B6803F425
:1017FC008073002BF0D0364B1B6A03F44073FB60F4
:10180C00FB68002B2ED07B685B6803F44073FA688E
:10181C009A4227D02E4B1B6A23F44073FB602E4B4D
:10182C0001221A602C4B00221A60294AFB681362B1
:10183C00FB6803F00103002B14D0FEF7D9FC3861D0
:10184C000AE0FEF7D5FC02463B69D31A41F2883216
:10185C00934201D9032336E01D4B1B6A03F00203AC
:10186C00002BEED01A4B1B6A23F440727B685B682A
:10187C00174913430B62FB7D012B05D1144BDB691C
:10188C00134A23F08053D3617B681B6803F0020377
:10189C00002B08D00E4B5B6823F440427B689B689E
:1018AC000B4913434B607B681B6803F01003002B40
:1018BC0008D0074B5B6823F480027B68DB68044923
:1018CC0013434B60002318461837BD4680BD00BF3C
:1018DC0000100240007000404004424280B582B0CB
:1018EC0000AF78607B68002B01D101231DE07B6881
:1018FC0093F83D30DBB2002B06D17B68002283F8D5
:10190C003C20786801F036FE7B68022283F83D208B
:10191C007B681A687B6804331946104600F03AFA63
:10192C007B68012283F83D20002318460837BD460A
:10193C0080BD80B582B000AF78607B68002B01D190
:10194C0001231DE07B6893F83D30DBB2002B06D100
:10195C007B68002283F83C20786800F015F87B68DF
:10196C00022283F83D207B681A687B680433194691
:10197C00104600F00FFA7B68012283F83D2000230B
:10198C0018460837BD4680BD80B483B000AF786080
:10199C0000BF0C37BD4680BC7047000080B584B0DA
:1019AC0000AF786039607B681B6801223968184683
:1019BC0000F070FC7B681B68104A934207D17B686F
:1019CC001B685A6C7B681B6842F400425A647B6843
:1019DC001B689B6803F00703FB60FB68062B07D0B2
:1019EC007B681B681A687B681B6842F001021A60EE
:1019FC00002318461037BD4680BD00BF002C0140A7
:101A0C0080B582B000AF786039607B681B680022BB
:101A1C003968184600F03EFC7B681B681D4A9342EF
:101A2C0017D17B681B681A6A41F211131340002B03
:101A3C000FD17B681B681A6A40F244431340002B99
:101A4C0007D17B681B685A6C7B681B6822F40042C8
:101A5C005A647B681B681A6A41F211131340002BFD
:101A6C000FD17B681B681A6A40F244431340002B69
:101A7C0007D17B681B681A687B681B6822F001021F
:101A8C001A607B68012283F83D2000231846083732
:101A9C00BD4680BD002C014080B584B000AFF8601D
:101AAC00B9607A60FB6893F83C30012B01D10223BA
:101ABC00B4E0FB68012283F83C20FB68022283F827
:101ACC003D207B680C2B00F29F8001A252F823F082
:101ADC00111B0008151C0008151C0008151C00081B
:101AEC00511B0008151C0008151C0008151C0008CB
:101AFC00931B0008151C0008151C0008151C000879
:101B0C00D31B0008FB681B68B968184600F0A4F9E1
:101B1C00FB681B689A69FB681B6842F008029A61B3
:101B2C00FB681B689A69FB681B6822F004029A61C7
:101B3C00FB681B689969BB681A69FB681B680A43D8
:101B4C009A6162E0FB681B68B968184600F0EAF914
:101B5C00FB681B689A69FB681B6842F400629A6117
:101B6C00FB681B689A69FB681B6822F480629A61A7
:101B7C00FB681B689969BB681B691A02FB681B68C8
:101B8C000A439A6141E0FB681B68B968184600F08B
:101B9C0033FAFB681B68DA69FB681B6842F00802C1
:101BAC00DA61FB681B68DA69FB681B6822F00402C7
:101BBC00DA61FB681B68D969BB681A69FB681B682A
:101BCC000A43DA6121E0FB681B68B968184600F02B
:101BDC007DFAFB681B68DA69FB681B6842F40062DB
:101BEC00DA61FB681B68DA69FB681B6822F48062A7
:101BFC00DA61FB681B68D969BB681B691A02FB6850
:101C0C001B680A43DA6100E000BFFB68012283F81D
:101C1C003D20FB68002283F83C2000231846103737
:101C2C00BD4680BD80B584B000AF786039607B68FC
:101C3C0093F83C30012B01D10223A6E07B680122F2
:101C4C0083F83C207B68022283F83D207B681B686C
:101C5C009B68FB60FB6823F07703FB60FB6823F455
:101C6C007F43FB607B681B68FA689A603B681B6863
:101C7C00402B67D0402B0BD8102B73D0102B02D8D5
:101C8C00002B6FD078E0202B6CD0302B6AD073E017
:101C9C00702B0DD0702B04D8502B33D0602B41D02F
:101CAC006AE0B3F5805F66D0B3F5005F17D063E0F0
:101CBC007B6818683B6899683B685A683B68DB68C6
:101CCC0000F0C9FA7B681B689B68FB60FB6843F0FB
:101CDC007703FB607B681B68FA689A604CE07B6852
:101CEC0018683B6899683B685A683B68DB6800F089
:101CFC00B2FA7B681B689A687B681B6842F4804266
:101D0C009A6039E07B6818683B6859683B68DB6807
:101D1C001A4600F029FA7B681B685021184600F01F
:101D2C0080FA29E07B6818683B6859683B68DB6877
:101D3C001A4600F047FA7B681B686021184600F0D1
:101D4C0070FA19E07B6818683B6859683B68DB6877
:101D5C001A4600F009FA7B681B684021184600F00F
:101D6C0060FA09E07B681A683B681B6819461046E4
:101D7C0000F057FA00E000BF7B68012283F83D2099
:101D8C007B68002283F83C20002318461037BD46A0
:101D9C0080BD000080B485B000AF786039607B688E
:101DAC001B68FB607B68294A93420BD07B68B3F1BC
:101DBC00804F07D07B68264A934203D07B68254A24
:101DCC00934208D1FB6823F07003FB603B685B68AF
:101DDC00FA681343FB607B681C4A93420BD07B6808
:101DEC00B3F1804F07D07B68194A934203D07B68CC
:101DFC00184A934208D1FB6823F44073FB603B689C
:101E0C00DB68FA681343FB60FB6823F080023B68D5
:101E1C005B691343FB607B68FA681A603B689A68DD
:101E2C007B68DA623B681A687B689A627B68074A4F
:101E3C00934203D13B681A697B681A637B68012261
:101E4C005A6100BF1437BD4680BC7047002C01405E
:101E5C00000400400008004080B487B000AF7860F8
:101E6C0039607B681B6A23F001027B681A627B680D
:101E7C001B6A7B617B685B683B617B689B69FB6071
:101E8C00FB6823F07003FB60FB6823F00303FB602B
:101E9C003B681B68FA681343FB607B6923F0020301
:101EAC007B613B689B687A6913437B617B681C4A46
:101EBC0093420CD17B6923F008037B613B68DB68A0
:101ECC007A6913437B617B6923F004037B617B6834
:101EDC00134A934211D13B6923F480733B613B69F4
:101EEC0023F400733B613B685B693A6913433B61C4
:101EFC003B689B693A6913433B617B683A695A605A
:101F0C007B68FA689A613B685A687B685A637B689D
:101F1C007A691A6200BF1C37BD4680BC704700BF8F
:101F2C00002C014080B487B000AF786039607B68CA
:101F3C001B6A23F010027B681A627B681B6A7B6148
:101F4C007B685B683B617B689B69FB60FB6823F487
:101F5C00E043FB60FB6823F44073FB603B681B6849
:101F6C001B02FA681343FB607B6923F020037B613F
:101F7C003B689B681B017A6913437B617B681D4A34
:101F8C0093420DD17B6923F080037B613B68DB6856
:101F9C001B017A6913437B617B6923F040037B61EE
:101FAC007B68144A934213D13B6923F480633B61F1
:101FBC003B6923F400633B613B685B699B003A69B6
:101FCC0013433B613B689B699B003A6913433B613C
:101FDC007B683A695A607B68FA689A613B685A6810
:101FEC007B689A637B687A691A6200BF1C37BD46AE
:101FFC0080BC7047002C014080B487B000AF786083
:10200C0039607B681B6A23F480727B681A627B6878
:10201C001B6A7B617B685B683B617B68DB69FB608F
:10202C00FB6823F07003FB60FB6823F00303FB6089
:10203C003B681B68FA681343FB607B6923F40073ED
:10204C007B613B689B681B027A6913437B617B68ED
:10205C001D4A93420DD17B6923F400637B613B687D
:10206C00DB681B027A6913437B617B6923F4806311
:10207C007B617B68144A934213D13B6923F48053F0
:10208C003B613B6923F400533B613B685B691B017B
:10209C003A6913433B613B689B691B013A691343E3
:1020AC003B617B683A695A607B68FA68DA613B6825
:1020BC005A687B68DA637B687A691A6200BF1C37DE
:1020CC00BD4680BC704700BF002C014080B487B077
:1020DC0000AF786039607B681B6A23F480527B68A0
:1020EC001A627B681B6A3B617B685B687B617B68FF
:1020FC00DB69FB60FB6823F4E043FB60FB6823F4C3
:10210C004073FB603B681B681B02FA681343FB605F
:10211C003B6923F400533B613B689B681B033A69A2
:10212C0013433B617B680F4A934209D17B6923F4CB
:10213C0080437B613B685B699B017A6913437B61DC
:10214C007B687A695A607B68FA68DA613B685A681E
:10215C007B681A647B683A691A6200BF1C37BD46FB
:10216C0080BC7047002C014080B487B000AFF86091
:10217C00B9607A60FB681B6A7B61FB681B6A23F0A1
:10218C000102FB681A62FB689B693B613B6923F0A7
:10219C00F0033B617B681B013A6913433B617B692C
:1021AC0023F00A037B617A69BB6813437B61FB688C
:1021BC003A699A61FB687A691A6200BF1C37BD469E
:1021CC0080BC704780B487B000AFF860B9607A60AB
:1021DC00FB681B6A23F01002FB681A62FB689B69A0
:1021EC007B61FB681B6A3B617B6923F470437B61F9
:1021FC007B681B037A6913437B613B6923F0A00363
:10220C003B61BB681B013A6913433B61FB687A690C
:10221C009A61FB683A691A6200BF1C37BD4680BCE4
:10222C00704780B485B000AF786039607B689B687C
:10223C00FB60FB6823F07003FB603A68FB68134398
:10224C0043F00703FB607B68FA689A6000BF1437A1
:10225C00BD4680BC704780B487B000AFF860B960F1
:10226C007A603B60FB689B687B617B6923F47F43EE
:10227C007B613B681A027B681A43BB6813437A691B
:10228C0013437B61FB687A699A6000BF1C37BD46BB
:10229C0080BC704780B487B000AFF860B9607A60DA
:1022AC00BB6803F01F03012202FA03F37B61FB6896
:1022BC001A6A7B69DB431A40FB681A62FB681A6A6C
:1022CC00BB6803F01F03796801FA03F31A43FB6838
:1022DC001A6200BF1C37BD4680BC704780B584B005
:1022EC0000AF786039607B681B6804223968184637
:1022FC0000F0F4F87B681B685A6C7B681B6842F42E
:10230C0000425A647B681B689B6803F00703FB6000
:10231C00FB68062B07D07B681B681A687B681B68F8
:10232C0042F001021A60002318461037BD4680BDEA
:10233C0080B582B000AF786039607B681B68002282
:10234C003968184600F0CAF87B681B681A6A41F2B3
:10235C0011131340002B0FD17B681B681A6A40F2D3
:10236C0044431340002B07D17B681B685A6C7B6875
:10237C001B6822F400425A647B681B681A6A41F29B
:10238C0011131340002B0FD17B681B681A6A40F2A3
:10239C0044431340002B07D17B681B681A687B6889
:1023AC001B6822F001021A60002318460837BD464C
:1023BC0080BD80B485B000AF786039607B6893F8DD
:1023CC003C30012B01D1022332E07B68012283F8DF
:1023DC003C207B68022283F83D207B681B685B688D
:1023EC00FB607B681B689B68BB60FB6823F0700319
:1023FC00FB603B681B68FA681343FB60BB6823F007
:10240C008003BB603B685B68BA681343BB607B6846
:10241C001B68FA685A607B681B68BA689A607B68AC
:10242C00012283F83D207B68002283F83C200023A6
:10243C0018461437BD4680BC704780B485B000AFD9
:10244C00786039600023FB607B6893F83C30012B8B
:10245C0001D102233DE07B68012283F83C20FB681C
:10246C0023F0FF023B68DB681343FB60FB6823F43B
:10247C0040723B689B681343FB60FB6823F48062EB
:10248C003B685B681343FB60FB6823F400623B68AA
:10249C001B681343FB60FB6823F480523B681B6989
:1024AC001343FB60FB6823F400523B685B691343E6
:1024BC00FB60FB6823F480423B68DB691343FB60E1
:1024CC007B681B68FA685A647B68002283F83C209E
:1024DC00002318461437BD4680BC704780B487B0C3
:1024EC0000AFF860B9607A60BB6803F01F03042288
:1024FC0002FA03F37B61FB681A6A7B69DB431A40BF
:10250C00FB681A62FB681A6ABB6803F01F037968E0
:10251C0001FA03F31A43FB681A6200BF1C37BD466D
:10252C0080BC704780B582B000AF78607B68002BB0
:10253C0001D101233FE07B6893F83930DBB2002BEB
:10254C0006D17B68002283F83820786801F07EF889
:10255C007B68242283F839207B681B68DA687B68E7
:10256C001B6822F40052DA60786800F05FFA7B682E
:10257C001B681A697B681B6822F490421A617B689D
:10258C001B685A697B681B6822F02A025A617B68B7
:10259C001B68DA687B681B6842F40052DA607B685F
:1025AC000022DA637B68202283F839207B682022A2
:1025BC0083F83A20002318460837BD4680BD00003A
:1025CC0080B588B000AF78607B681B681B68FB61C6
:1025DC007B681B68DB68BB617B681B685B697B6124
:1025EC0000233B610023FB60FB6903F00F033B619D
:1025FC003B69002B0DD1FB6903F02003002B08D0A5
:10260C00BB6903F02003002B03D0786800F08DF930
:10261C00CCE03B69002B00F0AB807B6903F001033D
:10262C00002B05D1BB6903F49073002B00F0A08044
:10263C00FB6903F00103002B0AD0BB6903F4807320
:10264C00002B05D07B68DB6B43F001027B68DA63FF
:10265C00FB6903F00403002B0AD07B6903F0010330
:10266C00002B05D07B68DB6B43F002027B68DA63DE
:10267C00FB6903F00203002B0AD07B6903F0010312
:10268C00002B05D07B68DB6B43F004027B68DA63BC
:10269C00FB6903F00803002B0AD07B6903F00103EC
:1026AC00002B05D07B68DB6B43F008027B68DA6398
:1026BC007B68DB6B002B78D0FB6903F02003002BCD
:1026CC0007D0BB6903F02003002B02D0786800F020
:1026DC002CF97B681B685B6903F04003002B14BF6B
:1026EC0001230023DBB2FB607B68DB6B03F0080388
:1026FC00002B02D1FB68002B31D0786800F077F802
:10270C007B681B685B6903F04003002B23D07B685C
:10271C001B685A697B681B6822F040025A617B680F
:10272C005B6B002B13D07B685B6B224A5A637B6814
:10273C005B6B1846FEF7FAF80346002B16D07B6845
:10274C005B6B5B6B7A68526B104698470EE078684F
:10275C0000F044F80AE0786800F040F806E0786889
:10276C0000F03CF87B680022DA631EE000BF1CE03E
:10277C00FB6903F08003002B08D0BB6903F08003D6
:10278C00002B03D0786800F063F80FE0FB6903F0CE
:10279C004003002B0AD0BB6903F04003002B05D08B
:1027AC00786800F0AAF800BF00E000BF2037BD46F3
:1027BC0080BD00BF3528000880B483B000AF7860BE
:1027CC0000BF0C37BD4680BC704780B483B000AFEF
:1027DC00786000BF0C37BD4680BC704780B483B0B6
:1027EC0000AF786000BF0C37BD4680BC704780B42A
:1027FC0083B000AF78607B681B68DA687B681B6805
:10280C0022F49072DA607B681B685A697B681B68DB
:10281C0022F001025A617B68202283F83A2000BF23
:10282C000C37BD4680BC704780B584B000AF786073
:10283C007B685B6AFB60FB680022DA85FB68002220
:10284C00DA84F868FFF7CAFF00BF1037BD4680BDB9
:10285C0080B485B000AF78607B6893F83930DBB218
:10286C00212B44D17B689B68B3F5805F1AD17B68C0
:10287C001B6AFB60FB681B881A467B681B68C2F3EB
:10288C0008025A607B681B69002B05D17B681B6AA8
:10289C009A1C7B681A620EE07B681B6A5A1C7B6868
:1028AC001A6208E07B681B6A591C7A6811621A78F4
:1028BC007B681B685A607B68DB8C9BB2013B9BB2CC
:1028CC007A681946D184002B0FD17B681B68DA68B3
:1028DC007B681B6822F08002DA607B681B68DA6810
:1028EC007B681B6842F04002DA60002300E00223A0
:1028FC0018461437BD4680BC704780B582B000AF17
:10290C0078607B681B68DA687B681B6822F0400281
:10291C00DA607B68202283F839207868FFF74CFF57
:10292C00002318460837BD4680BD80B584B000AF83
:10293C0078607B6893F83A30DBB2222B71D17B68DC
:10294C009B68B3F5805F23D17B689B6AFB607B68D7
:10295C001B69002B0ED17B681B685B689BB2C3F3B1
:10296C0008039AB2FB681A807B689B6A9A1C7B6886
:10297C009A6229E07B681B685B689BB2DBB29AB2F7
:10298C00FB681A807B689B6A5A1C7B689A621BE006
:10299C007B681B69002B0AD17B681B6858687B68B5
:1029AC009B6A591C7A689162C2B21A700CE07B68FF
:1029BC001B685B68DAB27B689B6A581C7968886212
:1029CC0002F07F02D2B21A707B68DB8D9BB2013BA6
:1029DC009BB27A681946D185002B20D17B681B6885
:1029EC00DA687B681B6822F02002DA607B681B685F
:1029FC00DA687B681B6822F48072DA607B681B687B
:102A0C005A697B681B6822F001025A617B6820229C
:102A1C0083F83A207868FFF7D8FE002302E0002301
:102A2C0000E0022318461037BD4680BD80B584B047
:102A3C0000AF78607B681B681B6923F440517B688E
:102A4C00DA687B681B680A431A617B689A687B6842
:102A5C001B691A437B685B691343FB607B681B68CB
:102A6C00DB6823F4B05323F00C037A681268F9681E
:102A7C000B43D3607B681B685B6923F440717B68F4
:102A8C009A697B681B680A435A617B681B68524AC7
:102A9C0093424ED1FEF73AFEB860BA6813469B00DB
:102AAC0013449A001A447B685B689B00B2FBF3F3F7
:102ABC004A4AA2FB03235B091901BA6813469B001F
:102ACC0013449A001A447B685B689B00B2FBF3F2D8
:102ADC00424BA3FB02035B09642000FB03F3D31AF4
:102AEC001B0132333D4AA2FB03235B0903F0F003C5
:102AFC001944BA6813469B0013449A001A447B6825
:102B0C005B689B00B2FBF3F2344BA3FB02035B0943
:102B1C00642000FB03F3D31A1B0132332F4AA2FBB0
:102B2C0003235B0903F00F027B681B680A449A605D
:102B3C004DE0FEF7D7FDB860BA6813469B0013440E
:102B4C009A001A447B685B689B00B2FBF3F3234A40
:102B5C00A2FB03235B091901BA6813469B001344BB
:102B6C009A001A447B685B689B00B2FBF3F21B4B28
:102B7C00A3FB02035B09642000FB03F3D31A1B01C4
:102B8C003233164AA2FB03235B0903F0F00319440A
:102B9C00BA6813469B0013449A001A447B685B681E
:102BAC009B00B2FBF3F20D4BA3FB02035B09642009
:102BBC0000FB03F3D31A1B013233084AA2FB032395
:102BCC005B0903F00F027B681B680A449A6000BF24
:102BDC001037BD4680BD00BF003801401F85EB514A
:102BEC0080B582B000AF03463960FB71FB79022BD4
:102BFC0011D0032B1CD0012B00D026E0154B1B68E9
:102C0C003A685A6300211348FEF7C8FE00211148A8
:102C1C00FFF764FB19E00F4B1B683A689A630421B9
:102C2C000C48FEF7BBFE04210A48FFF757FB0CE0EB
:102C3C00084B1B683A68DA6308210648FEF7AEFEBB
:102C4C0008210448FFF74AFB00BF00BF0837BD4608
:102C5C0080BD00BFA000002080B582B000AF03464D
:102C6C00FB71FB79022B11D0032B1CD0012B00D054
:102C7C0026E0154B1B6800225A6300211248FEF710
:102C8C008DFE00211048FFF729FB19E00E4B1B6845
:102C9C0000229A6304210C48FEF780FE04210A48A6
:102CAC00FFF71CFB0CE0084B1B680022DA630821C1
:102CBC000548FEF773FE08210348FFF70FFB00BF22
:102CCC0000BF0837BD4680BDA000002080B582B093
:102CDC0000AF0346FB71FB79022B11D0032B1CD0E8
:102CEC00012B00D026E000211448FEF789FE0021BC
:102CFC001248FFF71DFB114B1B6800225A6319E0A9
:102D0C0004210E48FEF77CFE04210C48FFF710FB53
:102D1C000A4B1B6800229A630CE008210748FEF757
:102D2C006FFE08210548FFF703FB044B1B680022CC
:102D3C00DA6300BF00BF0837BD4680BDA00000208D
:102D4C0080B582B000AF396011461A460346FB715C
:102D5C000B46BB7113467B717B7983F00103DBB2AD
:102D6C00002B09D00120FFF7B1FF0220FFF7AEFFC7
:102D7C000320FFF7ABFFC5E0FB79013B052B00F20D
:102D8C00B78001A252F823F0AD2D0008E52D000804
:102D9C001D2E0008552E00088D2E0008C52E00088B
:102DAC00BB7983F00103DBB2002B0AD00120FFF7C3
:102DBC008DFF39680220FFF713FF0320FFF74CFF4C
:102DCC00A0E00120FFF782FF39680320FFF708FF1E
:102DDC000220FFF741FF95E0BB7983F00103DBB2E2
:102DEC00002B0AD00320FFF771FF39680220FFF790
:102DFC00F7FE0120FFF730FF84E00320FFF766FFAA
:102E0C0039680120FFF7ECFE0220FFF725FF79E07F
:102E1C00BB7983F00103DBB2002B0AD00220FFF751
:102E2C0055FF39680320FFF7DBFE0120FFF714FF85
:102E3C0068E00220FFF74AFF39680120FFF7D0FE57
:102E4C000320FFF709FF5DE0BB7983F00103DBB2E0
:102E5C00002B0AD00120FFF739FF39680320FFF758
:102E6C00BFFE0220FFF7F8FE4CE00120FFF72EFF1B
:102E7C0039680220FFF7B4FE0320FFF7EDFE41E0B6
:102E8C00BB7983F00103DBB2002B0AD00320FFF7E0
:102E9C001DFF39680120FFF7A3FE0220FFF7DCFEBF
:102EAC0030E00320FFF712FF39680220FFF798FE8D
:102EBC000120FFF7D1FE25E0BB7983F00103DBB2E3
:102ECC00002B0AD00220FFF701FF39680120FFF721
:102EDC0087FE0320FFF7C0FE14E00220FFF7F6FE8A
:102EEC0039680320FFF77CFE0120FFF7B5FE09E0EF
:102EFC000120FFF7EBFE0220FFF7E8FE0320FFF7AF
:102F0C00E5FE00BF0837BD4680BD00BF80B582B06E
:102F1C0000AFFDF715F900F031F800F0D7F900F02B
:102F2C00B7F900F083F800F089F900F0CDF8012230
:102F3C0004211048FDF7D0FF01237B604FF4FA60A9
:102F4C00FDF760F90123002264210120FFF7F8FE50
:102F5C007B68062B03DC7B6801337B6001E001237B
:102F6C007B604FF400510448FDF7CEFFC820FDF7FD
:102F7C0049F9E7E7000C01400010014080B594B01E
:102F8C0000AF07F1280328220021184600F06CFC42
:102F9C0007F1140300221A605A609A60DA601A6111
:102FAC003B1D00221A605A609A60DA600223BB62F1
:102FBC000123BB631023FB6302237B640023BB64EC
:102FCC004FF46013FB6407F128031846FDF7B4FFB8
:102FDC000346002B01D000F02DFA0F237B61022356
:102FEC00BB610023FB614FF4A0633B624FF4A06311
:102FFC007B6207F1140302211846FEF71DFA034603
:10300C00002B01D000F016FA02237B604FF44043F2
:10301C00FB603B1D1846FEF7ABFB0346002B01D0B3
:10302C0000F008FA00BF5037BD4680BD80B584B0B3
:10303C0000AF3B1D00221A605A609A60204B214A57
:10304C001A601F4B4FF480729A601D4B01221A7349
:10305C001B4B00221A751A4B4FF46022DA61184B85
:10306C0000225A60164B02221A611548FDF7ECF843
:10307C000346002B01D000F0DDF904237B60012313
:10308C00BB600623FB603B1D19460D48FDF7B4F9E8
:10309C000346002B01D000F0CDF906237B60022300
:1030AC00BB603B1D19460648FDF7A6F90346002BED
:1030BC0001D000F0BFF900BF1037BD4680BD00BF86
:1030CC002C0000200024014080B596B000AF07F121
:1030DC00480300221A605A609A60DA6007F14003D4
:1030EC0000221A605A6007F1240300221A605A6009
:1030FC009A60DA601A615A619A613B1D20220021A4
:10310C00184600F0B1FB4B4B4B4A1A60494B00225E
:10311C005A60484B00229A60464B4FF4FA62DA60D0
:10312C00444B00221A61434B00225A61414B00224E
:10313C009A614048FEF7D2FB0346002B01D000F009
:10314C0079F94FF48053BB6407F1480319463948A9
:10315C00FEF768FD0346002B01D000F06BF93548F3
:10316C00FEF7E7FB0346002B01D000F063F90023C8
:10317C003B6400237B6407F1400319462D48FFF79D
:10318C0018F90346002B01D000F054F960237B6240
:10319C000023BB620023FB6208233B6300237B6399
:1031AC000023BB634FF40073FB6307F1240300227D
:1031BC0019462048FEF770FC0346002B01D000F0A6
:1031CC0039F907F12403042219461A48FEF764FC66
:1031DC000346002B01D000F02DF907F1240308223F
:1031EC0019461448FEF758FC0346002B01D000F09A
:1031FC0021F900237B600023BB600023FB602023AC
:10320C003B6100237B614FF40053BB6100233B62A5
:10321C003B1D19460748FFF710F90346002B01D058
:10322C0000F008F9034800F0C3F900BF5837BD4659
:10323C0080BD00BFA0000020002C014080B500AF75
:10324C00114B124A1A60104B4FF416525A600E4B27
:10325C0000229A600C4B0022DA600B4B00221A61A0
:10326C00094B0C225A61084B00229A61064B002232
:10327C00DA610548FFF756F90346002B01D000F040
:10328C00D9F800BF80BD00BFE00000200044004022
:10329C0080B582B000AF0C4B5B690B4A43F0010365
:1032AC005361094B5B6903F001037B607B6800226F
:1032BC0000210B20FDF7A9FA0B20FDF7C2FA00BF85
:1032CC000837BD4680BD00BF0010024080B58AB0F3
:1032DC0000AF07F1140300221A605A609A60DA609A
:1032EC004F4B9B694E4A43F0100393614C4B9B69C7
:1032FC0003F010033B613B69494B9B69484A43F01F
:10330C0020039361464B9B6903F02003FB60FB6831
:10331C00434B9B69424A43F004039361404B9B69C6
:10332C0003F00403BB60BB683D4B9B693C4A43F014
:10333C00080393613A4B9B6903F008037B607B683D
:10334C0000224FF400513748FDF7C6FD002240F231
:10335C0004413548FDF7C0FD4FF400537B61012358
:10336C00BB610023FB6102233B6207F11403194686
:10337C002C48FDF757FC4FF440437B610023BB61A5
:10338C000023FB6107F1140319462648FDF74AFC9C
:10339C0002237B610023BB610023FB6107F1140353
:1033AC0019462248FDF73EFC04237B610123BB61D7
:1033BC000023FB6101233B6207F1140319461A48F1
:1033CC00FDF730FC4FF480637B610123BB6100236C
:1033DC00FB6102233B6207F1140319461248FDF707
:1033EC0021FC4FF400637B610023BB610023FB6174
:1033FC0007F1140319460C48FDF714FC0C4B5B68E1
:10340C007B627B6A43F0E0637B627B6A43F400433C
:10341C007B62074A7B6A536000BF2837BD4680BD7C
:10342C000010024000100140000C0140001401404B
:10343C000000014080B400AF00BFBD4680BC7047A7
:10344C0080B485B000AF154B9B69144A43F001035F
:10345C009361124B9B6903F00103BB60BB680F4B7C
:10346C00DB690E4A43F08053D3610C4BDB6903F0EC
:10347C0080537B607B680A4B5B68FB60FB6823F0C6
:10348C00E063FB60FB6843F00073FB60044AFB687D
:10349C00536000BF1437BD4680BC7047001002401B
:1034AC000000014080B588B000AF786007F11003D0
:1034BC0000221A605A609A60DA607B681B68284A9E
:1034CC00934249D1274B9B69264A43F4007393617D
:1034DC00244B9B6903F40073FB60FB68214B9B69D5
:1034EC00204A43F0040393611E4B9B6903F00403D1
:1034FC00BB60BB6850233B6103237B6107F1100366
:10350C0019461948FDF78EFB184B194A1A60174BD0
:10351C0000225A60154B00229A60144B8022DA600C
:10352C00124B4FF400721A61104B4FF400625A6147
:10353C000E4B20229A610D4B0022DA610B48FDF7ED
:10354C009BF90346002B01D0FFF774FF7B68074AF9
:10355C001A62064A7B68536200BF2037BD4680BDA5
:10356C000024014000100240000801405C000020D3
:10357C000800024080B485B000AF78607B681B689F
:10358C00094A93420BD1094B9B69084A43F40063E7
:10359C009361064B9B6903F40063FB60FB6800BFFF
:1035AC001437BD4680BC7047002C0140001002400F
:1035BC0080B588B000AF786007F1100300221A6064
:1035CC005A609A60DA607B681B681C4A934231D15E
:1035DC001B4B9B691A4A43F008039361184B9B6978
:1035EC0003F00803FB60FB68154B9B69144A43F01E
:1035FC0004039361124B9B6903F00403BB60BB682B
:10360C004FF460433B6102237B610323FB6107F1B1
:10361C00100319460B48FDF705FB4FF4E0633B61C3
:10362C0002237B610323FB6107F110031946064853
:10363C00FDF7F8FA00BF2037BD4680BD002C0140D5
:10364C0000100240000C01400008014080B588B019
:10365C0000AF786007F1100300221A605A609A607C
:10366C00DA607B681B681F4A934237D11E4BDB69BB
:10367C001D4A43F40033D3611B4BDB6903F4003365
:10368C00FB60FB68184B9B69174A43F0040393617A
:10369C00154B9B6903F00403BB60BB6804233B61BF
:1036AC0002237B610323FB6107F1100319460F48CA
:1036BC00FDF7B8FA08233B6100237B610023BB6153
:1036CC0007F1100319460948FDF7ACFA0022002156
:1036DC002620FDF79AF82620FDF7B3F800BF203717
:1036EC00BD4680BD0044004000100240000801406F
:1036FC0080B400AF00BFBD4680BC704780B400AF43
:10370C00FEE780B400AFFEE780B400AFFEE780B404
:10371C0000AFFEE780B400AF00BFBD4680BC704771
:10372C0080B400AF00BFBD4680BC704780B400AF12
:10373C0000BFBD4680BC704780B500AFFCF746FDAE
:10374C0000BF80BD80B500AF0248FDF765F900BF32
:10375C0080BD00BF5C00002080B500AF0248FEF7C2
:10376C002FFF00BF80BD00BFE000002080B400AF81
:10377C00154B1B68144A43F001031360124B5A6833
:10378C001149124B13404B600F4B1B680E4A23F030
:10379C00847323F4803313600B4B1B680A4A23F4A5
:1037AC0080231360084B5B68074A23F4FE035360C5
:1037BC00054B4FF41F029A60054B4FF000629A6064
:1037CC0000BFBD4680BC7047001002400000FFF8EF
:1037DC0000ED00E0002103E00B4B5B58435004313B
:1037EC000A480B4B42189A42F6D30A4A02E00023CD
:1037FC0042F8043B084B9A42F9D3FFF7B7FF00F0AD
:10380C000FF8FFF783FB7047D0380008000000204A
:10381C000C0000200C00002020010020FEE700001E
:10382C0070B500250C4E0D4CA41BA410A54209D15B
:10383C0000F022F800250A4E0A4CA41BA410A54245
:10384C0005D170BD56F8253098470135EEE756F88E
:10385C00253098470135F2E7C8380008C838000809
:10386C00C8380008CC38000803460244934200D103
:10387C00704703F8011BF9E7F8B500BFF8BC08BCAA
:10388C009E467047F8B500BFF8BC08BC9E46704712
:10389C0002030405060708090A0B0C0D0E0F101085
:1038AC0001020000000000000000000001020304FF
:0C38BC00060708090000000001020304D8
:0438C80031010008C2
:0438CC000D010008E2
:0C38D00010000000010000000024F400C3
:04000005080037E1D7
:00000001FF
